:020000040000FA
:060000000201070221F1DC
:03002B0002261D8D
:03003B0002264258
:030043000225F59E
:030053000222671F
:10008300022047E5C754F84401F5C779012200006F
:100093000080FB120086B900030200F1E4792178A5
:1000A30008B800028004F709D8FCE479297802B87B
:1000B30000028004F709D8FCE490028178027917E2
:1000C3008002F0A3D8FCD9FA7A827B1890013778A2
:1000D300FA79038015E493A3AD82AE838A828B837E
:1000E300F0A3AA82AB838D828E83D8E9D9E7758288
:1000F3009475837F7400120119758291758300745E
:100103000012011975D00075813F751881751902A8
:10011300759F00020096C09FF59FE473D09F22D085
:1001230083D082C09FE493C0E0740193C0E0740263
:1001330093F59F220809534A4D2E4550470512084F
:10014300000800020A00020106424C45425244479D
:100153000000000000000000000000000000420456
:1001630000004804FF0000B40000280028002830E5
:1001730075A000A000A000A00000080008E001F0A6
:10018300001000100010001000100010005000506C
:1001930000500010001000D0070000000000000F06
:1001A3000001000500307507001000010081FF0009
:1001B300000000FFFFFF760694067C06B806FF02E8
:1001C300020208025000A0000000E80302D48101EB
:1001D3000000BD8102D8810100000D1902DE8101FA
:1001E3000000C30202D8810100000E1902E0810160
:1001F3000000D90202D8810100000F1902E2810137
:100203000000DB0202D881010000101902E481081A
:100213000000DC0202D881010000111902E681010D
:1002230000001219FF0100FF2002D481010000C069
:100233008102D881010000761902E88100000000E4
:100243000002F6810300000A0317002A0D2A0D2A73
:100253000D2A0D2A0D2A0D2A0D2A0D2A0D2A0D2AE3
:100263000D2A0D2A0DCA0FDC0FC40F02020202026F
:1002730002020202010D000000100102D4810100FC
:1002830000C38102D881010000B91902F281010083
:1002930000270702D881010000BA1902F08101008A
:1002A30000178102D881010000BB1902EC81010013
:1002B30000098102D881010000BC1902EA81010012
:1002C30000838002D881010000BD1902CE810100A4
:1002D30000958002D881010000BE1902CC81010083
:1002E30000B98002D881010000BF19020482010015
:1002F30000A78002D881010000C01902DC8101003F
:1003030000FB8002D881010000C11902EE810100C7
:1003130000C219010577100A0A6811FFFFFF0001E7
:100323003075030201060000000000000000000019
:1003330000000000000000000000000000000000BA
:100343000000FFFF0600800CE803020A43686172A5
:100353006163746572697374696320310002436871
:100363006172616374657269737469632032000832
:10037300436861726163746572697374696320337E
:1003830000104368617261637465726973746963B1
:100393002034000243686172616374657269737427
:1003A300696320350002D481010000C68102D8812F
:1003B300010000991A02FA81030000641802DA812D
:1003C3000100009A1A02D881010000AB1A02FC81D5
:1003D300010000651802DA81010000AC1A02D8811D
:1003E300010000BD1A02FE81020000661802DA81D4
:1003F300010000BE1A02D881010000CF1A02008258
:100403000000007A1802F6810300007B1802DA81EB
:10041300010000D01A02D881010000E11A02028211
:100423000400007D1802DA81010000E21A120122A1
:10043300C6F402120122A0F602120122B4F702123C
:100443000122B7F702120122DBF70212012219F887
:10045300021201228AA6031201229DA6031201227F
:10046300CEA60312012208A70312012261A70312D9
:100473000122A8A703120122F0A7031201221FA839
:10048300031201224EA80312012285A8031201229E
:10049300CCA803120122E5A8031201223AA90312F0
:1004A300012253A903120122A1A903120122DBA9EC
:1004B30003120122D67600120122D97700120122FB
:1004C30012780012012235780012012247780012B7
:1004D3000122857800120122017900120122C979D3
:1004E30000120122EB7900120122827A001201220A
:1004F300D47A00120122057B00120122127B001222
:1005030001227C7B00120122D37B00120122D67BC5
:10051300001201220F7C00120122127C0012012220
:100523001C7C00120122707C00120122B17C00129B
:100533000122E47C00120122217D00120122237E8C
:1005430000120122C77E00120122307F0012012215
:100553006E7F00120122D99A03120122019B03121A
:1005630001222E9B03120122669B03120122C49BCC
:1005730003120122109C03120122779C0312012211
:10058300B79C03120122F49C03120122229D031241
:100593000122CC9D03120122D69D03120122E39D69
:1005A30003120122169E03120122229E031201222C
:1005B3003A9E03120122449E031201220EFF0212ED
:1005C30001221CFF0212012234FF021201224BFFFF
:1005D300021201221BA601120122C5A60112012249
:1005E300D8A70112012254A80112012272A90112F3
:1005F3000122AEA90112012249AA011201222DAB47
:1006030001120122F9AB0112012287AD011201226D
:10061300F8AD01120122B2AE01120122A4AF011200
:100623000122E4AF0112012298B001120122CAB0E3
:1006330001120122C0B20112012202B301120122EE
:1006430020B30112012286B30112012255B4011213
:10065300012219B50112012238B70112012250D12A
:10066300021201223AD202120122E5D2021201221F
:1006730036D302120122E6D30212012257D4021208
:1006830001223CD50212012270D50212012269D641
:1006930002120122A6D60212012282D702120122DD
:1006A300C1D702120122DDD702120122E3BC0312D9
:1006B300012267BD0312012292BD03120122ACBEC7
:1006C30003120122D29E03120122E89E0312012289
:1006D300069F0312012217A00312012221A0031275
:1006E30001224CA10312012243A203120122B0A250
:1006F3000312012227DE0212012257DF0212012216
:10070300D1DF0212012201E00212012214E00212DF
:1007130001225EE00212012221E20212012207827B
:1007230001120122938201120122F7830112012295
:100733000384011201223E8401120122AD840112BD
:100743000122B68501120122BF860112012286878A
:1007530001120122E38801120122018901120122FF
:100763001E8901120122CB8901120122488A01123A
:100773000122708A011201223A8D011201223F8D5A
:1007830001120122588F01120122A68F01120122A8
:10079300169001120122549001120122309101128C
:1007A3000122F091011201223C92011201223F9297
:1007B30001120122839201120122CB920112012222
:1007C3000A93011201222C93011201226093011258
:1007D3000122C393011201220DFA021201221BFA14
:1007E300021201226EFA021201228DFA0212012272
:1007F300D2FA0212012216FC02120122B1FC0212E9
:100803000122F5FC021201221FFD021201228EFDBC
:1008130002120122D4FD021201224BFE0212012216
:10082300FCFE02120122CB26001201226C270012C9
:100833000122C82700120122852800120122A129C2
:1008430000120122D32900120122022A00120122DE
:10085300AF2B00120122262E001201229630001225
:1008630001228831001201228132001201228834D0
:10087300001201227C3700120122AB380012012240
:10088300AF3A00120122BF3B001201224E3D00127B
:1008930001223F3E001201228D3E00120122FC3E46
:1008A30000120122203F00120122713F0012012297
:1008B3001244001201221345001201227445001252
:1008C30001229F45001201226546001201229F96D4
:1008D30003120122A99603120122EE9603120122AA
:1008E300029703120122929703120122CB9703125C
:1008F30001220698031201222F98031201228398E2
:1009030003120122989803120122BA9803120122BA
:10091300CF9803120122E39803120122F8980312DD
:1009230001223299031201225E9903120122EE99E8
:1009330003120122199A031201225C9A0312012263
:10094300869A03120122B19A03120122BBC4031235
:1009530001221CA402120122FFA4021201227AA581
:1009630002120122B5A50212012206A702120122D8
:1009730094A70212012226AA02120122D8AA021265
:100983000122E4AB0212012257AD02120122B0ADE3
:10099300021201220D8E03120122508E0312012234
:1009A300D48E03120122AB910312012277B80312F2
:1009B300012229B90312012225BA0312012264BAC2
:1009C30003120122BEBA03120122DBBE031201226B
:1009D3003EBF03120122DBBF0312012210C0031228
:1009E300012240C0031201227BC0031201229BC0DB
:1009F30003120122C384031201224F850312012231
:100A03000E86031201222687031201224089031254
:100A13000122888D02120122AD8D021201227A8EEB
:100A2300021201224E8F02120122BB8F02120122F7
:100A3300FB8F02120122979002120122CB91021224
:100A43000122A6920212012205930212012291931E
:100A530002120122FF93021201228B94021201223D
:100A6300D19402120122439502120122D59502125A
:100A73000122769602120122969602120122DE9636
:100A83000212012227970212012243970212012226
:100A9300699702120122E39702120122F1970212CF
:100AA3000122809802120122E99802120122778919
:100AB30003120122FC89031201223E8A031201223E
:100AC300228B031201228F8B03120122D38B031279
:100AD3000122178C03120122448C031201226C8C15
:100AE30003120122A48C03120122E28C03120122BD
:100AF300098D03120122838D03120122CD8D03126E
:100B0300012248C801120122E7C9011201221FCCA8
:100B13000112012273CC011201229ECC0112012287
:100B23007ACD01120122AACD01120122D9CD0112DF
:100B33000122ECCD011201222DCE011201225ACE47
:100B430001120122A8CE01120122E4CE01120122D8
:100B530029CF0112012276CF01120122F0CF011217
:100B6300012231D2011201221BD40112012257D4D6
:100B730001120122E6D5011201222BD60112012214
:100B83009ED601120122F3D60112012257D7011278
:100B9300012282D701120122A1D801120122B2D867
:100BA3000112012259AE02120122D2AE0212012217
:100BB3008CB40212012297B50212012240B702122D
:100BC3000122CEB702120122BE62001201223F634C
:100BD300001201226C6300120122B563001201228C
:100BE300B664001201220F65001201228B66001207
:100BF30001220D6700120122286700120122996762
:100C03000012012256680012012219690012012202
:100C1300A769001201225E6A00120122716A0012A2
:100C230001220A6B00120122A16B00120122C86B80
:100C330000120122316C001201227B6C001201228E
:100C4300C96C00120122706D001201220E6E001297
:100C530001229B6E001201220C6F00120122536FBE
:100C630000120122AB6F00120122DD6F001201227C
:100C73009E7000120122A17100120122EA7100127A
:100C830001220772001201222672001201225973F7
:100C93000012012210740012012235740012012285
:100CA3004A7400120122BA7400120122FB7400126A
:100CB30001221F7600120122A07600120122F8B74A
:100CC3000212012243B8021201224FB8021201227A
:100CD30023B9021201223AB90212012277B9021290
:100CE3000122A8B902120122E0B90212012236BA86
:100CF300021201224CBA0212012288BA0212012204
:100D03009BBA02120122C2BA02120122F6BA0212DD
:100D130001221CBC0212012266BD0212012262BE24
:100D23000212012278BF02120122F5FF01120122F1
:100D330062E70112012291E701120122E3EA0112A3
:100D430001223AEC01120122F9EC0112012260F0B6
:100D5300011201224CF1011201229EF10112012222
:100D6300B8F101120122EAF101120122F5F1011297
:100D73000122FEF101120122B0F20112012280F3DD
:100D830001120122C7F3011201222DF401120122E3
:100D93009FF4011201229B9401120122DB9701129D
:100DA3000122E19701120122A09E01120122C5A294
:100DB3000112012243AA0312012220AB03120122D2
:100DC30064AB031201229EAB0312012236AC031261
:100DD3000122A5AC03120122AEAC03120122BAAC6C
:100DE30003120122D4AC03120122FEAC031201222E
:100DF3002EAD031201225D92031201226A920312A5
:100E03000122849203120122B79203120122F59266
:100E1300031201225A93031201226F930312012238
:100E23007A93031201228793031201229E930312E2
:100E33000122AC9303120122B79303120122C3933D
:100E430003120122D29303120122DD930312012222
:100E5300009403120122A49403120122B4940312F6
:100E63000122CE9403120122EB9403120122069570
:100E7300031201222B95031201223695031201223C
:100E83004B95031201225F9503120122C0950312B1
:100E93000122C69503120122CC9503120122D29599
:100EA30003120122EA95031201221D960312012265
:100EB3000580021201229C80021201223481021257
:100EC30001222482021201225B82021201226E821B
:100ED30002120122DC820212012277840212012211
:100EE3009E8402120122408502120122758502129C
:100EF3000122868502120122FF8502120122208629
:100F03000212012238860212012290870212012264
:100F1300998902120122E98B02120122EC8C02123E
:100F230001223B8D02120122D5D801120122D2D90E
:100F330001120122BDDA01120122C7DA01120122D4
:100F4300E9DA01120122F5DA0112012247DC01126A
:100F5300012276DC01120122A6DD01120122E8DD65
:100F63000112012214DF01120122EADF0112012220
:100F73003CE0011201229BE001120122D2E00112A6
:100F830001220DE101120122A8E401120122C1E4B0
:100F93000112012243E50112012251E5011201224E
:100FA300A6E501120122B4E50112012221E6011294
:100FB300012293E601120122D9E6011201220C99C2
:100FC300021201222E9902120122189B02120122FF
:100FD300BD9E0212012200A002120122DAA0021217
:100FE3000122A9C003120122CEC0031201223FC174
:100FF3000312012295C1021201229EC10212012293
:10100300A7C102120122D8C202120122F7C402129E
:1010130001222DC50212012267C5021201229DC5BC
:1010230002120122D7C5021201220BC602120122AB
:1010330037C60212012280C602120122BAC6021268
:10104300012202C70212012258C7021201228DC7D0
:1010530002120122E8C70212012222C8021201224F
:1010630073C802120122A9C802120122E3C80212A4
:10107300012211C90212012234C90212012280C6BF
:1010830003120122ACC60312012207C70312012275
:1010930011C70312012221C7031201220080031288
:1010A30001222780031201220CC903120122D14617
:1010B30000120122664800120122E14800120122B7
:1010C3008D4900120122304A00120122C84A00123F
:1010D3000122604F00120122F24F001201222E5111
:1010E300001201229851001201224C5200120122D7
:1010F3000255001201223C5500120122A65500128E
:101103000122035600120122605600120122BD562D
:1011130000120122A85700120122EE5700120122E9
:101123003958001201225C5800120122BE590012E4
:101133000122D95900120122615B00120122A05B36
:1011430000120122E05B00120122335C0012012233
:10115300545C00120122925C00120122B85E00125C
:101163000122F95E00120122905F001201223C600D
:1011730000120122D76000120122496100120122EC
:101183008A620012012298E9021201223EEA021247
:10119300012283EB021201220CEC02120122F9EC70
:1011A3000212012238ED02120122A2ED02120122E3
:1011B30010EE0212012203CA0312012261B00312CC
:1011C30001222CB303120122D6FF01120122CFC543
:1011D30003120122DFC503120122F6C50312012205
:1011E30072C6031201225CAD0312012204AE031284
:1011F300012246B003120122FB7F00120122E97F84
:10120300001201223ED8021201223BDA021201220D
:10121300C1DA02120122C7DB021201228BDC0212A5
:10122300012208DD0212012273DD0212012276DDA2
:101233000212012284DD02120122A1DD0212012227
:10124300CADD02120122F3DD0212012201DE0212C3
:10125300012219DE02120122D4C7031201224DC852
:10126300031201226CC80312012299C30312012243
:10127300CAC303120122F4C30312012252C403128C
:101283000122C2C902120122D7C90212012233CAA2
:10129300021201229ECA02120122E6CA021201228E
:1012A30058CB0212012281CB021201228FCB0212F0
:1012B3000122F1CB021201222FCC021201224ACCCD
:1012C30002120122E5CC021201228ECD021201226A
:1012D30011CE021201224ACE02120122D5CE0212EF
:1012E30001222CCF021201228ACF021201229CCFAB
:1012F30002120122C2CF02120122CBCF021201221B
:101303001CD1021201222BC703120122E9BA0312D4
:10131300012250BB031201220DBC031201228BBC1C
:1013230003120122BAA203120122EDA20312012227
:101333001FA40312012263A4031201223FA5031277
:1013430001225FC2031201223DC303120122DFB552
:101353000312012224B6031201226AB603120122E8
:1013630033B8031201227CC80312012297C8031267
:101373000122A7C803120122EEF501120122CAF6C7
:101383000112012211F7011201224EF7011201226B
:10139300BCF70112012216F80112012286F801128C
:1013A300012256F90112012245FA01120122BCFA67
:1013B3000112012258FC01120122E5FC0112012253
:1013C30058FD01120122D4FD01120122EBFD01128D
:1013D300012210FF011201226AFF01120122F0E330
:1013E3000212012210E40212012216E50212012266
:1013F30062E50212012282E502120122D5E5021200
:10140300012242E60212012288E602120122ECE6E0
:101413000212012245B70112012272BC01120122FC
:101423009BBC01120122C4BC0112012276BD011230
:1014330001225FBF01120122AAC001120122C3C00F
:1014430001120122FAC50112012233C6011201223F
:1014530077C60112012288C7011201223AB303128F
:10146300012252B303120122A7B303120122AAB32A
:101473000312012298B403120122F0B403120122D1
:1014830086B503120122A8B50312012239EF021215
:101493000122C9EF02120122E6EF02120122FFF03C
:1014A30002120122A4F102120122CFF2021201223E
:1014B30085F40212012291C903120122D7C9031232
:1014C3000122DBFF02E066701008A3E066700A08E1
:1014D300A3E066700408A3E06622C3E7960809E761
:1014E300960809E7960809E79622C3E09608A3E061
:1014F3009608A3E09608A3E09622C008C3E096F5F9
:101503000808A3E096420808A3E096420808A3E06F
:101513009645087001D3D00822080808EAC0E0EB1A
:10152300C0E086F0E7A4FA180986F0E7A42AFA18BF
:101533000986F0E7A42AFA180986F0E7A42AFA191B
:1015430086F0E7A4FBE5F02AFA190886F0E7A42B56
:10155300FBE5F03AFA190886F0E7A42BFBE5F03A2D
:10156300FA18180986F0E7A4C5F02BFBE43AFA1938
:1015730008E7C5F0C6A426F6E5F03BFBE43AFA1803
:1015830086F0E7A4F6E5F00826F6E43B08F6E43A2D
:1015930008F6D0E0FBD0E0FA226016080808C6C3BC
:1015A30013C618C613C618C613C618C613C6D5E085
:1015B300EA227009080808226016181818C6C333EF
:1015C300C608C633C608C633C608C633C6D5E0EA5E
:1015D30022E627F60809E637F60809E637F608098A
:1015E300E637F622E026F608A3E036F608A3E0364F
:1015F300F608A3E036F622E026F008A3E036F0086A
:10160300A3E036F008A3E036F022C3E697F6080914
:10161300E697F60809E697F60809E697F622C3E087
:1016230096F008A3E096F008A3E096F008A3E096EE
:10163300F022E056F608A3E056F608A3E056F608B3
:10164300A3E056F622E056F008A3E056F008A3E024
:1016530056F008A3E056F022E0F608A3E0F608A34C
:10166300E0F608A3E0F622E6F008A3E6F008A3E616
:10167300F008A3E6F022E0FAA3E0FBA3E0FCA3E07A
:10168300FD22E0F8A3E0F9A3E0FAA3E0FB22E8F0EF
:10169300A3E9F0A3EAF0A3EBF022CAC0E0E6F0A3CB
:1016A30008DAFAD0E0FA22CAC0E0E0A3C582CCC5CA
:1016B30082C583CDC583F0A3C582CCC582C583CD46
:1016C300C583DAE6D0E0CA22C3E498F8E499F912B4
:1016D300170C8026C3E49AFAE49BFBE920E7E9129E
:1016E300170CE498F8E499F922C3E498F8E499F91B
:1016F30012170CE498F8E499F9C3E49AFAE49BFB13
:1017030022EB20E7CFE920E7E0B90010BB0008E8AF
:101713008AF084F8AAF022E4FBC8FA22EB70227B59
:1017230010C833C8C933C9335007C39AC3DBF28027
:10173300069A50012ADBEAC833F4C8C933F4C9FA5C
:101743002275F008E4C833C8C933C933C99AC99BA1
:101753005004C92AC93BD5F0ECFBC833F4C8E4C92B
:10176300FA22600D08C6A2E713C618C613C6D5E051
:10177300F322600C08C6C313C618C613C6D5E0F41B
:1017830022700422600D18C6C333C608C633C6D5FB
:10179300E0F41822251810AF08F518400C1519802D
:1017A30008F51840021519D2AF2200C0D025181031
:1017B300AF08F518500C05198008F51850020519E3
:1017C300D2AFD0D0222518F58210AF08F518400CFF
:1017D30015198008F51840021519D2AF851983220F
:1017E3002518F582E43519F583222518F8E435190F
:1017F300F9222518FAE43519FB222518FCE43519DA
:10180300FD22E4732518C582C0E0E51934FFC583C2
:10181300C0E0E518C3958224F810AF0885831985C5
:1018230082188008858319858218D2AFCEF0A3E58C
:1018330020F0A37808E608F0A3DEFAEFF0A3E58131
:1018430024FAF8E608F0A3E608F0A3E608F0A308F4
:1018530008E608F0A3E608F0A315811581D0E0FEA1
:10186300D0E0F8158115811581E8C0E0EEC0E022D3
:101873002518C582C0E0E51934FFC583C0E0E5182B
:10188300C3958224F910AF088583198582188008CF
:10189300858319858218D2AFCEF0A3E520F0A37813
:1018A30008E608F0A3DEFAEFF0A3E58124FBF8E6EF
:1018B30008F0A3E608F0A30808E608F0A3E608F09A
:1018C300A315811581D0E0FED0E0F815811581E8DC
:1018D300C0E0EEC0E022851983851882E0A3FEE014
:1018E300A3F5207808E0A3F608DFFAE0A3FFE0A35E
:1018F300C0E0E0A3C0E0E0A3C0E0E0A3C0E0E0A359
:10190300C0E010AF08858218858319800885821886
:10191300858319D2AFD083D08202011F85198385B5
:101923001882E0A3FEE0A3F5207808E0A3F608DF21
:10193300FAE0A3FFE0A3C0E0E0A3C0E0E0A3C0E0BF
:10194300E0A3C0E010AF088582188583198008855D
:101953008218858319D2AFD083D08222C0D02518B4
:10196300C582C0E0E51934FFC583C0E0E518C3951F
:101973008224F310AF088583198582188008858334
:1019830019858218D2AFC8F0A3E9F0A3EAF0A3EB5C
:10199300F0A37908E709F0A3D8FAECF0A3EDF0A3DC
:1019A300EEF0A3EFF0A3D0E0F0A3D0E0F0A3D0E0FB
:1019B300F0A3E520F0A3E5F0F0A3228519838518B1
:1019C30082E0C0E0A3E0F9A3E0FAA3E0FBA3780878
:1019D300E0F608A3DFFAE0FCA3E0FDA3E0FEA3E04A
:1019E300FFA3E0C0E0A3E0C0E0A3E0F5D0A3E0F5EF
:1019F30020A3E0A3F5F010AF088583198582188032
:101A030008858319858218D2AFD082D083D0E0F8BD
:101A1300D0E03274048006740280027401C0E0F4E2
:101A2300041217C8D0E012169D22740480047402B5
:101A33008000CCC0E0EDC0E0E518C39CCCAD1950EC
:101A4300011D10AF068C188D1980068C188D19D2C4
:101A5300AF1216AAD0E0FDD0E0FC22D083D082E9F9
:101A6300C0E0E493A3C386F0C5F095F0F908E493CE
:101A7300A386F0C5F095F0700BE493A3C3994005DA
:101A8300E9048002A3E475F002A42582F582E5F05F
:101A93003583F583D0E0F9E493A3C0E0E493C0E099
:101AA30022D083D082ECC0E0EDC0E0E493A3FCE459
:101AB30093A3FDED4C600D121AF0EC24FFFCED3402
:101AC300FFFD80EFE493A3FCE493A3FDED4C600DD5
:101AD300121B2FEC24FFFCED34FFFD80EFD0E0FD63
:101AE300D0E0FCE493A3C0E0E493C0E022C0E0C3F1
:101AF300E49396087401939618400FE49366700874
:101B030008740193661870007019A3A3C3E4939635
:101B1300087401939618A3A3400DD0E0D0E0D0E061
:101B2300021AE0A3A3A3A3A3A3D0E022C0E0C0F0C2
:101B330088F0E4936670080874019366187000A82F
:101B4300F0A3A3700BD0F0D0E0D0E0D0E0021AE015
:071B5300A3A3D0F0D0E022B3
:101B5C0074F6121873EAFEEBFF8C088D09EE243430
:101B6C00F8E43FF9E8FCE9FDEE2435121E96FAEE96
:101B7C002437121E96F88508F0A4C885F00A85094A
:101B8C00F0A4250AF9EA28F8E439F97A257B001241
:101B9C00170CEA8C828D83F0FA131313541FF8EE92
:101BAC0028F8E43FF9E8245DF582E439F583E0C0D8
:101BBC00E074075AF8D0E0B800028004C313D8FCD4
:101BCC00A2E0EE50082434F582E43F80182436124B
:101BDC001E96F5F0EA84A8F0EE28F8E43FF9E82424
:101BEC0038F582E439F583E0F97F0302191F74F7A5
:101BFC00121873EAFEEBFFEE2434121E96C0E0EED0
:101C0C002435F582E43FF583D0E0F08E828F83A3F8
:101C1C00A3A3A3A3A3A3C082C0838E828F83A3A3F9
:101C2C00A3A3A3121CFFD083D082E0C398F508A312
:101C3C00E099F509EE247F121E966401705DEE2486
:101C4C0080121CF98E828F83A3A3A3A3A3A3A31238
:101C5C0020398E828F83A3A3A3A3A3E0FAA3E0FB76
:101C6C00C3EA9CEB9D5010C3EC98ED99402DC3EA50
:101C7C0098EB995026800EC3EA98EB994007C3EC79
:101C8C0098ED9940167CB47D04EEFAEFFB120C6AC9
:101C9C00EE247FF582E43FF583E4F0AC08AD09EE69
:101CAC00FAEFFB121B5CE9F91225E77F0202191F00
:101CBC00C082C083851882851983121CFFC3EA9CDD
:101CCC00EB9D5010C3EC98ED99401BC3EA98EB992F
:101CDC005014800EC3EA98EB994007C3EC98ED9929
:101CEC004004790180027900D083D08222F582E40D
:101CFC003FF583E0F8A3E0F922EAC39CFAEB9DFBE5
:101D0C002274EF12187390037AE064086005E064A3
:101D1C0007702A9061C8E060249003A8E0F4601D6D
:101D2C00E0F875F00AA4C8AAF02AF974AA28FE747F
:101D3C000339FF8E828F83A3A3A3E07003021E1BC3
:101D4C00906060E0C0E0EE2468F582E43FF583D05B
:101D5C00E0F0750C24750D05750800750900E5D9C2
:101D6C0014F50AE5D95403F50E60127403650E6080
:101D7C0043E50A600AEE2467121E96700280759085
:101D8C00051FE06401601F121E9360047A04800238
:101D9C007A00E50AC39AFA95E0FB120B148A088BB9
:101DAC0009EA45097005120E928064121E937004A4
:101DBC008A0C8B0DE50A6012850C82850D83F50B60
:101DCC00E5D9F0A3150BE50B70F6121E9360447465
:101DDC00FC250AF50A780C121A1AAC0AA90EEEFAAE
:101DEC00EFFB120D2474021217ADE97026AA08AB92
:101DFC0009121312793D8E828F83A3A3A3A3E0FA59
:101E0C007B00120976EEFAEFFB120C8E120D36796E
:101E1C0000806F7403650E6051850A10751100788F
:101E2C0010121A1AAC0CAD0DAA08AB09120CE874FE
:101E3C00021217ADEE2468121E9664807004747F33
:101E4C008001E0F50C780C121A1EE50EF50C780CDE
:101E5C00121A1EA90AAC08AD099003A8E0FA7B007F
:101E6C0012094C74021217AD801390037AE06408C7
:101E7C00600BAC0CAD0DEEFAEFFB120DA8120E9E22
:101E8C0079017F0A02191FEE2482F582E43FF58363
:101E9C00E02274F212187374FC121797EAFEEBFF2F
:101EAC008909A2AFE433F508C2AF021F5AE0601BE8
:101EBC00780C121A1AAC0BA90EEEFAEFFB120D1ECF
:101ECC0074021217AD7404250BF50B7401250BF578
:101EDC00D9850ED9E50B6018F50A850C82850D8322
:101EEC00E0F5D9A385820C85830D150AE50A70EA05
:101EFC0075E195EE2463F8E43FF97A007B00A2AF1C
:101F0C00E433F50BC2AF122035EC4D603288828978
:101F1C0083E0FAA3E0FB8A828B83122039888289C2
:101F2C0083ECF0A3EDF08A828B83E4F0A3F0122013
:101F3C0035EC4D700A88828983A3A3E4F0A3F0E505
:101F4C000BA2E092AF1213129004BBE004F0EE244B
:101F5C0063121CF9E8496064EE2463121E96240295
:101F6C00F8A3E03400F988828983E5822402F50C19
:101F7C00E43583F50DE0F50BA3E0F50EEE246212CB
:101F8C001E96640170369061D0E0F8121E936004C6
:101F9C007C0480027C007480C398FA95E0FBE50B0E
:101FAC002CF8E43400F9E82402F8500109C3EA984B
:101FBC00EB99A2D265D0334003021EB99004BBE06A
:101FCC00604D9004BCE0F89004BBE0C398500C74D6
:101FDC00026509703A9004BDE060348E828F83A351
:101FEC00A3A3A3E085188285198312202B740212F7
:101FFC0017E3E812202B9004BAE028F074021217B1
:10200C00FDAA18AB1979011209A09004BBE4F0E504
:10201C0008A2E092AF74041217AD7F0702191FF0EB
:10202C00A3E4F09004BBE0F82288828983E0FCA34F
:10203C00E0FD22008521878522C622C0E074EB12C8
:10204C00195FA2AFE433F508C2AF759B00906182B3
:10205C00E0A2E05030E591A2E0502A7591FE7401A7
:10206C00652170211221DA120DEA1221C8121A2DE3
:10207C0012239174041217ADE964017005790112F1
:10208C000E26121D0D906182E0A2E5505DE591A235
:10209C00E550577591DF90037AE064076005E064C2
:1020AC0008702F1221DA74016521703E120DEA12AC
:1020BC0021C8121A2D12239174041217ADE9640170
:1020CC0070057901120E267901EEFAEFFB121E9EB5
:1020DC008018E0640D701390039CE004F064287089
:1020EC0002E4F07A00E0F9120EA4906182E0A2E61C
:1020FC00400302219DE591A2E6400302219D7591CA
:10210C00BF90037AE064057008120DD2120DDE80C8
:10211C0003120DD8752100120E32E990037BF07971
:10212C0000120E26120BDA7A017B00900379E0F98B
:10213C001212DC907803E064427056900523E01490
:10214C00F0704EC2AF12215400782AD0E0F618D0AD
:10215C00E0F6E59F5407F87005750DFF8003750DCB
:10216C007FC4C0E07829E6F50A08E6550DF50B7436
:10217C000B780A121775D0E0250AF8906270E0A26D
:10218C00E740F8E8C333906272F0906270E0D2E0FE
:10219C00F0906181E0A2E35009E5E9A2E3500375F8
:1021AC00E9F7A3E0A2E75009E591A2E75003759186
:1021BC007FE508A2E092AF7F080219BE8E828F8362
:1021CC00E0F8A3E0C82416F582E438F583229003E6
:1021DC00A8E0F875F00AA4C8AAF02AF974AA28FE97
:1021EC00740339FF22C0E0C0D0C082C083906183E9
:1021FC00E0A2E05009E5BFA2E0500375BFFEE0A2EB
:10220C00E15009E5BFA2E1500375BFFDE0A2E25029
:10221C0009E5BFA2E2500375BFFBE0A2E35009E55C
:10222C00BFA2E3500375BFF7E0A2E45009E5BFA2DB
:10223C00E4500375BFEFE0A2E55009E5BFA2E550FD
:10224C000375BFDFE0A2E65009E5BFA2E6500375B7
:10225C00BFBFD083D082D0D0D0E032C0E074F212B5
:10226C00195FE5A7A2E6500FE5A1A2E6500953A716
:10227C00BF75A1BF1222BBE5A7A2E5500CE5A1A238
:10228C00E5500653A7DF75A1DFE5A7A2E15009E5EC
:10229C00A1A2E1500375A1FDE5A7A2E2500CE5A1B6
:1022AC00A2E2500653A7FB75A1FB7F010219BE7475
:1022BC00F712187375210190037AE06406701512F9
:1022CC000D5A8A828B83A3A3A3A3A3A3E0FAA3E052
:1022DC00FB120DC0A2AFE433FED2AF900380E064DA
:1022EC000170187A207B00900379E0F91214027ABD
:1022FC00207B00900379E0F91212E2906182E0D227
:10230C00E6F0900520E0602185C622801690037FC0
:10231C00E064017008E5C654F84405F5C653BEFCEC
:10232C001220407401652160E4EEA2E092AF7F02BE
:10233C0002191F008E238F248582288583278518F8
:10234C0082851983E0CEA3E0CF852882852783EB95
:10235C00C9EAC8EDCBECCA75F010C3E833C8E93351
:10236C00C9EA33CAEB33CBC3EA9EF526EB9FF525BE
:10237C00B35004AB25AA26EC33CCED33CDD5F0DA33
:10238C00AE23AF242274F11218738A088B098C0ABD
:10239C008D0B9081B17808121635740F1217E378F3
:1023AC000C12165B9081B1780C1216357808790CEA
:1023BC001214DD90816D50107808790C12160D787E
:1023CC00081214FD4014800E780C790812160D7842
:1023DC000C1214FD50047901800279007F08021957
:1023EC001F74ED1218738A088B098C0A8D0B90815F
:1023FC00B1780812163574131217E3780C12165BA9
:10240C009081B1780C121635780C79081214DD40D5
:10241C00117808790C12160DAA08AB09AC0AAD0B91
:10242C00802275100075110075120075130178105B
:10243C00790C12160D781079081215D4AA10AB115C
:10244C00AC12AD137F0C02191F9081B178081216D3
:10245C005B8A828B8378081216487F0402191F74DA
:10246C00F51218738C828D83780812165B8A828B16
:10247C008378081216211224C3C3E09CF0A3E09DBC
:10248C001224B54022908191780812165B8A828BB7
:10249C008378081215FA8A828B83A3A3A3A3E02462
:1024AC0020F0A3E0344EF080A0F088828983C3E052
:1024BC009420A3E0944E22EA2404F8E43BF98C82A5
:1024CC008D83A3A3A3A3E0FCA3E0FD8882898322D0
:1024DC0074F5121873E9FE9004D6E0FAA3E0FBEE53
:1024EC0029F8E433F974EB28F582748039F583E02C
:1024FC002AF508A3E03BF5097808121A1A9081997D
:10250C0012167912234074021217AD8A088B098CAB
:10251C000A8D0B7410780812159CAA08AB097F045D
:10252C0002191F74F11218738A0C8B0D8C0E8D0FFF
:10253C0074111217E3121A3174111217E3E024010B
:10254C00F508A3E03400F509E4F50AF50B780C79ED
:10255C000812151C908179780812165B780C790892
:10256C0012151CAA0CAB0DAC0EAD0F12234074024D
:10257C001217AD8B09EA450960047A0180027A00D2
:10258C00EC2AFCE43DFD74131217E3E0F8A3E0F928
:10259C00E8FEE9FFECF8EDF97A717B0212170C8872
:1025AC00088909E4F50AF50B8E828F8378081216D8
:1025BC006AECF8EDF97A717B0212170C8A088B0918
:1025CC00740578081217848E828F83A3A3A3A3E5C6
:1025DC0008F0A3E509F07F0802191FC082C083E947
:1025EC00906000F0D083D08222C0E074F212195FA8
:1025FC00A2AFE433FED2AFC2C0E5D1A2E45006755F
:10260C00D10F121252EEF8EEA2E092AF7F01021936
:10261C00BEC0E0C0D0E8C0E0E9C0E0A2AFE433F84F
:10262C00D2AFC2C7E8F9E8A2E092AFD0E0F9D0E0AF
:10263C00F8D0D0D0E032C0E0C0D0E8C0E0E9C0E0D3
:10264C00EAC0E0C082C083A2AFE433FAD2AF9009F3
:10265C0096E0F8900997E068700B539AFB900998F4
:10266C007401F0802CC2E9900996E0F8740128906E
:10267C000996F07900741628F582740939F583E00F
:10268C00F5C1900996E0C3948040069009967400B9
:10269C00F0EAF8EAA2E092AFD083D082D0E0FAD090
:1026AC00E0F9D0E0F8D0D0D0E032C2AF0200002286
:1026BC00FFFFFFFFFFFFFFFFD083D08202011F74DB
:1026CC00F6121807E99002ECF090034CE0F508754F
:1026DC00090074027808121784AA08AB0912135A5D
:1026EC009002ED12307E9002ED12346B606F90030D
:1026FC004CE075F003A4FAABF012135A90030A12D3
:10270C00307E90030A12346B700B9002ED12343C45
:10271C00121360804890030A1243D07AFF7BFF1299
:10272C0011867A0080198A087509007402780812DB
:10273C001784123E7874FF12287EE4F0A3F00A90FE
:10274C00034CE0F8EAC39840DD7905120838900292
:10275C00ECE0F912072A7AC27B08120AB4023F1B7A
:10276C0074F41218078A088B09EB548060479002A6
:10277C00ECE0F91212C48A0A8B0BAE0AAF0BEE4FC7
:10278C00602A8E828F83E064B0701A12084AE96066
:10279C00148E828F83A3A3A3A3E0F9EE2405FAE49D
:1027AC003FFB120820EEFAEFFB1212B2AA08E50961
:1027BC006480FB80047A007B000229CE74F212182C
:1027CC000774FB121797EAFEEBFFEE4F604574039C
:1027DC001217E3EEF0A3EFF0851882851983ECF065
:1027EC00A3EDF074021217E3E9F0AA18AB19120763
:1027FC0024E9F508707574131217E3E0F50AA3E0E9
:10280C00F50BE50A450B60638E828F83122E07EE63
:10281C004F700575080280537A067B0012135A8A92
:10282C000C8B0DA80CA90DE8497005750813803B9D
:10283C0088828983E412287EEEF0A3EF12299AE5B0
:10284C000AF0A3E50BF09002F01229939002F060CD
:10285C0017E0FCA3E08003EAFCEBFD8C828D831275
:10286C00299370F38C828D83123A93A90874050214
:10287C004650F0A31243B2A32274F212180789082F
:10288C00890C750D007403780C121784850C0A855D
:10289C000D0B9002EFF09002ED12389E1229916010
:1028AC002E1213607900801D890C750D007402784E
:1028BC000C1217849002ED123D378882F583A3A386
:1028CC00E4F0A3F00990034CE0F8E9C39840D990E8
:1028DC00034CE0FA850AF0A4CAA8F0850BF0A428F2
:1028EC00FB12135A8A0C8B0DAE0CAF0DEE4F70030E
:1028FC0002298790034CE0FC850AF0A4CCA8F08553
:10290C000BF0A428FD79001212A07C0080318D0CF4
:10291C00750D007403780C1217848A828B8312292C
:10292C008C88828983E4F0122999A3A3F0A3F00D7B
:10293C00EDC3950840D8EE250AFEEF350BFF0C9041
:10294C00034CE0F8ECC39850288C0C750D00740205
:10295C00780C1217849002ED12298CE82402500195
:10296C0009FAE9FB8A828B83EEF0A3EFF07D0080FD
:10297C00BFE5089002EFF07900800279130246530C
:10298C00123D3BF922A3A3123440EA4B22A312437B
:10299C00B2A3A3A32274F41218077900EAA2E050A0
:1029AC001F75084A7509817808121A1A79107C0467
:1029BC007D007A777B1912083274021217ADE9F98F
:1029CC0080007F040218D9C082C0839002F01234B8
:1029DC006B601C88828983A3A3E06A7003A3E06BFD
:1029EC008882898370E8A3A3A3A312343C80047A61
:1029FC00007B000226C474F212180774FD1217979C
:102A0C00EAFEEBFF851882851983E4F0A3F07402CB
:102A1C001217E37401F012346870141209EE1213D9
:102A2C005A9002F312307E1234687003022B941207
:102A3C00317EEE2404F50AE43FF50B850A82F5831A
:102A4C00E024FE603C24FC607424FE607E24FE7056
:102A5C0003022AE424FE7003022AF124FE7003020E
:102A6C002AFE24FE7003022B0B24FE7003022B188B
:102A7C0024FC7003022B3924FE7003022B51022B11
:102A8C008D1209EE9002F5EAF0A3EB122BA01204C2
:102A9C0060E96003022B8D9002F5121A318E828F41
:102AAC0083A3A3A3A3A31243D08508828509831211
:102ABC00343C12080874021217AD022B8DAC18AD01
:102ACC0019EEFAEFFB120850022B5CAC18AD19EEA4
:102ADC00FAEFFB1208568078AC18AD19EEFAEFFB42
:102AEC0012085C806BAC18AD19EEFAEFFB120862A1
:102AFC00805EAC18AD19EEFAEFFB1208688051AC91
:102B0C0018AD19EEFAEFFB12086E8044740212171E
:102B1C00ED880C890D780C121A1A74021217FDEE3E
:102B2C00FAEFFB12087474021217AD8023AC18ADC7
:102B3C0019EEFAEFFB12087AE9F870167402121704
:102B4C00E3E4F0803CAC18AD19EEFAEFFB12088010
:102B5C00E9F8E8602C8E828F83A3E06414602285F0
:102B6C000A82850B83E09002F5F085188285198323
:102B7C0012343C9002F612307EE8A3122BA0120401
:102B8C005AEEFAEFFB1207DE74021217E3E0F97447
:102B9C0003024650F07CF57D02850882850983127C
:102BAC0034402274E812180774FA1217977404123E
:102BBC0017E3ECF0A3EDF08A128B13EA2405F50E63
:102BCC00E43513F50FEA2402F510E43513F51185FD
:102BDC001082F58312343C1205508A0A8B0B75084F
:102BEC00007C037D0079007AF57B021212A0E50EC1
:102BFC002402F516E4350FF51774021217ED880C44
:102C0C00890D780C121A1A850E82850F83A3A3A343
:102C1C00A3E0F50C750D00780C121A1AE50E2405BC
:102C2C00F50CE4350FF50D780C121A1A8516828501
:102C3C00178312374312074274061217AD8A0C8B96
:102C4C000DE50C450D7003022DD080208518828572
:102C5C001983E088828983F0050885188285198399
:102C6C00A3E0C0E0122E11D0E0F00508E50A24FB29
:102C7C00FAE50B34FFFBC3E5089AE49B4003022DF5
:102C8C00D07E007F00851282851383A3A3A3A3E0CB
:102C9C00F5097809121A1EE4F514F5157814121AB0
:102CAC001A7514F27515027814121A1A9002F3128E
:102CBC001A3174091217E3121A31E50A24F9F9AC26
:102CCC000CAD0D85108285118312343C1208AA7448
:102CDC00091217ADE96003022D71850E82850F83F1
:102CEC00A3A3A3A3A3A3A3E0F89002F2E0687075DA
:102CFC00E0F5148E157814121A1A1243CD850E8233
:102D0C00850F83A3A3A3A3A3A3A3A312343C1212E2
:102D1C009A74021217ADE9604C9002F612346B7083
:102D2C003BE4F5147814121A1A7CFF7DFF790785A1
:102D3C00108285118312343C12081A74021217ADDA
:102D4C001234717017850E82850F8312456A7404D4
:102D5C001217E3123E2B123774022E04850C828557
:102D6C000D83122E07A818A9198814891578141226
:102D7C001A1A74041217E3121A31851682851783F6
:102D8C0012307412074E74041217AD8A0C8B0DEEB0
:102D9C004F7003022C4D122E11EE122E1C12372ADC
:102DAC00EF122E1CF8A3E03400F9E50C450D60037E
:102DBC00022C588882898374FFF00508122E117436
:102DCC00FFF00508E508601A1313543F1230841203
:102DDC00046CE960099002F612343C12131279006B
:102DEC008016850E82850F8312456A74041217E3D0
:102DFC00123E2B123A93790A0236FDA3A3A3A3E049
:102E0C00FEA3E0FF22A8089002F6E02812372A223F
:102E1C00F00508089002F6E0282274E812180774EE
:102E2C00FA12179774021217E312307E74041217F9
:102E3C00E3ECF0A3EDF074021217E3E02405123773
:102E4C0013E0F50CA3E0F50D74021217E3E0240275
:102E5C00F510A3E03400F511851082F58312343C93
:102E6C00120550750800750900EA24FCFEEB34FFCE
:102E7C00FF8008050CE50C7002050DA808C3EE9840
:102E8C00EF94005003023030A818A919880E890F4E
:102E9C00780E121A1A851482851583A3A3A3A31284
:102EAC0043D4121A1AE5142405F50EE43515F50F62
:102EBC00780E121A1A851482851583123072120735
:102ECC004274061217AD8A0E8B0FEA450F7003027F
:102EDC003030EA2404F516E4350FF517851682F523
:102EEC0083E0F50CA3E0F50D851882851983124358
:102EFC00D08A828B83A3A3A3E0F9851082851183EA
:102F0C0012343C120730E9F50960030230307402C8
:102F1C001217E312373AF5097809121A1EE4F51262
:102F2C00F5137812121A1A7512F27513027812121E
:102F3C001A1A9002F3121A3174071217E3121A318B
:102F4C00EEF9AC0EAD0F85108285118312343C1254
:102F5C0008AA74091217ADE9F5096003023030E5CF
:102F6C0008703FE4F50EF50F780E121A1A7CFF7DEF
:102F7C00FF790985108285118312343C12081A746A
:102F8C00021217AD123760700D74041217E3123071
:102F9C006779110230649002F2E024029002F6F09C
:102FAC0080149002F6E0FA9002F2E07900240250CC
:102FBC0001096A497072A8089002F2E0FAE82AFA4C
:102FCC00E43400FBEE9AEF9B405A851682851783FA
:102FDC00E0C0E09002F7122E16D0E0F0050885163E
:102FEC0082851783A3E0C0E0089002F7122E16D05A
:102FFC00E0F005089002F21243D4121A1A1243CDD3
:10300C00A80812370712128874021217AD9002F238
:10301C00E02508F50874FF650C700474FF650D60FD
:10302C0003022E7FE508601F9002F6E0F5F0E5083C
:10303C0084123084120472E960099002F712343C55
:10304C0012131279008011E509700375090A7404D2
:10305C001217E3123067A9090236FD1238A2E50CEB
:10306C00F0A3E50DF022A3A312465FAA0CAB0D2230
:10307C00A3A3EAF0A3EBF0229002F5F07CF57D021D
:10308C008510828511831234402274EC1218077457
:10309C00FC121797123BA374021217FD123436124E
:1030AC0007488A0C8B0DEA450D700302316E123104
:1030BC007EA818A919881089117810121A1A7CFF89
:1030CC007DFF790B85088285098312343C12081A1E
:1030DC0074021217AD123274700C850A82850B8340
:1030EC0012377102317B8E828F83A3A3A3A3E0F5E9
:1030FC00127812121A1EE4F512F5137812121A1A1B
:10310C007512F57513027812121A1A7810121A1A0F
:10311C0074091217E3121A3174091217E3E0F9ACAF
:10312C000CAD0D85088285098312343C1208AA74F3
:10313C00091217ADE9FE70157CF57D0285088285B4
:10314C00098312343C120478E97009802074166EDD
:10315C0070027E009002F612343C121312EE7004D0
:10316C00800B7E01850A82850B83123A90EEF90260
:10317C003AA5EE2402F508E43FF5092274EC121886
:10318C000774FC121797EAFEEBFF8C0E8D0FEE24E2
:10319C0005F508E43FF50974021217FD85088285D0
:1031AC00098312343C1207488A0C8B0DEA450D70CA
:1031BC0003023264EE2402F50AE43FF50BA818A9C9
:1031CC0019881089117810121A1A7CFF7DFF790D5D
:1031DC0012343612081A74021217AD123274700BB4
:1031EC00850882850983123771807A8E828F83A33A
:1031FC00A3A3A3E0F5127812121A1E850882850982
:10320C0083A3A3121A317512F57513027812121AD0
:10321C001A7810121A1A74091217E3121A31740957
:10322C001217E3E0F91234321208AA74091217AD1E
:10323C00E9FE700F7CF57D0212343612047EE970C3
:10324C0009802074166E70027E009002F612343CD7
:10325C00121312EE7004800B7E018508828509839F
:10326C00123A90EEF9023AA512347BF510A3E0F570
:10327C0011EA45112274E812180774FE1217978A86
:10328C00168B178C148D15EA2405F50CE43517F5FF
:10329C000DEA2402F50EE43517F50F850E82F58341
:1032AC0012343C1205508A088B09750B007C037D87
:1032BC000079007AF57B021212A0750A00E5081459
:1032CC00F5100424FFF508E50934FFF50980549046
:1032DC0002F5E0FA9002F2E0F8EA28F8E43400F99A
:1032EC00E50898E50999500D9002F5E0F8E510C352
:1032FC00989002F2F0E0F5127513007812121A1A77
:10330C001243CD9002F6E02AFAA3E03400FB12122D
:10331C008874021217AD9002F2E0F89002F5E028E2
:10332C00F0050A850C82850D83A3A3123D4740034B
:10333C000234179002F5E0C39508E49509400302A6
:10334C003417AE0AEE2EFEE433FF123456AC18AD31
:10335C00191243E8E439FB1207488A128B13AC129A
:10336C00AD13EC4D701B750B01123446123A949050
:10337C0002F61229936003121312A90B740202367F
:10338C00FF851682851783A3A3A3A3E0F50B780B07
:10339C00121A1EE4F512F5137812121A1A7512F29B
:1033AC007513027812121A1A9002F3121A3174075A
:1033BC001217E3121A31A910850E82850F8312346D
:1033CC003C1208AA74091217ADE9F50B709B900218
:1033DC00F612346B60030232DBE4F512F51378124B
:1033EC00121A1A7CFF7DFF790F850E82850F8312CE
:1033FC00343C12081A74021217AD123471600302B5
:10340C0032DB1234461237750233887CF57D028527
:10341C000E82850F8312343C120484E9600302335C
:10342C007B7900023388AC0CAD0D850A82850B8349
:10343C0012344022E0FAA3E0FB22123456E0FAA345
:10344C00E0F9EA85148285158322850C82850D832B
:10345C00E02EF8A3E03FF988828983229002F312D0
:10346C00456EE8492212347BF8A3E0F9E849229032
:10347C0002F6EAF0A3EBF09002F6E02274E81218E0
:10348C000774FA12179774041217E312307E8C1615
:10349C008D1774041217E3E02405F50EA3E0340035
:1034AC00F50F74041217E3E0240212371312343CA4
:1034BC001205508A0A8B0B7F007E00A818A9198868
:1034CC000889097808121A1A850E82850F83A3A31E
:1034DC00A3A3E0F5088E097808121A1AE50E240544
:1034EC00F508E4350FF5097808121A1A850E82854D
:1034FC000F83A3A312374312074274061217AD8A27
:10350C000C8B0D8029123734F00F123734F00F90DA
:10351C0002F2123A7F121A1A1243CDEFF812370741
:10352C0012128874021217AD9002F2E02FFFE50C14
:10353C00450D70030235C3851882851983123BB57E
:10354C00A3A3A3E0F985148285158312343C1207DA
:10355C0030E9FEE50C2404F510E4350DF511EE70A0
:10356C005074041217E312373AF5087808121A1E31
:10357C00E4F508F5097808121A1A7508F2750902AB
:10358C007808121A1A9002F3121A3174071217E300
:10359C00121A31E50A24FAF9AC0CAD0D85148285AA
:1035AC00158312343C1208AA74091217ADE9FE6097
:1035BC0039123750123A93EF70030236EA9002F642
:1035CC00E0F5F0EF849002F5F07CF57D0285148235
:1035DC0085158312343C12048AE960099002F712B3
:1035EC00343C12131279000236FD8F08EF703BE465
:1035FC00F512F5137812121A1A7CFF7DFF791185DA
:10360C00148285158312343C12081A74021217ADF9
:10361C0012376070091237501237740236FD90025F
:10362C00F2E024049002F6F080359002F2E0F8907B
:10363C0002F6E0FAE82404FCE43400FDEC6A4D6088
:10364C00030235C9E50A24FAFAE50B34FFFBE50859
:10365C0028F8E43400F9EA98EB9950030235C9854F
:10366C001082851183E0C0E09002F7E02FF8A3E010
:10367C0034008882F583D0E0F00F851082851183A9
:10368C00A3E0C0E0123721D0E0F00F74021217ED66
:10369C00880889097808121A1A74021217E3121A88
:1036AC0031850E82850F8312307212074E7404120C
:1036BC0017AD8A0C8B0DEA450D700302351174029F
:1036CC001217E3E0C0E0123721D0E0F00F740212C1
:1036DC0017E3A3E0C0E0123721D0E0023519EE70F9
:1036EC00027E0A850E82850F83123756123A93EEAC
:1036FC00F974061217AD7F100218D99002F7E02862
:10370C00FAA3E03400FB22F514A3E03400F5158590
:10371C001482F58322123725229002F7E02FFAA3A8
:10372C00E034008A82F5832212372574FF22123886
:10373C00A2A3A3A3A3E02212465F850E82850F836A
:10374C001234402285108285118312456E851682B3
:10375C00851783229002F7EAF0A3EBF09002F712A0
:10376C00456EE84922123A99E8F0A3E9F079112262
:10377C0074EA12180774FE1217978A088B098C12B8
:10378C008D13EA2405FEE43509FFAC18AD198E82C1
:10379C008F8312343C1207488A0C8B0DEE2406F5ED
:1037AC000EE43FF50FEA450D7003023874E508246A
:1037BC0002F50AE43509F50B8A828B83A3A3A3E0F7
:1037CC00A2E5502885188285198312343C12089E74
:1037DC008A108B11EA45116020791212343285104F
:1037EC0082851183121805E9F50C707F850E828590
:1037FC000F83E0600979528011750C0E806D85087D
:10380C0082850983A3A3A3A3E0F9E4F508F509785D
:10381C0008121A1A8E828F83A3A3E0F50878081277
:10382C001A1A8E828F83A3A3A3121A318E828F83CE
:10383C001243D01234361208B074061217ADE9F5E3
:10384C000C7011850E82850F83E0702D12343612A8
:10385C00049080257416650C7011750C0074181288
:10386C0017E312389EE48010750C01124566851220
:10387C0082851383E8F0A3E9F0850E82850F83E03F
:10388C00600479008002A90C74021217AD7F0E023D
:10389C0018D91238A222E0F8A3E0F58388822274AA
:1038AC00EC12180774F71217978A0A8B0B8C108D71
:1038BC0011EA2405FEE4350BFF750C00AC18AD19AC
:1038CC008E828F8312343C1207488A088B09EA4592
:1038DC00097003023A6AE50A2402F50A5002050B44
:1038EC008A828B83A3A3A3E0A2E5502F851882853F
:1038FC00198312343C12089E8A0C8B0DEA450D601C
:10390C004F7912AC08AD09123436850C82850D83C3
:10391C00121805E9F50C6003023A6D850A82850BD5
:10392C0083E0F508A3E0F509AA08FB120892EA4B1C
:10393C0070197AFF7BFF120892EA4B7003023A600F
:10394C008A828B83E508F0A3E509F07508008008EE
:10395C00750C0E023A6D05089002EFE0F8E508C30D
:10396C00984003023A6085080E750F007403780EB8
:10397C001217848A828B83A3A3E0250EF8A3E0356B
:10398C000F123E3470D08E828F83123A8812307EA2
:10399C008E828F83A3A3123A8812307CEE2404F516
:1039AC0008E43FF509850882F583E088828983A3C2
:1039BC00A3A3A3F0A3E4F0EE2405F50EE43FF50F6A
:1039CC00850E82F583123A88A3A3A3A312307C75CB
:1039DC0012077513007812121A1AEEFCEFFD74041C
:1039EC001217F512128874021217ADE4F512781240
:1039FC00121A1A850882850983E0FC7D007917125A
:103A0C00343612081A74021217AD74071217E31227
:103A1C00307E74071217E3E0FA4B603D850882850F
:103A2C000983123A7F121A1A850E82850F8312436C
:103A3C00D012128874021217AD74021217FD1234D0
:103A4C0036120496E9602674071217E312343C12FE
:103A5C0013128019750C098008750C118003750CF4
:103A6C0001124566851082851183123A93A90C7454
:103A7C00098028E0F508750900780822123440887E
:103A8C0082898322123A99E8F0A3E9F022E0F8A3A4
:103A9C00E0F9850E82850F832274041217AD7F0C1A
:103AAC000218D974EC121807123BA3751000EE24FF
:103ABC0002F50CE43FF50D850C82F58312343C12B3
:103ACC0008928A088B09EA45097003023B87850A2C
:103ADC0082850B83E064016003023B7CAC08AD097A
:103AEC00AA0AAB0B120886E9606E850882850983E9
:103AFC00122E09EE2406F50AE43FF50B8E828F8315
:103B0C00A3A3121A318E828F83A3A3A3A3121A31FB
:103B1C00850A82850B83121A3179188E828F831253
:103B2C003BB512343C1208B074061217ADE9F874A8
:103B3C001668700B850A82850B83E4F0A38014E869
:103B4C0060128E828F8312343C850E82850F83EA3D
:103B5C00F0A3EBF088108018780E121A1AAC08AD8E
:103B6C0009EEFAEFFB12088C74021217ADE9F5108E
:103B7C00AA08AB09120898E510700E850C82850D09
:103B8C008312343C12049C80097416651070037502
:103B9C001000A910023AAAEAFEEBFF8C0E8D0FEE74
:103BAC002405F50AE43FF50B2212465F850C82854D
:103BBC000D832274EA1218077508007509007E003F
:103BCC007F00750A00EC2402F510E43DF5118035F8
:103BDC00EC65087003ED65096003023C748882890A
:103BEC0083A3A3E06A7003A3E06B707C8882898353
:103BFC00A3A3A3A312456AEE28FEEF39FFEA28FA25
:103C0C00EB39FB050A123D44503A850A0C750D0040
:103C1C007403780C121784851082851183123D373A
:103C2C00123E34601FE508450970A58C088D098883
:103C3C00828983122E0788828983A3A3E02EFAA39C
:103C4C00E03F80BEE50AC394025003023D32750882
:103C5C0000750900EE4F6010EEFAEFFB12130C8AA0
:103C6C000E8B0FEA450F70057900023D34750B0081
:103C7C00023D07850B0C750D007403780C1217842C
:103C8C00851082851183E0250CF50CA3E0350DF52C
:103C9C000DE50C2406F514E4350DF515851482F5A7
:103CAC0083123E396042E50C2404F512E4350DF51F
:103CBC0013851282F583121A31E50E2508FAE50FE9
:103CCC003509FB12128874021217AD851282851306
:103CDC0083E02508F508A3E03509F50985148285EC
:103CEC00158312343C121312E50B600D7C087D0019
:103CFC007900AA0CAB0D1212A0050BE50BC3950AAB
:103D0C005003023C7F85108285118312456A88829C
:103D1C008983A3A3A3A3A3A3E50EF0A3E50F122904
:103D2C009AEEF0A3EFF07901023899123D3B22E0B4
:103D3C00250CF8A3E0350D229002EFE0F8E50AC35C
:103D4C00982274F01218078A0E8B0F8C0A8D0B7543
:103D5C000D00750C0080507916EE2406F508E43F32
:103D6C00F5098E828F83A3A3121A318E828F83A3BF
:103D7C00A3A3A3121A31850882850983121A3185EF
:103D8C000E82850F83A3A312343C1208B074061262
:103D9C0017ADE9F50D7416650D706C8508828509F3
:103DAC0083E4F0A3F0050C9002EFE0F8E50CC39867
:103DBC005066AA0C8A0875090074037808121784D7
:103DCC00850A82850B83A3A3123E83E8FEE9FF8E4E
:103DDC00828F83123E396040EA2401F508E43400F6
:103DEC00F5099002EFE065087002E509601488821D
:103DFC008983A3A3A3A3A3A3A3A312346B6003027D
:103E0C003D637918023D65E9609B1245667410129A
:103E1C0017E3123E2B123A93A90D7F080218D9E032
:103E2C00FAA3E0F5838A8222F98882898312465F9D
:103E3C00EC4D2274F61218077C0080010C90034C98
:103E4C00E0F8ECC398501E8C0875090074027808D1
:103E5C00121784123E78E06A7003A3E06B70DDE801
:103E6C00FAE9FB80047A007B00023F1B9002ED1202
:103E7C003E838882898322E02508F8A3E03509F97E
:103E8C002274F21218078A088B09750A0080278E93
:103E9C00828F83A3A3A3A312299160031213127C14
:103EAC00087D007900EEFAEFFB1212A08E828F8350
:103EBC00E4F0A3F0050A123D445027850A0C750D59
:103ECC00007403780C121784850882850983A3A3D8
:103EDC00E0250CFEA3E0350DFF8E828F8312346B30
:103EEC0070AD85088285098374FFF0A3F0024653F8
:103EFC0074F61218071208448A828B83E582458374
:103F0C0070067A007B008007A3A3A3A312343C7F26
:103F1C00020218D974F412180789088C828D83E078
:103F2C006402703C124509FEA3E0F9EEF8740268D5
:103F3C0070037429697029750A02750B00780A12CE
:103F4C001A1A74101217E3121A3174101217E312A2
:103F5C001A31A90812119874061217ADE9F98002EA
:103F6C0079010229CE74E812180774FB121797E92D
:103F7C00851882851983F08A168B17ECFEEDFF7578
:103F8C0010008E828F83A3A3A3E0A2E4502D741D96
:103F9C001217E312343C12089E8A828B83E5824509
:103FAC008370030243A8790AEEFCEFFDAA16AB1747
:103FBC00121805E9F51060030243AB741F1217E3E6
:103FCC00E0F508A3E0F50974211217E3E0F50AA364
:103FDC00E0F50B74231217E3E0F50EA3E0F50F8E5A
:103FEC00828F83E064026003024349A312456A8511
:103FFC000882850983A3858212858313EE2406F536
:10400C000CE43FF50D888289831243E8F514E439FA
:10401C00F5157814121AA40100002801284B40074A
:10402C00000228104103287E4000293F4201296AE2
:10403C004202290B4203293F420429E3424943E54A
:10404C000E450F6003024344850C82850D83124597
:10405C006AE8FAE9FB8A828B83E0850A82850B8306
:10406C001243F3121A1A8A828B83A3E0FCA3E00298
:10407C0042CDE50E450F6003024344850A82850B51
:10408C00837401F01243DD850882850983F07C007E
:10409C007D008E828F83A3A3A3A3E02401FAA3E067
:1040AC003400FB120748EA4B60408A828B83E02481
:1040BC0002F8850A82850B83E028F0EA2404F8E4F0
:1040CC003BF988828983E08512828513831244012F
:1040DC001243F3121A1A8A828B83A31243D0E50877
:1040EC002403FAE43509FB0242D2850A82850B834C
:1040FC00E02404F07C047D007900AA12AB131212A8
:10410C00A00243ABE50E450F60030243441243DDAE
:10411C00FEA3E0FF850A82850B837404F0EE85080C
:10412C0082850983F0EF851282851383F074031264
:10413C0017FDEEFAEFFB1207488A0C8B0DEA450DC2
:10414C0070030241EE8A828B83A3A3122E077401A3
:10415C001217ED880E890F780E121A1A74051217A1
:10416C00E3121A317CFF7DFF12074E74041217AD57
:10417C008B0FEA450F7033850C82850D831243D467
:10418C00121A1A850C82850D83A3121A317C027DBA
:10419C00007AD67B8112053E74041217ADE9700AC1
:1041AC0074011217E374FFF0A3F08E828F83E06426
:1041BC00027039750C02750D00780C121A1A8E8269
:1041CC008F83A31243D0E5082404FAE43509FB12CB
:1041DC00128874021217AD850A82850B83E02402C3
:1041EC00800974011217E3EEF0A3EFF074011217BB
:1041FC00E31243C274011217E31243B902433EE5C2
:10420C000E450F6003024344850C82850D831246D4
:10421C0058AA16AB1712119E850A82850B8374025D
:10422C00F0850882850983EAF0851282851383EB79
:10423C00024341E50E450F60030243441243DDF88F
:10424C00A3E0F9850A82850B837402F0E885088265
:10425C00850983F0E9851282851383024341850C1D
:10426C0082850D8312343C121282EAFAF8C3950E41
:10427C00E4950F405CE8650E450F70047A008021D0
:10428C00851882851983E0FCE50E2CFCE4350FFDC6
:10429C00C3EC98ED94005003E08005E50ECAC39A78
:1042AC00FAEA850A82850B83F08A0A750B00780A74
:1042BC00121A1A850C82850D83E0250EFCA3E035BD
:1042CC000FFDAA08AB0912128874021217AD024333
:1042DC00AB7510070243ABE50E450F705B850C8286
:1042EC00850D8312456A850A82850B837407F088D5
:1042FC008289831243BA1243B2E0851282851383FA
:10430C00F0E82402FAE439FB8A828B831243C28AD6
:10431C00828B831243B9A3A31229991243C7F0E8E5
:10432C002405F8500109888289831243C7A31244DB
:10433C0001A3A3A3A3F0806775100B8062741D12F8
:10434C0017E312343C1208448A828B83E58245833E
:10435C00604A12456A880C890DE8450D603E74254B
:10436C001217E3E0F5107810121A1E780E121A1AB2
:10437C00780A121A1A7808121A1A74071217E3E03C
:10438C00F9EEFCEFFDAA16AB17850C82850D831296
:10439C00180574071217ADE9F510800375100EA9F6
:1043AC001074050236FFF088828983A322A3E0856E
:1043BC00088285098322124408F022124408A3A320
:1043CC00229002F312465F22E0F50E750F00780E74
:1043DC0022850C82850D831238A2E022E0FAA3E03C
:1043EC00F8E4C8F9EA2822F08A828B83E0F50A7592
:1043FC000B00780A221243B212440822E08508828C
:10440C00850983A3A32274EE12180774FE12179762
:10441C008A088B09ECFEEDFF890AAC18AD19EEFA8F
:10442C00EFFB1207488A0C8B0DEA450D7003024412
:10443C00FA85188285198312343C1208448A828BBF
:10444C0083E582458370030244F5A3A312456A8871
:10445C000E890FE8450F70030244F574141217E32C
:10446C00E0F510A3E0F511E50AF50B780B121A1E16
:10447C0074191217E3121A317810121A1A741B12CB
:10448C0017E3E0F9AC0CAD0DAA08AB09850E8285DB
:10449C000F8312180574051217ADE9F50B705274E1
:1044AC00FE650A604C850C82850D83E064027041C8
:1044BC00124509FAA3E0F9EAF8740268700374294A
:1044CC0069702E8510828511831243E8F50CE4394E
:1044DC00F50D780C121A1AEEFCEFFDAA08AB0912B6
:1044EC0008C874021217AD8008750B0E8003750B8B
:1044FC0001A90B74021217AD7F0A0218D9A3124539
:10450C006E88828983E02274F612180774FE1217E3
:10451C0097740C1217E312456AE885188285198383
:10452C00F074011217E3E9F0E4F508F509780812C4
:10453C001A1A7508027808121A1A74041217ED88E0
:10454C000889097808121A1A79FE1208B074061232
:10455C0017AD74021217AD023F1B8E828F8312456A
:10456C006E22E0F8A3E0F92274F7121807EAFEEBCA
:10457C00FF890890030A1243D012119EEA5402607C
:10458C000BA908EEFAEFFB12073C800279017F01C0
:10459C000218D974F212180774FE121797EAFEEB80
:1045AC00FF890A7401650A60147402650A600302CB
:1045BC00464E7901120AD2E9600302464EEEFAEF3A
:1045CC00FB120892EA4B6003120898A818A91988E4
:1045DC000889097808121A1A7508027509007808F2
:1045EC00121A1A7508F67509817808121A1A7CFFC6
:1045FC007DFF7A017B0012074274061217AD8038DA
:10460C00850882850983A3A3A3A3A3A3124658EE0E
:10461C00FAEFFB121186E4F50CF50D780C121A1A50
:10462C0074021217E3121A317CFF7DFFAA08AB0942
:10463C0012074E74041217AD8A088B09E508450958
:10464C0070BE74021217AD7F060218D91238A2126E
:10465C00465F22E0FCA3E0FD2274F41218078A08DE
:10466C008B09ECFEEDFF901975E0F4604B7A097B39
:10467C00001212ACEA4B60408A828B8374B1F0A3B7
:10468C00E41246C7F08A828B83A3A3E508F0A3E566
:10469C00091246C7A3EEF0A3EFF0740C1217E31245
:1046AC00456A8A828B83A3A3A3A3A3A3A3123A93E1
:1046BC00901975E0F91212B80229CEF08A828B8318
:1046CC00A3A3A3A32274EC12180774DA1217978908
:1046DC000D8A128B138C0A8D0B743A1217E3E0F5CA
:1046EC000C908138AC18AD1974061216AAAC18AD22
:1046FC0019AA12AB13A90D1210BAE9FEEEC3940A53
:10470C004003024845EEF91210F0E9FF901A61E0FF
:10471C0064027004740180027400F5087808121A9F
:10472C001EAD0CEFFCEEF9AA0AAB0B12116E740164
:10473C001217AD7C147D00790074121217F5121249
:10474C00A08A0E8B0F850E08850F0974121217FDA7
:10475C007A1075F006EEA42424F91213D2E9703CF9
:10476C007C1079FF74121217F5121300E9702D7476
:10477C00221217E3AC82AD837A0475F006EEA42402
:10478C0025F91213D2E9F50874121217FDEFA2E005
:10479C00E433F9AA0AAB0B1205E0E9F87406121718
:1047AC00FD7A0C74702EF91213D2E970797406121A
:1047BC0017F51210E4750E00E50EC394045067A8AB
:1047CC000E7900E875F003A4C8AAF075F000A42ACD
:1047DC00FA75F003E9A42AF974061217E3E58228A6
:1047EC00F508E58339F509850882850983E0F8A386
:1047FC00E0F9E849602C850882850983A3A3E0F5DC
:10480C00107511007810121A1A850882850983E038
:10481C00FCA3E0FDAA0AAB0B1208B674021217AD8A
:10482C00E9F8050E8092EFA2E1500E90072FE0F907
:10483C00AA0AAB0B1208BCE9F87404650C700F9053
:10484C001A61E064027007AA0AAB0B12115C7900C2
:10485C0074261217AD7F0C0218D974F7121807EAD8
:10486C00FEEBFF1206D6E970679007D8E064017082
:10487C001B121120E9F5089007D87400F07C0A7D12
:10488C000079007AD97B071212A08039750800E5EF
:10489C0008C3940A502FA808790074D928F582749B
:1048AC000739F583E064017018A908121126E9FA9A
:1048BC00A808790074D928F582740739F583740037
:1048CC00F0050880CA79501213D8E9F50812110EB8
:1048DC007F010218D974F2121807890BEAFEEBFF5C
:1048EC008C088D09750A0AE50B600C1460091460BC
:1048FC0044146064024986EEFAEFFB121102E9F5EA
:10490C000AE50AC3940A5072E5084509606C750CF7
:10491C0006750D00780C121A1AEEFCEFFDAA08AB06
:10492C000912128874021217AD8A0C8B0D850C8239
:10493C00850D838045EEFAEFFB1210FCE9F50AE5D4
:10494C000AC3940A5034E5084509602EAA08AB093D
:10495C00A90A1210F6E98022EEFAEFFB121108E90F
:10496C00F50AE50AC3940A5011E5084509600BAA3B
:10497C0008AB09A90A1210F6E9F8A90A7F06021871
:10498C00D974F21218078A0C8B0DE9FF7E1574FF8F
:10499C00650C700474FF650D702A750800E508C37A
:1049AC00940A5014EFFC7A027B00A9081210D2E989
:1049BC0060027E00050880E5EF60627A4A7B111286
:1049CC000AF68059AA0CAB0D120AC68A0A8B0B8503
:1049DC000A08850B09E508450960407C007D00E567
:1049EC00082405FAE43509FB850882850983A3A30D
:1049FC00A3A3E0F91210BAE9F50AE50AC3940A5028
:104A0C000EEFFC7A027B00A90A1210D2E97E00EFAD
:104A1C00600BAA08AB0912114A80027E14EEF97FD2
:104A2C00060218D974EE1218078A0E8B0F8C0A8D99
:104A3C000B74121217E3E0F50CA3E0F50D750815D5
:104A4C0074FF650E700474FF650F701E7E00EEC35C
:104A5C00940A5061AC0CAD0DAA0AAB0BEEF9121016
:104A6C00D8E960037508000E80E4AA0EAB0F120A99
:104A7C00C68A108B11AE10AF11EE4F60357C007DE5
:104A8C0000EE2405FAE43FFB8E828F83A3A3A3A33D
:104A9C00E0F91210BAE9F509E509C3940A5016AC0D
:104AAC000CAD0DAA0AAB0BA9091210D8E9750800B8
:104ABC008003750814A9087F0A0218D974F012181B
:104ACC000774EC1217978A0C8B0D850C82850D835D
:104ADC00A3A3E024FA7003024F4124FD7003024D9E
:104AEC00B6147003024BB814601024FD7003024D11
:104AFC005E147003024DF5024F54AE0CAF0D9007CF
:104B0C0049E0F8A3E0F9E8496066900749E0F8A3AA
:104B1C00E0F5838882E0F8A3E0F9E8496052EE24DE
:104B2C000CF582E43FF583E0F5087808121A1EEEC6
:104B3C00240BF582E43FF583E0F98E828F83A3A3E7
:104B4C00A3A3A3A3A3A3A3E0FCA3E0FDEE2403FA79
:104B5C00E43FFB900749E0F8A3E0F5838882E0F896
:104B6C00A3E0F583888212180574011217AD803901
:104B7C008E828F83A3A3A3A3A3A3A3A3A3121A31EF
:104B8C009007451216791205F274021217ADE960FE
:104B9C001879018E828F83A3A3A3A3A3A3A3A3A39A
:104BAC00E0FAA3E0FB1205ECE9024F54AE0CAF0D9A
:104BBC007508008E828F83A3E06003024CE08E8226
:104BCC008F83A3A3A3A3A3E0A2E04003024CE09035
:104BDC0007E3E0F8A3E0F9E8496003024CE07C0E3F
:104BEC007D007900AA18AB191212A08A0A8B0BAAA5
:104BFC000AAB0BEE240CF582E43FF583E0F8A3E05E
:104C0C00F9E8496036750A06750B00780A121A1A0B
:104C1C00EE240CF582E43FF583E02410FCA3E03491
:104C2C0000FD74021217F512128874021217AD8A65
:104C3C000A8B0B850A82850B83804F8E828F83A310
:104C4C00A3A3E0FAA3E0FB120AC68A0E8B0F850E13
:104C5C000A850F0BE50A450B602D750E06750F00C6
:104C6C00780E121A1AE50A2405FCE4350BFD7402C1
:104C7C001217F512128874021217AD8A0E8B0F855B
:104C8C000E82850F838003024F548E828F83A3A3E1
:104C9C00A3A3A3E0A2E25004D2F08002C2F0A2F0DF
:104CAC00E433F87900740C1217E3E048F0A3E04900
:104CBC00F0EEFCEFFDAA18AB191210EAE970127AAB
:104CCC00027B0090072FE0F91212DCE97900024F09
:104CDC0056750815900749E0F8A3E0F9E849606FAC
:104CEC00900749E0F8A3E0F5838882A3A3E0F8A33A
:104CFC00E0F9E84960598E828F83A3E0FC79018E3C
:104D0C00828F83A3A3A3E0FAA3E0FB900749E0F80A
:104D1C00A3E0F5838882A3A3E0F8A3E0F58388825F
:104D2C00121805E5086028AC0879038E828F83A3DE
:104D3C00A3A3E0FAA3E0FB900749E0F8A3E0F58316
:104D4C008882A3A3E0F8A3E0F583888212180502F9
:104D5C004F54AE0CAF0D900749E0F8A3E0F9E849C9
:104D6C006045900749E0F8A3E0F5838882A3A3E0AF
:104D7C00F8A3E0F9E849602F850C82850D83A3E048
:104D8C00FC79028E828F83A3A3A3E0FAA3E0FB90AD
:104D9C000749E0F8A3E0F5838882A3A3E0F8A3E039
:104DAC00F5838882121805024F54AE0CAF0D7C00AF
:104DBC007D00EE2404FAE43FFB8E828F83A3A3A331
:104DCC00E0F91210BAE9F508E508C3940A5017EE99
:104DDC00240AFCE43FFD7A0475F006E508A42425BA
:104DEC00F91213CCE9F8024F54AE0CAF0D900744F6
:104DFC00E06019901A62E0F98E828F83A3A3A3E07E
:104E0C00FAA3E0FB1205ECE9F8024F54901A61E0AA
:104E1C00701679058E828F83A3A3A3E0FAA3E0FB1F
:104E2C001205ECE9F8024F548E828F83A3A3A3E002
:104E3C00FAA3E0FB120AC68A0A8B0B850A08850BBB
:104E4C0009E50845097003024F548E828F83A3A392
:104E5C00A3A3A3A3A3E0A2E0506D850882850983D8
:104E6C00A3A3A3A3E060608E828F83A3A3A3A3A3B9
:104E7C00A3A3A3A3E0F50AA3E0F50B7409780A1227
:104E8C001775E50A5401F8E50B5400F9E8A2E04067
:104E9C0036740E1217FDE5082405FAE43509FB8576
:104EAC000882850983A3A3A3A3E0F91210BAE970C1
:104EBC001679038E828F83A3A3A3E0FAA3E0FB12DF
:104ECC0005ECE9F8024F54EE2405FCE43FFD85089F
:104EDC0082850983A3A3A3A3E0F98E828F83A3A366
:104EEC00A3E0FAA3E0FB121156900749E0F8A3E007
:104EFC00F9E8496053900749E0F8A3E0F58388820C
:104F0C00A3A3E0F8A3E0F9E849603D7C0079008EAA
:104F1C00828F83A3A3A3E0FAA3E0FB900749E0F8F8
:104F2C00A3E0F5838882A3A3E0F8A3E0F58388824D
:104F3C001218058013AE0CAF0D8E828F83A3A3A322
:104F4C00E0FAA3E0FB1210B4790174141217AD7FD0
:104F5C00080218D974F512180774F21217978909F8
:104F6C00EAFEEBFF8C0AAC18AD197A0E75F006E56B
:104F7C0009A42420F91213D2E9705F7C0679FFAAE8
:104F8C0018AB19121300E97051740C1217E3E0F806
:104F9C00A3E0F9E8F508E50A6005EE42088004EEA6
:104FAC00F45208A8087900740C1217E3E068700337
:104FBC00A3E0696021A8087900740C1217E3E8F0EB
:104FCC00A3E9F0AC18AD197A0E75F006E509A42426
:104FDC0020F91213CCE9790180027900740E1217B2
:104FEC00AD7F030218D974F012180774E6121797E4
:104FFC00890B8A0C8B0DECFEEDFF740C1217FD7AED
:10500C000E75F006E50BA42420F91213D2E9600307
:10501C000251227C0679FF740C1217F5121300E969
:10502C006003025122AC18AD197A0C7470250BF97F
:10503C001213D2E9600302511E750A00AA18AB19AB
:10504C001210E4E50C450D702E7C0C7900AA18ABFF
:10505C0019121300E960030251047C0C7D007900E5
:10506C00AA18AB191212A08A088B09850882850927
:10507C0083750A01025104AC18AD19AA0CAB0D12C0
:10508C0010DE8A0E8B0F850E08850F09E508450981
:10509C007030EE4F601BAC18AD197A007B0012100B
:1050AC00DE8A0E8B0FA80EA90F88088909E84970B3
:1050BC000479008063850882850983E50CF0A3E5FB
:1050CC000DF0850882850983A3A3E0F87900EE68CA
:1050DC007002EF696022EEC0E0850882850983A327
:1050EC00A3D0E0F0EE4F700D850882850983740023
:1050FC00F0A37400F0750A01E50A6016AA18AB1942
:10510C001210E4AC18AD197A0C7470250BF912134B
:10511C00CCE9790180027900741A1217AD7F08026C
:10512C0018D974F61218078A088B097E00EEC394FE
:10513C00045050EEF87900E875F003A4C8AAF07595
:10514C00F000A42AFA75F003E9A42AF9EC28F582F8
:10515C00ED39F583E065087004A3E065097021EE74
:10516C00F87900E875F003A4C8AAF075F000A42A39
:10517C00FA75F003E9A42AF9EC28FAED39FB80075B
:10518C000E80AA7A007B007F020218D974F71218DD
:10519C00077C00ECC394044003025247ECF87900FE
:1051AC00E875F003A4C8ADF075F000A42DFD75F002
:1051BC0003E9A42DF9EA28F582EB39F583E0F4FE36
:1051CC00A3E0F4FFECF87900E875F003A4C8ADF0A7
:1051DC0075F000A42DFD75F003E9A42DF9EA28F56E
:1051EC0082EB39F583EEF0A3EFF0ECF87900E8757B
:1051FC00F003A4C8ADF075F000A42DFD75F003E923
:10520C00A42DF9EA28F582EB39F583A3A3E0F4C0C9
:10521C00E0ECF87900E875F003A4C8ADF075F00087
:10522C00A42DFD75F003E9A42DF9EA28F582EB39DC
:10523C00F583A3A3D0E0F00C02519F7F010218D993
:10524C0074F012180774F4121797EAFEEBFF8C082F
:10525C008D099007E3E0F8A3E0F9E849702CEE4FD4
:10526C006006E5084509700579010254F8EEFAEF7D
:10527C00FB121102E9901A65F0901A65E0C3940ACA
:10528C004008121114E9901A65F0901A65E0C39465
:10529C000A40030254F69007E3E0F8A3E0F9E8496A
:1052AC006003025342EEFCEFFD7A0E75F006901A85
:1052BC0065E0A42420F91213CCE9F50C7C0C7D00DC
:1052CC0079FFAA18AB191212A08A0E8B0F850E0A41
:1052DC00850F0BAC18AD197A0C901A65E02470F997
:1052EC001213CCE9F50D750E0E750F00780E121A0F
:1052FC001AEEFCEFFD901A65E0F87900E875F00EF7
:10530C00A4C8AAF075F000A42AFA75F00EE9A42A34
:10531C00F9744B28FA740739FB12128874021217AD
:10532C00AD8A0E8B0FA80EA90F9007E3E508F0A32A
:10533C00E509F00254F29007E3E0F8A3E0C8240674
:10534C00F582C83400F583E0F8A3E0F9E84960433E
:10535C009007E3E0F8A3E0C82406F582C83400F512
:10536C0083E0FCA3E0FD7A1B75F006901A65E0A4BF
:10537C002421F91213CCE9F89007E3E0F9A3E0C972
:10538C002406F582C93400F5837400F0A37400F090
:10539C000254F29007E3E0F8A3E0C8240AF582C8AF
:1053AC003400F583E0F8A3E0F9E84960439007E3A3
:1053BC00E0F8A3E0C8240AF582C83400F583E0FCC9
:1053CC00A3E0FD7A1B75F006901A65E0A42422F97F
:1053DC001213CCE9F89007E3E0F9A3E0C9240AF52D
:1053EC0082C93400F5837400F0A37400F00254F207
:1053FC009007E3E0F8A3E0C8240CF582C83400F56C
:10540C0083E0F8A3E0F9E84960439007E3E0F8A3F0
:10541C00E0C8240CF582C83400F583E0FCA3E0FD61
:10542C007A1075F006901A65E0A42423F91213CCB7
:10543C00E9F89007E3E0F9A3E0C9240CF582C9343C
:10544C0000F5837400F0A37400F00254F29007E3AB
:10545C00E0F8A3E0C82408F582C83400F583E0F82E
:10546C00A3E0F9E849606F9007E3E0F8A3E0C824F3
:10547C0008F582C83400F583E0FCA3E0FD7A1075D2
:10548C00F006901A65E0A42424F91213CCE9F50A6D
:10549C009007E3E0F8A3E0C82408F582C83400F5CF
:1054AC0083E02410FCA3E03400FD7A0475F0069030
:1054BC001A65E0A42425F91213CCE9F89007E3E06F
:1054CC00F9A3E0C92408F582C93400F5837400F00F
:1054DC00A37400F080109007D7E0600312117412CF
:1054EC00115079018006790080027901740C121731
:1054FC00AD7F080218D974F712180774F2121797B7
:10550C00E9FEAC18AD197A0E75F006EEA42420F95C
:10551C001213D2E9700E740C1217E3E0F8A3E0F941
:10552C00E8F980027900740E1217AD7F010218D9C8
:10553C0074F412180774F21217978909EAFEEBFF3C
:10554C00E509C3940A5004EE4F700479028041AC13
:10555C0018AD197A0E75F006E509A42420F912137A
:10556C00D2E9F508E5087026750A06750B00780A6D
:10557C00121A1A74021217FDEEFAEFFB121288744B
:10558C00021217AD8A0A8B0B850A82850B83A90838
:10559C00740E1217AD7F040218D974F4121807EAAE
:1055AC00FEEBFF750800E508C3940A5043750A0624
:1055BC00750B00780A121A1AEEFCEFFDA808790098
:1055CC00E875F00EA4C8AAF075F000A42AFA75F0DC
:1055DC000EE9A42AF9745128FA740739FB12129AAD
:1055EC0074021217ADE96004A9088006050880B69C
:1055FC00790A7F040218D974F4121807EAFEEBFF3B
:10560C00750800E508C3940A5043750A06750B002B
:10561C00780A121A1AEEFCEFFDA8087900E875F06A
:10562C000EA4C8AAF075F000A42AFA75F00EE9A42D
:10563C002AF9744B28FA740739FB12129A74021265
:10564C0017ADE96004A9088006050880B6790A7FC1
:10565C00040218D974F712180774F0121797EAFE9F
:10566C00EBFF750800E508C3940A5039AC18AD1966
:10567C007A1075F006E508A42423F91213D2E97008
:10568C00207C1079FFAA18AB19121300E97012EEE6
:10569C00FCEFFDAA18AB191205BCE97004A908802F
:1056AC0006050880C0790A74101217AD7F01021824
:1056BC00D974F4121807750800E508C3940A40035E
:1056CC00025797A8087900E875F00EA4C8AAF075DF
:1056DC00F000A42AFA75F00EE9A42AF9744B28FC00
:1056EC00740739FD7A0E75F006E508A42420F9122A
:1056FC0013D2E970030257927C067D0079FFAA0849
:10570C007B00EA75F00EA4CAA8F075F000A428F886
:10571C0075F00EEBA428FB744B2AFA74073BFB12B2
:10572C0012A08A0A8B0BAE0AAF0B7C067D0079FFA8
:10573C00AA087B00EA75F00EA4CAA8F075F000A4C4
:10574C0028F875F00EEBA428FB74512AFA74073B69
:10575C00FB1212A08A0A8B0BAC0AAD0BA8087900BD
:10576C00E875F00EA4C8AAF075F000A42AFA75F03A
:10577C000EE9A42AF9745728F582740739F5837455
:10578C0000F0A37400F005080256C59007D7E0603E
:10579C00031211741211507F040218D974F71218E5
:1057AC00077E00EEC3940A50327C0679FFEEFA7B3A
:1057BC0000EA75F00EA4CAA8F075F000A428F875DC
:1057CC00F00EEBA428FB744B2AFA74073BFB121364
:1057DC0000E96004EEF980050E80C8790A7F0102A9
:1057EC0018D974F71218077E007F00EFC3940A5083
:1057FC00357C0679FFC9FDC9EFF87900E875F00E24
:10580C00A4C8AAF075F000A42AFA75F00EE9A42A2F
:10581C00F9744B28FA740739FBCDF9CD121300E952
:10582C0070010E0F80C5EEF97F010218D974F712C2
:10583C0018077E007F00EFC3940A500DEE700AEF3C
:10584C00F9121126E9FE0F80EDEEF97F010218D94D
:10585C0074F012180774CB1217978909901A65E027
:10586C006509701D7A017B0090072FE0F91212E296
:10587C00E97A027B0090072FE0F91212E2E912118B
:10588C0080901A66E0650970137A047B0090072FEC
:10589C00E0F91212E2E9901A66740AF074271217F2
:1058AC00FD7A0E75F006E509A42420F91213D2E94D
:1058BC0060030259AF7C0679FF74271217F5121397
:1058CC0000E960030259AF7C0E7D0079FF7427124A
:1058DC0017F51212A08A0A8B0B850A0C850B0D7C0E
:1058EC001B7D0079FF740C1217F51212A08A0E8B17
:1058FC000F850E0A850F0B7C0C7D0079FFAA18AB67
:10590C00191212A08A0E8B0FAE0EAF0F742712173E
:10591C00FD7A0E75F006E509A42420F91213CCE9E2
:10592C00F508740C1217FD7A1B75F006E509A42412
:10593C0021F91213CCE94208740C1217FD7A1B756D
:10594C00F006E509A42422F91213CCE94208740CE0
:10595C001217FD7A1075F006E509A42423F9121329
:10596C00CCE94208740C1217FD7A1075F006E509A3
:10597C00A42424F91213CCE94208740C1217FD7AF2
:10598C000475F006E509A42425F91213CCE94208A4
:10599C00AC18AD197A0C74702509F91213CCE942C4
:1059AC00088003750800A90874351217AD7F08022A
:1059BC0018D974F7121807E9FEEE90072FF01211A0
:1059CC000E7A677B1A1207067F010218D974F2123D
:1059DC001807890AEAFEEBFFEE5400F8EF5480F941
:1059EC00E849603590072FE0F91212C48A0C8B0D30
:1059FC00A80CA90D88088909E8496012AA08AB0906
:105A0C00121138E96008AA08AB091212B2E9EE6467
:105A1C0000FAEF6480FB025B5CEE5402603E7C009B
:105A2C007D007A007B001210EAE960187A017B0095
:105A3C0090072FE0F91212DCE9EE6402FAEF640031
:105A4C00FB025B5C7A027B0090072FE0F91212DC00
:105A5C00E9EE6402FAEF6400FB025B5CEEA2E0404C
:105A6C0003025B309007E3E0F8A3E0F5838882A3A0
:105A7C00A3A3E0FAA3E0FB12117AE97003025B190D
:105A8C00900749E0F8A3E0F9E8496074900749E011
:105A9C00F8A3E0F5838882A3A3E0F8A3E0F9E84932
:105AAC00605E7C0079019007E3E0F8A3E0F5838861
:105ABC0082A3A3A3E0FAA3E0FB900749E0F8A3E0DC
:105ACC00F5838882A3A3E0F8A3E0F58388821218FB
:105ADC00057C0079039007E3E0F8A3E0F583888266
:105AEC00A3A3A3E0FAA3E0FB900749E0F8A3E0F539
:105AFC00838882A3A3E0F8A3E0F5838882121805BB
:105B0C00121180EE6401FAEF6400FB80437A017B92
:105B1C000090072FE0F91212DCE9EE6401FAEF6451
:105B2C0000FB802CEE54046023901A66E0C3940AA8
