:020000040000FA
:0600000002011A0223B107
:03002B00022AE0C6
:030053000224275D
:03006B00022AACBA
:10008300022207E5C754F84401F5C77901220000AD
:100093000080FB120086B90003020104E479217891
:1000A30008B800028004F709D8FCE479297802B87B
:1000B30000028004F709D8FCE490028178D979130F
:1000C3008002F0A3D8FCD9FA781A90014A7A01BACF
:1000D30000028007E493A3F608DAF97A597B1590B6
:1000E300014B788079038015E493A3AD82AE838AB4
:1000F300828B83F0A3AA82AB838D828E83D8E9D9C6
:10010300E77582A67583FF740212012C75829175BF
:100113008300740012012C75D00075813F7518811E
:10012300751902759F00020096C09FF59FE473D076
:100133009F22D083D082C09FE493C0E0740193C018
:10014300E0740293F59F22011209426C6F6F6450B1
:10015300726573737572652053656E736F720512E2
:10016300C8004006020A0002010503021018426C8F
:100173006F6F6450726573737572652053656E7328
:100183006F72000F0F0F0F0F0E780050005A003CD4
:10019300000100040000201002022A810100000C6B
:1001A30082021382010000A715023F82000000B7FC
:1001B30002021582030000B502021382010000A8A7
:1001C30015023D82000000B802021582030000B947
:1001D30002021382010000A915023B82010000BB49
:1001E30002FF0000B4000028002800283075A0009A
:1001F300A000A000A00000080008E001F00010002B
:1002030010001000100010001000500050005000AB
:1002130010001000D0070000000000000F000100D4
:100223000500307507001000010081FF0000000089
:10023300FFFFFF180736071E075A07FF02020208CF
:10024300025000A0000000E803022A81010000061A
:10025300820213820100004D16021782010000FD85
:10026300020213820100004E1602198201000013DC
:10027300030213820100004F16021B8201000015C6
:10028300030213820100005016021D8208000016AB
:100293000302138201000051160239820100005249
:1002A30016FFFF0100FF20022A81010000098202DC
:1002B3001382010000B71602218200000000000231
:1002C300158203000046031700620E620E620E627F
:1002D3000E620E620E620E620E620E620E620E629B
:1002E3000E620E1A112C11141102020202020202F2
:1002F3000202010D0000001001022A810100000327
:1003030082021382010000FA16022F8201000063A9
:1003130007021382010000FB16024382010000154D
:1003230081021382010000FC16022D82010000F9F4
:1003330080021382010000FD16022B82010000815E
:1003430080021382010000FE16022982010000B719
:1003530080021382010000FF16022782010000A51C
:10036300800213820100000017022582010000931E
:10037300800213820100000117022382010000079B
:10038300810213820100000217023582010000037B
:100393001701E8030577100AFFFFFF00013075031B
:1003A3000201060000000000000000000000000041
:1003B300000000000000000000000000000000FF3B
:1003C300FF0600800CE8031201350080021201359C
:1003D3000A8202120135728302120135AA830212C4
:1003E30001354384021201356F87021201353988C2
:1003F30002120135BB88021201356C8902120135E4
:10040300DD8902120135D68A02120135F48A0212FD
:1004130001359E8B02120135C78B02120135578EAF
:1004230002120135198F02120135C2D203120135AE
:100433009DD303120135B0D303120135B9D303128F
:1004430001351BD4031201356FD4031201352BD5AB
:1004530003120135DDE703120135F0E7031201351D
:1004630011E8031201357CE803120135BDE80312DC
:100473000135DEE803120135FFE80312013540E9D7
:1004830003120135D8E90312013520EA03120135BD
:100493004BEA0312013597DA03120135AADA031284
:1004A3000135DBDA0312013515DB031201356EDB8F
:1004B30003120135B5DB03120135FDDB03120135F0
:1004C3002CDC031201355BDC0312013592DC0312D1
:1004D3000135D9DC03120135F2DC0312013547DDA6
:1004E3000312013560DD03120135AEDD0312013560
:1004F300E8DD03120135EDB902120135F0BA02123B
:1005030001351DBB021201356EBB0212013591BBD1
:1005130002120135A3BB02120135A6BB021201353B
:10052300E4BB021201351ABC02120135B1BC02123E
:1005330001351DBD02120135E5BD0212013501BEB3
:100543000212013538BE0212013572BE02120135A4
:1005530009BF021201355BBF021201358CBF0212C3
:1005630001358FBF02120135C0BF02120135CDBF65
:1005730002120135E5BF021201354FC002120135E7
:1005830052C0021201355FC00212013562C002126D
:100593000135B9C002120135CAC00212013503C1C7
:1005A3000212013506C1021201353AC102120135A8
:1005B3003DC10212013591C102120135DAC10212A5
:1005C3000135EAC1021201351DC2021201352AC2E8
:1005D300021201352DC20212013595C202120135F4
:1005E30097C3021201353BC402120135A4C402129F
:1005F3000135E2C402120135C9CE03120135F1CE31
:10060300031201351ECF0312013556CF03120135F4
:10061300B4CF0312013500D00312013567D00312A2
:100623000135A7D003120135E4D00312013512D1ED
:1006330003120135BCD103120135C6D103120135B2
:10064300D3D10312013506D20312013512D203129C
:1006530001352AD20312013534D203120135DC806D
:1006630004120135EA8004120135028104120135B6
:1006730019810412013537D101120135E1D101127B
:100683000135F4D20112013570D3011201358ED434
:1006930001120135CAD40112013565D501120135A4
:1006A30049D60112013515D701120135A3D801121C
:1006B300013514D901120135CED901120135C0DA41
:1006C3000112013500DB01120135B4DB01120135E2
:1006D300E6DB01120135DCDD011201351EDE0112FC
:1006E30001353CDE01120135A2DE0112013571DF55
:1006F3000112013535E00112013554E201120135D1
:100703009487031201357E88031201352989031268
:1007130001357A89031201352A8A031201359B8A2E
:1007230003120135808B03120135B48B031201359B
:10073300AD8C03120135EA8C03120135C68D031209
:100743000135058E03120135218E0312013549F659
:1007530003120135CDF603120135F8F60312013504
:1007630012F803120135AFD603120135C5D60312B1
:100773000135E3D603120135F4D703120135FED751
:100783000312013529D90312013520DA0312013589
:100793008DDA0312013548A00312013578A1031243
:1007A3000135AFA103120135F9A103120135BCA331
:1007B30003120135488201120135F9820112013514
:1007C300158301120135D683011201350B84011201
:1007D3000135848401120135B88401120135C384C3
:1007E3000112013599850112013576860112013511
:1007F300D386011201356387011201351A8801126C
:100803000135288B01120135178D01120135C98D70
:1008130001120135928E01120135D7910112013572
:10082300819201120135AA930112013566950112D5
:10083300013506960112013554960112013593963E
:10084300011201356697011201359A97011201359C
:1008530027980112013523AD01120135AFAD011205
:10086300013513AF011201351FAF011201355AAF24
:1008730001120135C9AF01120135D2B001120135A0
:10088300DBB101120135A2B201120135FFB301122E
:1008930001351DB4011201353AB401120135E7B433
:1008A3000112013564B5011201358CB50112013510
:1008B30056B8011201355BB80112013574BA011241
:1008C3000135C2BA0112013532BB0112013570BBC9
:1008D300011201354CBC011201350CBD0112013569
:1008E30058BD011201355BBD011201359FBD0112D7
:1008F3000135E7BD0112013526BE0112013548BE9F
:10090300011201357CBE01120135DFBE0112013532
:100913008BA50312013594A503120135A2A5031279
:100923000135F5A50312013514A60312013559A6A5
:10093300031201359DA70312013538A803120135AF
:100943007CA803120135A6A80312013515A90312C9
:1009530001355BA903120135D2A90312013583AA1C
:1009630003120135182B00120135282B0012013513
:10097300C92B00120135252C00120135E22C00127F
:100983000135FE2D00120135302E001201355F2E88
:10099300001201350C30001201358332001201358B
:1009A300F33400120135E53500120135DE3600124D
:1009B3000135E53800120135D93B00120135083DF8
:1009C300001201350C3F001201351C4000120135A5
:1009D300AB41001201359C4200120135EA4200127C
:1009E30001355943001201357D4300120135CE43D1
:1009F300001201356F4800120135704900120135AC
:100A0300D14900120135FC4900120135C24A0012D6
:100A13000135C3CA03120135CDCA0312013512CB06
:100A23000312013526CB03120135B6CB0312013570
:100A3300EFCB031201352ACC0312013553CC031239
:100A43000135A7CC03120135BCCC03120135DECC32
:100A530003120135F3CC0312013507CD031201351F
:100A63001CCD0312013556CD0312013582CD03127D
:100A7300013509CE031201354CCE0312013576CE72
:100A830003120135A1CE03120135DCFD031201353A
:100A930018D002120135FBD00212013576D10212B1
:100AA3000135B1D10212013502D30212013590D3BF
:100AB3000212013522D602120135D4D602120135B3
:100AC300E0D70212013553D902120135ACD9021213
:100AD300013531C20312013574C203120135F8C264
:100AE30003120135CFC503120135617D00120135B3
:100AF300137E001201350F7F001201354E7F001265
:100B03000135A87F0012013541F803120135A4F81D
:100B13000312013541F90312013576F90312013548
:100B2300A6F903120135E1F90312013501FA0312A3
:100B3300013552B403120135DEB4031201359DB5FC
:100B430003120135B5B603120135CFB803120135CF
:100B5300C3F201120135E8F201120135B5F30112B6
:100B6300013589F401120135F6F40112013536F528
:100B730001120135D2F50112013506F701120135D3
:100B8300E1F70112013540F801120135CCF80112E9
:100B930001353AF901120135C6F9011201350CFA92
:100BA300011201357EFA0112013510FB01120135E4
:100BB300B1FB01120135D1FB0112013519FC011200
:100BC300013562FC011201357EFC01120135A4FCE2
:100BD300011201351EFD011201352CFD01120135F3
:100BE300BBFD0112013524FE0112013506B90312C2
:100BF30001358BB903120135CDB903120135B1BAF1
:100C0300031201351EBB0312013562BB031201350A
:100C1300A6BB03120135D3BB03120135FBBB031281
:100C2300013533BC0312013571BC0312013598BC85
:100C33000312013512BD031201355CBD03120135E8
:100C430061E20112013500E40112013538E60112B7
:100C530001358CE601120135B7E60112013593E740
:100C630001120135C3E701120135F2E70112013523
:100C730005E80112013546E80112013573E8011256
:100C83000135C1E801120135FDE80112013542E9E0
:100C9300011201358FE90112013509EA011201350B
:100CA3004AEC0112013534EE0112013570EE0112E6
:100CB3000135FFEF0112013544F001120135B7F0A0
:100CC300011201350CF10112013570F101120135E8
:100CD3008FF201120135A0F2011201353DE4021237
:100CE3000135B6E40212013570EA021201357BEBDD
:100CF3000212013524ED02120135B2ED0212013563
:100D0300496900120135CA6900120135F7690012F9
:100D13000135406A00120135416B001201359A6BAF
:100D230000120135166D00120135986D0012013560
:100D3300B36D00120135246E00120135E16E00120D
:100D43000135A46F00120135327000120135E970CC
:100D530000120135FC700012013595710012013546
:100D63002C7200120135537200120135BC7200124D
:100D73000135067300120135547300120135FB73FC
:100D830000120135997400120135267500120135E0
:100D9300977500120135DE750012013536760012A3
:100DA30001356876001201352977001201352C7858
:100DB3000012013575780012013592780012013561
:100DC300B17800120135E479001201359B7A0012E3
:100DD3000135C07A00120135D57A00120135457B01
:100DE30000120135867B00120135AA7C0012013501
:100DF3002B7D00120135DCED0212013527EE0212C4
:100E0300013533EE0212013507EF021201351EEFF1
:100E1300021201355BEF021201358CEF021201352C
:100E2300C4EF021201351AF00212013530F002123A
:100E330001356CF0021201357FF002120135A6F084
:100E430002120135DAF00212013500F20212013505
:100E53004AF30212013546F4021201355CF502121F
:100E63000135F17F00120135D99D02120135089E2B
:100E7300021201355AA102120135B1A20212013543
:100E830070A302120135D7A602120135C3A70212BD
:100E9300013515A8021201352FA80212013561A8E8
:100EA300021201356CA80212013575A80212013530
:100EB30027A902120135F7A9021201353EAA02122F
:100EC3000135A4AA0212013516AB02120135B7BFD0
:100ED30001120135F7C201120135FDC201120135BC
:100EE300BCC901120135E1CD0112013550DE0312F7
:100EF3000135E6DE03120135FCDE0312013555DF51
:100F03000312013599DF03120135D3DF03120135D3
:100F13006BE003120135DAE003120135E3E003125B
:100F23000135EFE00312013509E10312013533E125
:100F33000312013548E103120135AAE10312013519
:100F4300D1E10312013581C6031201358EC60312A6
:100F53000135A8C603120135DBC60312013519C7D3
:100F6300031201357EC70312013593C703120135FE
:100F73009EC703120135ABC703120135C2C7031263
:100F83000135D0C703120135DBC703120135E7C7AB
:100F930003120135F6C70312013501C803120135E7
:100FA30024C803120135C8C803120135D8C8031277
:100FB3000135F2C8031201350FC9031201352AC9DD
:100FC300031201354FC9031201355AC90312013502
:100FD3006FC90312013583C903120135E4C9031232
:100FE3000135EAC903120135F0C903120135F6C907
:100FF300031201350ECA0312013541CA031201352A
:101003006AAC0212013501AD0212013599AD02122B
:10101300013589AE02120135C0AE02120135D3AEDD
:101023000212013541AF02120135DCB00212013563
:1010330003B102120135A5B102120135DAB1021270
:101043000135EBB10212013564B20212013585B2EA
:10105300021201359DB202120135F5B302120135B8
:10106300FEB5021201354EB80212013551B9021212
:101073000135A0B9021201354C8F02120135499096
:10108300021201353491021201353E9102120135EB
:101093006091021201356C9102120135BE92021267
:1010A3000135ED92021201351D94021201355F9450
:1010B300021201358B950212013561960212013538
:1010C300B3960212013512970212013549970212A3
:1010D30001358497021201351F9B02120135389B9B
:1010E30002120135BA9B02120135C89B0212013567
:1010F3001D9C021201352B9C02120135989C021291
:1011030001350A9D02120135509D0212013508C5B1
:10111300021201352AC50212013514C70212013524
:10112300B9CA02120135FCCB02120135D6CC021228
:10113300013547FE011201356CFE01120135DDFE5A
:101143000112013579F70212013582F702120135D6
:101153008BF702120135BCF802120135DBFA0212D9
:10116300013511FB021201354BFB0212013581FBE4
:1011730002120135BBFB02120135EFFB02120135EE
:101183001BFC0212013564FC021201359EFC0212A3
:101193000135E6FC021201353CFD0212013571FDF9
:1011A30002120135CCFD0212013506FE0212013591
:1011B30057FE021201358DFE02120135C7FE0212DF
:1011C3000135F5FE0212013518FF02120135A9811E
:1011D30004120135D5810412013530820412013520
:1011E3003A82041201354A82041201358FAF031289
:1011F3000135B6AF031201358183041201352E4B3D
:10120300001201353E4E00120135D34F0012013555
:101213004E5000120135FA50001201359D51001253
:101223000135355200120135645200120135D15295
:1012330000120135695700120135FB5700120135C1
:10124300375900120135A15900120135555A0012C0
:1012530001350B5D00120135455D00120135AF5DAF
:10126300001201350C5E00120135695E0012013572
:10127300C65E00120135B15F00120135F75F00123F
:101283000135426000120135656000120135AC6121
:1012930000120135C061001201352F6300120135C0
:1012A3006E6300120135AE63001201350164001252
:1012B300013522640012013560640012013586662F
:1012C30000120135C766001201356267001201354D
:1012D300D4670012013515690012013594EA03122F
:1012E30001353AEB0312013527EC0312013566ECA5
:1012F30003120135D0EC0312013578840412013551
:1013030004E503120135CFE703120135D7FF0312BA
:101313000135A4FC03120135B4FC03120135CEFCE4
:1013230003120135D6FD03120135FFE10312013526
:10133300A7E203120135E9E4031201350FFA0312A0
:10134300013541FA03120135A1FA03120135B8FA46
:101353000312013514FB0312013551FB031201354E
:1013630054FB0312013595AA03120135B4AA0312E3
:1013730001354AAB0312013548AC03120135A8AE5F
:101383000312013508AF0312013571AF03120135A2
:10139300F87F00120135D6EF03120135B6F10312BF
:1013A300013522F20312013562FB0312013593FB6F
:1013B30003120135BDFB03120135DDFB03120135B9
:1013C3003BFC031201350080031201351580031223
:1013D3000135718003120135DC800312013524814C
:1013E30003120135968103120135BF8103120135C2
:1013F300CD81031201352F82031201356D82031251
:101403000135888203120135238303120135CC830E
:10141300031201354F840312013588840312013509
:101423001385031201356A8503120135C88503123A
:101433000135DA8503120135008603120135098669
:1014430003120135608703120135548204120135FA
:101453004FF403120135B6F40312013573F5031289
:101463000135F1F5031201359CBD03120135CFBDE2
:101473000312013501BF0312013545BF03120135C4
:101483000AC003120135E6C003120135BC940312EE
:1014930001359A9503120135F6950312013510961D
:1014A30003120135219603120135249903120135E4
:1014B3004499031201353EED0312013583ED031206
:1014C3000135C9ED0312013592EF03120135008096
:1014D300041201351B80041201352B8004120135DF
:1014E30090800412013555DA0212013531DB021204
:1014F300013578DB02120135B5DB0212013523DC3D
:10150300021201357DDC02120135EDDC02120135D8
:10151300BDDD02120135ACDE0212013523DF0212FA
:101523000135BFE0021201354CE102120135BFE182
:10153300021201353BE20212013552E20212013579
:1015430077E302120135D1E302120135828E0312D1
:101553000135A28E03120135A88F03120135F48FD2
:1015630003120135149003120135679003120135FC
:10157300D490031201351A91031201357E9103129F
:1015830001352A9403120135AB94031201351D99D9
:10159300011201354A9E011201354DA10112013597
:1015A30076A1011201359FA10112013551A2011249
:1015B30001353AA40112013585A5011201359EA515
:1015C30001120135D5AA011201350EAB0112013505
:1015D30052AB0112013563AC01120135F0FE031267
:1015E300013525F203120135F2F303120135F19AA5
:1015F30003120135129B031201355D9B0312013562
:10160300F782041201350684041201354C84041256
:101613000135D37F00E066701008A3E066700A0806
:10162300A3E066700408A3E06622C3E7960809E70F
:10163300960809E7960809E79622C3E09608A3E00F
:101643009608A3E09608A3E09622C008C3E096F5A7
:101653000808A3E096420808A3E096420808A3E01E
:101663009645087001D3D00822080808EAC0E0EBC9
:10167300C0E086F0E7A4FA180986F0E7A42AFA186E
:101683000986F0E7A42AFA180986F0E7A42AFA19CA
:1016930086F0E7A4FBE5F02AFA190886F0E7A42B05
:1016A300FBE5F03AFA190886F0E7A42BFBE5F03ADC
:1016B300FA18180986F0E7A4C5F02BFBE43AFA19E7
:1016C30008E7C5F0C6A426F6E5F03BFBE43AFA18B2
:1016D30086F0E7A4F6E5F00826F6E43B08F6E43ADC
:1016E30008F6D0E0FBD0E0FA22E4CFC0E0E4CEC0BD
:1016F300E0E4CDC0E0E4CCC0E075F020E626F608D7
:10170300E633F608E633F608E633F6181818EC3332
:10171300FCED33FDEE33FEEF33FFC3EC9709ED979A
:1017230009EE9709EF97191919400FFFEC97FC0978
:10173300ED97FD09EE97FE191906D5F0BFECF709F1
:10174300EDF709EEF709EFF7191919D0E0FCD0E02E
:10175300FDD0E0FED0E0FF226016080808C6C313E0
:10176300C618C613C618C613C618C613C6D5E0EAEC
:10177300227009080808226016181818C6C333C651
:1017830008C633C608C633C608C633C6D5E0EA2240
:10179300E627F60809E637F60809E637F60809E604
:1017A30037F622E026F608A3E036F608A3E036F67D
:1017B30008A3E036F622E026F008A3E036F008A3FB
:1017C300E036F008A3E036F022C3E697F60809E610
:1017D30097F60809E697F60809E697F622C3E09616
:1017E300F008A3E096F008A3E096F008A3E096F0D3
:1017F30022E056F608A3E056F608A3E056F608A33F
:10180300E056F622E056F008A3E056F008A3E056AF
:10181300F008A3E056F022E0F608A3E0F608A3E000
:10182300F608A3E0F622E6F008A3E6F008A3E6F044
:1018330008A3E6F022E0FAA3E0FBA3E0FCA3E0FDAB
:1018430022E0F8A3E0F9A3E0FAA3E0FB22E8F0A387
:10185300E9F0A3EAF0A3EBF022CAC0E0E6F0A308A4
:10186300DAFAD0E0FA22CAC0E0E0A3C582CCC5828E
:10187300C583CDC583F0A3C582CCC582C583CDC541
:1018830083DAE6D0E0CA22C3E498F8E499F912189F
:10189300CB8026C3E49AFAE49BFBE920E7E912181C
:1018A300CBE498F8E499F922C3E498F8E499F9129F
:1018B30018CBE498F8E499F9C3E49AFAE49BFB2281
:1018C300EB20E7CFE920E7E0B90010BB0008E88A86
:1018D300F084F8AAF022E4FBC8FA22EB70227B1012
:1018E300C833C8C933C9335007C39AC3DBF2800670
:1018F3009A50012ADBEAC833F4C8C933F4C9FA227F
:1019030075F008E4C833C8C933C933C99AC99B50B1
:1019130004C92AC93BD5F0ECFBC833F4C8E4C9FABF
:1019230022600D08C6A2E713C618C613C6D5E0F396
:1019330022600C08C6C313C618C613C6D5E0F4222A
:10194300700422600D18C6C333C608C633C6D5E07B
:10195300F41822251810AF08F518400C1519800843
:10196300F51840021519D2AF2200C0D0251810AFC8
:1019730008F518500C05198008F51850020519D2FE
:10198300AFD0D0222518F58210AF08F518400C15FA
:10199300198008F51840021519D2AF85198322253D
:1019A30018F582E43519F583222518F8E43519F979
:1019B300222518FAE43519FB222518FCE43519FD14
:1019C30022E4732518C582C0E0E51934FFC583C03E
:1019D300E0E518C3958224F810AF08858319858242
:1019E300188008858319858218D2AFCEF0A3E5202D
:1019F300F0A37808E608F0A3DEFAEFF0A3E581246C
:101A0300FAF8E608F0A3E608F0A3E608F0A308084E
:101A1300E608F0A3E608F0A315811581D0E0FED017
:101A2300E0F8158115811581E8C0E0EEC0E02225BC
:101A330018C582C0E0E51934FFC583C0E0E518C3CB
:101A4300958224F910AF088583198582188008854B
:101A53008319858218D2AFCEF0A3E520F0A37808CE
:101A6300E608F0A3DEFAEFF0A3E58124FBF8E6082D
:101A7300F0A3E608F0A30808E608F0A3E608F0A33D
:101A830015811581D0E0FED0E0F815811581E8C0FD
:101A9300E0EEC0E022851983851882E0A3FEE0A36F
:101AA300F5207808E0A3F608DFFAE0A3FFE0A3C07F
:101AB300E0E0A3C0E0E0A3C0E0E0A3C0E0E0A3C097
:101AC300E010AF0885821885831980088582188500
:101AD3008319D2AFD083D08202013285198385184E
:101AE30082E0A3FEE0A3F5207808E0A3F608DFFA7E
:101AF300E0A3FFE0A3C0E0E0A3C0E0E0A3C0E0E018
:101B0300A3C0E010AF0885821885831980088582F9
:101B130018858319D2AFD083D08222C0D02518C5AF
:101B230082C0E0E51934FFC583C0E0E518C39582A0
:101B330024F310AF088583198582188008858319DB
:101B4300858218D2AFC8F0A3E9F0A3EAF0A3EBF0C3
:101B5300A37908E709F0A3D8FAECF0A3EDF0A3EE1C
:101B6300F0A3EFF0A3D0E0F0A3D0E0F0A3D0E0F037
:101B7300A3E520F0A3E5F0F0A3228519838518825D
:101B8300E0C0E0A3E0F9A3E0FAA3E0FBA37808E058
:101B9300F608A3DFFAE0FCA3E0FDA3E0FEA3E0FF69
:101BA300A3E0C0E0A3E0C0E0A3E0F5D0A3E0F5200C
:101BB300A3E0A3F5F010AF08858319858218800888
:101BC300858319858218D2AFD082D083D0E0F8D034
:101BD300E03274048006740280027401C0E0F404ED
:101BE300121987D0E012185C2274048004740280F6
:101BF30000CCC0E0EDC0E0E518C39CCCAD195001AA
:101C03001D10AF068C188D1980068C188D19D2AF54
:101C1300121869D0E0FDD0E0FC22D083D082E9C065
:101C2300E0E493A3C386F0C5F095F0F908E493A329
:101C330086F0C5F095F0700BE493A3C3994005E9D2
:101C4300048002A3E475F002A42582F582E5F03551
:101C530083F583D0E0F9E493A3C0E0E493C0E022EA
:101C6300D083D082ECC0E0EDC0E0E493A3FCE49326
:101C7300A3FDED4C600D121CAFEC24FFFCED34FF13
:101C8300FD80EFE493A3FCE493A3FDED4C600D1200
:101C93001CEEEC24FFFCED34FFFD80EFD0E0FDD023
:101CA300E0FCE493A3C0E0E493C0E022C0E0C3E41B
:101CB3009396087401939618400FE493667008088E
:101CC300740193661870007019A3A3C3E493960874
:101CD3007401939618A3A3400DD0E0D0E0D0E002A6
:101CE3001C9FA3A3A3A3A3A3D0E022C0E0C0F088BA
:101CF300F0E4936670080874019366187000A8F006
:101D0300A3A3700BD0F0D0E0D0E0D0E0021C9FA3DF
:061D1300A3D0F0D0E02295
:101D1C0074F6121A32EAFEEBFF8C088D09EE2434AD
:101D2C00F8E43FF9E8FCE9FDEE2435122056FAEE12
:101D3C002437122056F88508F0A4C885F00A8509C6
:101D4C00F0A4250AF9EA28F8E439F97A257B00127F
:101D5C0018CBEA8C828D83F0FA131313541FF8EE10
:101D6C0028F8E43FF9E8245DF582E439F583E0C016
:101D7C00E074075AF8D0E0B800028004C313D8FC12
:101D8C00A2E0EE50082434F582E43F801824361289
:101D9C002056F5F0EA84A8F0EE28F8E43FF9E824A0
:101DAC0038F582E439F583E0F97F03021ADE74F723
:101DBC00121A32EAFEEBFFEE2434122056C0E0EE8B
:101DCC002435F582E43FF583D0E0F08E828F83A337
:101DDC00A3A3A3A3A3A3C082C0838E828F83A3A338
:101DEC00A3A3A3121EBFD083D082E0C398F508A38F
:101DFC00E099F509EE247F1220566401705DEE2403
:101E0C0080121EB98E828F83A3A3A3A3A3A3A312B4
:101E1C0021F98E828F83A3A3A3A3A3E0FAA3E0FBF3
:101E2C00C3EA9CEB9D5010C3EC98ED99402DC3EA8E
:101E3C0098EB995026800EC3EA98EB994007C3ECB7
:101E4C0098ED9940167CF07D04EEFAEFFB120DA292
:101E5C00EE247FF582E43FF583E4F0AC08AD09EEA7
:101E6C00FAEFFB121D1CE9F9122A9E7F02021ADE00
:101E7C00C082C083851882851983121EBFC3EA9C59
:101E8C00EB9D5010C3EC98ED99401BC3EA98EB996D
:101E9C005014800EC3EA98EB994007C3EC98ED9967
:101EAC004004790180027900D083D08222F582E44B
:101EBC003FF583E0F8A3E0F922EAC39CFAEB9DFB23
:101ECC002274EF121A329003B6E064086005E064E5
:101EDC0007702A9061C8E060249003E4E0F4601D70
:101EEC00E0F875F00AA4C8AAF02AF974E628FE7482
:101EFC000339FF8E828F83A3A3A3E07003021FDB41
:101F0C00906060E0C0E0EE2468F582E43FF583D099
:101F1C00E0F0750C60750D05750800750900E5D9C4
:101F2C0014F50AE5D95403F50E60127403650E60BE
:101F3C0043E50A600AEE2467122056700280759001
:101F4C00055BE06401601F12205360047A04800278
:101F5C007A00E50AC39AFA95E0FB120C528A088BB8
:101F6C0009EA45097005120FE280641220537004CF
:101F7C008A0C8B0DE50A6012850C82850D83F50B9E
:101F8C00E5D9F0A3150BE50B70F6122053604474E1
:101F9C00FC250AF50A780C121BD9AC0AA90EEEFA2C
:101FAC00EFFB120E5C740212196CE97026AA08ABD6
:101FBC0009121456793D8E828F83A3A3A3A3E0FA52
:101FCC007B00120AB4EEFAEFFB120DC6120E6E79FC
:101FDC0000806F7403650E6051850A1075110078CE
:101FEC0010121BD9AC0CAD0DAA08AB09120E207443
:101FFC000212196CEE246812205664807004747FEF
:10200C008001E0F50C780C121BDDE50EF50C780C5C
:10201C00121BDDA90AAC08AD099003E4E0FA7B00C1
:10202C00120A8A740212196C80139003B6E06408C9
:10203C00600BAC0CAD0DEEFAEFFB120EE0120FEED6
:10204C0079017F0A021ADEEE2482F582E43FF583E1
:10205C00E02274F2121A3274FC121956EAFEEBFFEB
:10206C008909A2AFE433F508C2AF02211AE0601B64
:10207C00780C121BD9AC0BA90EEEFAEFFB120E5614
:10208C00740212196C7404250BF50B7401250BF5F5
:10209C00D9850ED9E50B6018F50A850C82850D8360
:1020AC00E0F5D9A385820C85830D150AE50A70EA43
:1020BC0075E195EE2463F8E43FF97A007B00A2AF5A
:1020CC00E433F50BC2AF1221F5EC4D6032888289F6
:1020DC0083E0FAA3E0FB8A828B831221F988828940
:1020EC0083ECF0A3EDF08A828B83E4F0A3F0122151
:1020FC00F5EC4D700A88828983A3A3E4F0A3F0E584
:10210C000BA2E092AF1214569004F7E004F0EE2408
:10211C0063121EB9E8496064EE246312205624024F
:10212C00F8A3E03400F988828983E5822402F50C57
:10213C00E43583F50DE0F50BA3E0F50EEE24621209
:10214C002056640170369061D0E0F8122053600480
:10215C007C0480027C007480C398FA95E0FBE50B4C
:10216C002CF8E43400F9E82402F8500109C3EA9889
:10217C00EB99A2D265D03340030220799004F7E0AA
:10218C00604D9004F8E0F89004F7E0C398500C749C
:10219C00026509703A9004F9E060348E828F83A353
:1021AC00A3A3A3E08518828519831221EB74021274
:1021BC0019A2E81221EB9004F6E028F0740212192F
:1021CC00BCAA18AB197901120ADE9004F7E4F0E509
:1021DC0008A2E092AF740412196C7F07021ADEF0A9
:1021EC00A3E4F09004F7E0F82288828983E0FCA352
:1021FC00E0FD22008521878522C622C0E074EB1207
:10220C001B1EA2AFE433F508C2AF759B0090618230
:10221C00E0A2E05030E591A2E0502A7591FE7401E5
:10222C006521702112239A120F2E122388121BEC97
:10223C00122848740412196CE964017005790112B2
:10224C000F76121ECD906182E0A2E5505DE591A261
:10225C00E550577591DF9003B6E064076005E064C4
:10226C0008702F12239A74016521703E120F2E12E2
:10227C002388121BEC122848740412196CE96401AF
:10228C0070057901120F767901EEFAEFFB12205EE0
:10229C008018E0640D70139003D8E004F06428708B
:1022AC0002E4F07A00E0F9120FF4906182E0A2E609
:1022BC00400302235DE591A2E6400302235D759184
:1022CC00BF9003B6E064057008120F16120F22803F
:1022DC0003120F1C752100120F82E99003B7F079DD
:1022EC0000120F76120D127A017B009003B5E0F903
:1022FC00121420907803E06442705690055FE0144D
:10230C00F0704EC2AF12231400782AD0E0F618D029
:10231C00E0F6E59F5407F87005750DFF8003750D09
:10232C007FC4C0E07829E6F50A08E6550DF50B7474
:10233C000B780A121934D0E0250AF8906270E0A2EA
:10234C00E740F8E8C333906272F0906270E0D2E03C
:10235C00F0906181E0A2E35009E5E9A2E350037536
:10236C00E9F7A3E0A2E75009E591A2E750037591C4
:10237C007FE508A2E092AF7F08021B7D8E828F83DF
:10238C00E0F8A3E0C82416F582E438F58322900324
:10239C00E4E0F875F00AA4C8AAF02AF974E628FE5D
:1023AC00740339FF22C0E0C0D0C082C08390618327
:1023BC00E0A2E05009E5BFA2E0500375BFFEE0A229
:1023CC00E15009E5BFA2E1500375BFFDE0A2E25068
:1023DC0009E5BFA2E2500375BFFBE0A2E35009E59B
:1023EC00BFA2E3500375BFF7E0A2E45009E5BFA21A
:1023FC00E4500375BFEFE0A2E55009E5BFA2E5503C
:10240C000375BFDFE0A2E65009E5BFA2E6500375F5
:10241C00BFBFD083D082D0D0D0E032C0E074F212F3
:10242C001B1EE5A7A2E6500FE5A1A2E6500953A793
:10243C00BF75A1BF12247BE5A7A2E5500CE5A1A2B4
:10244C00E5500653A7DF75A1DFE5A7A2E15009E52A
:10245C00A1A2E1500375A1FDE5A7A2E2500CE5A1F4
:10246C00A2E2500653A7FB75A1FB7F01021B7D74F2
:10247C00F7121A327521019003B6E064067015123A
:10248C000E928A828B83A3A3A3A3A3A3E0FAA3E057
:10249C00FB120F04A2AFE433FED2AF9003BCE06496
:1024AC000170187A207B009003B5E0F91215707A50
:1024BC00207B009003B5E0F9121426906182E0D2E3
:1024CC00E6F090055CE0602185C62280169003BB87
:1024DC00E064017008E5C654F84405F5C653BEFC2B
:1024EC001222007401652160E4EEA2E092AF7F023B
:1024FC00021ADE008E238F24858228858327851877
:10250C0082851983E0CEA3E0CF852882852783EBD3
:10251C00C9EAC8EDCBECCA75F010C3E833C8E9338F
:10252C00C9EA33CAEB33CBC3EA9EF526EB9FF525FC
:10253C00B35004AB25AA26EC33CCED33CDD5F0DA71
:10254C00AE23AF242274E9121A3274FA121956EA25
:10255C00FEEBFF8C0A8D0B120F3AEAF8EBF9ECFA52
:10256C00EDFB8E828F831218509003B6E024F7C3D4
:10257C00940550067514010226B8120E928A088B27
:10258C0009EA450970030226B5EEFCEFFDAA18AB6B
:10259C0019120F34850882850983A3A3780C1218AD
:1025AC001A90815B780C1217F48518828519837840
:1025BC001012181A90815B78101217F4780C79109D
:1025CC0012162D501F780C79101217CC9081977819
:1025DC000C12164D4047850C14850D15850E16856D
:1025EC000F1780459081978510148511158512164B
:1025FC008513177814790C1217CC781412164D50C9
:10260C001C75140075150075160075170178147972
:10261C00101217CC7814790C121793800C751401C6
:10262C007515007516007517007409781412177457
:10263C009081D3780C12181A7814790C1216EC8538
:10264C000882850983A3A3A3A3A3A31226D61218D9
:10265C00CB880C890DE4F50EF50F7814790C121754
:10266C009374041219A21226D61218CBE8FA8A0C0B
:10267C00E4F50D7814790C12162D50077814790C9A
:10268C001217CC9003B6E06408600AE0640660059B
:10269C00E06405702090819B781412164D501690B2
:1026AC00819F78141217A6800C751400751500758F
:1026BC001600751700850A82850B83781412182969
:1026CC00740612196C7F10021ADEE0F8A3E0F97A96
:1026DC00D07B032274F7121A32120F4C90055AE079
:1026EC0064017010906245E4F0A3F053F4F343FEE0
:1026FC000C5390F3120EF2E5C654B84441F5C6E5FE
:10270C009E5447644170F8906185740FF0900558A1
:10271C00E0F47002A3E0604E900559E0600814608C
:10272C001B14602E8040750801750900900558E057
:10273C007808121943E508F45280802A750801754F
:10274C000900900558E07808121943E508F45290F6
:10275C008014750801750900900558E07808121965
:10276C0043E508F452A079007F02021ADE74F712D6
:10277C001A32E9FEEAFF120F4C74016E700C7A806B
:10278C007B009003B5E0F9121420902B10E493F425
:10279C006008E493F9120D06800953C6B8E59E54FF
:1027AC004770FA120EF890055AE064017003120D8E
:1027BC0024900558E0F47002A3E0604B900559E0BA
:1027CC00600814601A14602C803D750801750900AE
:1027DC00900558E07808121943E508428080287566
:1027EC000801750900900558E07808121943E508AE
:1027FC0042908013750801750900900558E078081F
:10280C00121943E50842A0120E928A088B09A808F7
:10281C00A909E8496014E5E170FCE82414F582E4A8
:10282C0039F583E0F46003E0F5E174016F700A7A26
:10283C00019003B5E0F91214DA02277474F1121A3C
:10284C00328A088B098C0A8D0B90815B78081217E1
:10285C00F4740F1219A2780C12181A90815B780C70
:10286C001217F47808790C12162D90819750107865
:10287C0008790C1217CC780812164D4014800E787B
:10288C000C79081217CC780C12164D500479018073
:10289C000279007F08021ADE74ED121A328A088B54
:1028AC00098C0A8D0B90815B78081217F474131243
:1028BC0019A2780C12181A90815B780C1217F47804
:1028CC000C790812162D40117808790C1217CCAA25
:1028DC0008AB09AC0AAD0B802275100075110075A0
:1028EC0012007513017810790C1217CC7810790836
:1028FC00121793AA10AB11AC12AD137F0C021ADE97
:10290C0090815B780812181A8A828B8378081218C7
:10291C00077F04021ADE74F5121A328C828D8378CA
:10292C000812181A8A828B8378081217E012297AF7
:10293C00C3E09CF0A3E09D12296C40229081F778B3
:10294C000812181A8A828B8378081217B98A828B1C
:10295C0083A3A3A3A3E02420F0A3E0344EF080A033
:10296C00F088828983C3E09420A3E0944E22EA2469
:10297C0004F8E43BF98C828D83A3A3A3A3E0FCA30E
:10298C00E0FD888289832274F5121A32E9FE9005E3
:10299C0012E0FAA3E0FBEE29F8E433F974D928F538
:1029AC0082748039F583E02AF508A3E03BF50978B9
:1029BC0008121BD99081DB121838122500740212F0
:1029CC00196C8A088B098C0A8D0B741078081217F5
:1029DC005BAA08AB097F04021ADE74F1121A328A60
:1029EC000C8B0D8C0E8D0F74111219A2121BF0741E
:1029FC00111219A2E02401F508A3E03400F509E452
:102A0C00F50AF50B780C790812166C9081AB7808E6
:102A1C0012181A780C790812166CAA0CAB0DAC0EA5
:102A2C00AD0F122500740212196C8B09EA4509606E
:102A3C00047A0180027A00EC2AFCE43DFD74131246
:102A4C0019A2E0F8A3E0F9E8FEE9FFECF8EDF97A59
:102A5C00717B021218CB88088909E4F50AF50B8EF4
:102A6C00828F837808121829ECF8EDF97A717B02C1
:102A7C001218CB8A088B09740578081219438E82B8
:102A8C008F83A3A3A3A3E508F0A3E509F07F0802B5
:102A9C001ADEC082C083E9906000F0D083D082221D
:102AAC00C0E074F2121B1EA2AFE433FED2AFE58974
:102ABC00A2E04006E589A2E1500312135475890087
:102ACC00758900C2C5751A00EEF8EEA2E092AF7FD0
:102ADC0001021B7DC0E0C0D0E8C0E0E9C0E0A2AFBD
:102AEC00E433F8D2AFC2C7751A00E8F9E8A2E09255
:102AFC00AFD0E0F9D0E0F8D0D0D0E032C2AF0200D5
:022B0C000022A5
:102B1000FFFFFFFFFFFFFFFFC082C083E99016B6F3
:102B2000F0D083D08202013274F61219C6E9900304
:102B300028F0900388E0F5087509007402780812FF
:102B40001943AA08AB091214C29003291234DB906E
:102B500003291238C8606F900388E075F003A4FA67
:102B6000ABF01214C29003461234DB9003461238C5
:102B7000C8700B9003291238991214C8804890032A
:102B80004612482D7AFF7BFF1212DC7A0080198AE8
:102B900008750900740278081219431242D574FFAF
:102BA000122CDBE4F0A3F00A900388E0F8EAC39863
:102BB00040DD790512097C900328E0F91208627A59
:102BC000067B0A120BF202437874F41219C68A08C3
:102BD0008B09EB54806047900328E0F91214088AAF
:102BE0000A8B0BAE0AAF0BEE4F602A8E828F83E00A
:102BF00064B0701A12098EE960148E828F83A3A3C9
:102C0000A3A3E0F9EE2405FAE43FFB12095EEEFA15
:102C1000EFFB1213F6AA08E5096480FB80047A0032
:102C20007B00022E2B74F21219C674FB121956EA9D
:102C3000FEEBFFEE4F604574031219A2EEF0A3EF16
:102C4000F0851882851983ECF0A3EDF07402121957
:102C5000A2E9F0AA18AB1912085CE9F508707574BE
:102C6000131219A2E0F50AA3E0F50BE50A450B6083
:102C7000638E828F83123264EE4F70057508028076
:102C8000537A067B001214C28A0C8B0DA80CA90D76
:102C9000E8497005750813803B88828983E4122C0B
:102CA000DBEEF0A3EF122DF7E50AF0A3E50BF090B1
:102CB000032C122DF090032C6017E0FCA3E080039E
:102CC000EAFCEBFD8C828D83122DF070F38C828DEB
:102CD00083123EF0A9087405024AADF0A312480F12
:102CE000A32274F21219C68908890C750D007403A9
:102CF000780C121943850C0A850D0B90032BF0906C
:102D00000329123CFB122DEE602E1214C8790080AC
:102D10001D890C750D007402780C1219439003295B
:102D20001241948882F583A3A3E4F0A3F0099003F1
:102D300088E0F8E9C39840D9900388E0FA850AF062
:102D4000A4CAA8F0850BF0A428FB1214C28A0C8B2D
:102D50000DAE0CAF0DEE4F7003022DE4900388E032
:102D6000FC850AF0A4CCA8F0850BF0A428FD79001E
:102D70001213E47C0080318D0C750D007403780C07
:102D80001219438A828B83122DE988828983E4F0A9
:102D9000122DF6A3A3F0A3F00DEDC3950840D8EED5
:102DA000250AFEEF350BFF0C900388E0F8ECC39882
:102DB00050288C0C750D007402780C121943900386
:102DC00029122DE9E82402500109FAE9FB8A828BD5
:102DD00083EEF0A3EFF07D0080BFE50890032BF0B9
:102DE000790080027913024AB0124198F922A3A314
:102DF00012389DEA4B22A312480FA3A3A32274F416
:102E00001219C67900EAA2E0501F750851750981B0
:102E10007808121BD979107C047D007AB87B1612D1
:102E20000976740212196CE9F980007F04021A987D
:102E3000C082C08390032C1238C8601C88828983AA
:102E4000A3A3E06A7003A3E06B8882898370E8A380
:102E5000A3A3A312389980047A007B00022B21746B
:102E6000F21219C674FD121956EAFEEBFF8518829C
:102E7000851983E4F0A3F074021219A27401F01210
:102E800038C57014120B2C1214C290032F1234DBAD
:102E90001238C57003022FF11235DBEE2404F50A57
:102EA000E43FF50B850A82F583E024FE603C24FCB8
:102EB000607424FE607E24FE7003022F4124FE70A5
:102EC00003022F4E24FE7003022F5B24FE700302C8
:102ED0002F6824FE7003022F7524FC7003022F96C6
:102EE00024FE7003022FAE022FEA120B2C90033146
:102EF000EAF0A3EB122FFD1204A2E96003022FEA0D
:102F0000900331121BF08E828F83A3A3A3A3A3127D
:102F1000482D850882850983123899120946740262
:102F200012196C022FEAAC18AD19EEFAEFFB120978
:102F300094022FB9AC18AD19EEFAEFFB12099A8082
:102F400078AC18AD19EEFAEFFB1209A0806BAC1843
:102F5000AD19EEFAEFFB1209A6805EAC18AD19EEC2
:102F6000FAEFFB1209AC8051AC18AD19EEFAEFFB89
:102F70001209B2804474021219AC880C890D780CC5
:102F8000121BD974021219BCEEFAEFFB1209B874C5
:102F90000212196C8023AC18AD19EEFAEFFB12097E
:102FA000BEE9F8701674021219A2E4F0803CAC1865
:102FB000AD19EEFAEFFB1209C4E9F8E8602C8E8235
:102FC0008F83A3E064146022850A82850B83E090DE
:102FD0000331F085188285198312389990033212D3
:102FE00034DBE8A3122FFD12049CEEFAEFFB12096A
:102FF0001C74021219A2E0F97403024AADF07C318C
:103000007D0385088285098312389D2274E8121990
:10301000C674FA12195674041219A2ECF0A3EDF05A
:103020008A128B13EA2405F50EE43513F50FEA2412
:1030300002F510E43513F511851082F583123899E5
:103040001205F28A0A8B0B7508007C037D0079005B
:103050007A317B031213E4E50E2402F516E4350FF2
:10306000F51774021219AC880C890D780C121BD953
:10307000850E82850F83A3A3A3A3E0F50C750D0035
:10308000780C121BD9E50E2405F50CE4350FF50D6F
:10309000780C121BD9851682851783123BA0120863
:1030A0007A740612196C8A0C8B0DE50C450D7003B1
:1030B00002322D8020851882851983E088828983D9
:1030C000F00508851882851983A3E0C0E012326EEE
:1030D000D0E0F00508E50A24FBFAE50B34FFFBC35A
:1030E000E5089AE49B400302322D7E007F008512A2
:1030F00082851383A3A3A3A3E0F5097809121BDD3E
:10310000E4F514F5157814121BD975142E751503F2
:103110007814121BD990032F121BF074091219A2F4
:10312000121BF0E50A24F9F9AC0CAD0D851082856F
:1031300011831238991209EE740912196CE96003AF
:103140000231CE850E82850F83A3A3A3A3A3A3A3DD
:10315000E0F890032EE0687075E0F5148E15781491
:10316000121BD912482A850E82850F83A3A3A3A31D
:10317000A3A3A3A31238991213DE740212196CE9E7
:10318000604C9003321238C8703BE4F51478141286
:103190001BD97CFF7DFF790785108285118312384A
:1031A00099120958740212196C1238CE7017850ED4
:1031B00082850F831249C774041219A21242881221
:1031C0003BD1023261850C82850D83123264A818CE
:1031D000A919881489157814121BD974041219A21C
:1031E000121BF08516828517831234D1120886745B
:1031F0000412196C8A0C8B0DEE4F70030230AA1268
:10320000326EEE123279123B87EF123279F8A3E078
:103210003400F9E50C450D60030230B588828983DE
:1032200074FFF0050812326E74FFF00508E50860BF
:103230001A1313543F1234E11204AEE960099003EB
:103240003212389912145679008016850E82850F35
:10325000831249C774041219A2124288123EF079EF
:103260000A023B5AA3A3A3A3E0FEA3E0FF22A808FF
:10327000900332E028123B8722F0050808900332C1
:10328000E0282274E81219C674FA12195674021250
:1032900019A21234DB74041219A2ECF0A3EDF0743D
:1032A000021219A2E02405123B70E0F50CA3E0F530
:1032B0000D74021219A2E02402F510A3E03400F507
:1032C00011851082F5831238991205F27508007580
:1032D0000900EA24FCFEEB34FFFF8008050CE50C36
:1032E0007002050DA808C3EE98EF94005003023455
:1032F0008DA818A919880E890F780E121BD985146C
:1033000082851583A3A3A3A3124831121BD9E51408
:103310002405F50EE43515F50F780E121BD985142A
:10332000828515831234CF12087A740612196C8ABA
:103330000E8B0FEA450F700302348DEA2404F51654
:10334000E4350FF517851682F583E0F50CA3E0F55B
:103350000D85188285198312482D8A828B83A3A339
:10336000A3E0F9851082851183123899120868E963
:10337000F509600302348D74021219A2123B97F50D
:10338000097809121BDDE4F512F5137812121BD926
:1033900075122E7513037812121BD990032F121B6E
:1033A000F074071219A2121BF0EEF9AC0EAD0F85E6
:1033B00010828511831238991209EE740912196C62
:1033C000E9F509600302348DE508703FE4F50EF578
:1033D0000F780E121BD97CFF7DFF7909851082853D
:1033E0001183123899120958740212196C123BBDDC
:1033F000700D74041219A21234C479110234C190F0
:10340000032EE02402900332F08014900332E0FA9D
:1034100090032EE0790024025001096A497072A8D5
:103420000890032EE0FAE82AFAE43400FBEE9AEF63
:103430009B405A851682851783E0C0E090033312C3
:103440003273D0E0F00508851682851783A3E0C0AB
:10345000E008900333123273D0E0F0050890032E99
:10346000124831121BD912482AA808123B641213C1
:10347000CC740212196C90032EE02508F50874FF35
:10348000650C700474FF650D60030232DCE50860B2
:103490001F900332E0F5F0E508841234E11204B421
:1034A000E96009900333123899121456790080119B
:1034B000E509700375090A74041219A21234C4A92B
:1034C00009023B5A123CFFE50CF0A3E50DF022A3E4
:1034D000A3124ABCAA0CAB0D22A3A3EAF0A3EBF003
:1034E00022900331F07C317D038510828511831297
:1034F000389D2274EC1219C674FC12195612400041
:1035000074021219BC1238931208808A0C8B0DEACF
:10351000450D70030235CB1235DBA818A9198810A8
:1035200089117810121BD97CFF7DFF790B850882E9
:10353000850983123899120958740212196C1236CF
:10354000D1700C850A82850B83123BCE0235D88E52
:10355000828F83A3A3A3A3E0F5127812121BDDE4EC
:10356000F512F5137812121BD97512317513037801
:1035700012121BD97810121BD974091219A2121B2E
:10358000F074091219A2E0F9AC0CAD0D8508828522
:1035900009831238991209EE740912196CE9FE7048
:1035A000157C317D038508828509831238991204C0
:1035B000BAE97009802074166E70027E00900332A2
:1035C000123899121456EE7004800B7E01850A821F
:1035D000850B83123EEDEEF9023F02EE2402F50860
:1035E000E43FF5092274EC1219C674FC121956EA6C
:1035F000FEEBFF8C0E8D0FEE2405F508E43FF50978
:1036000074021219BC850882850983123899120840
:10361000808A0C8B0DEA450D70030236C1EE240240
:10362000F50AE43FF50BA818A9198810891178103C
:10363000121BD97CFF7DFF790D1238931209587443
:103640000212196C1236D1700B850882850983121B
:103650003BCE807A8E828F83A3A3A3A3E0F512785A
:1036600012121BDD850882850983A3A3121BF07546
:1036700012317513037812121BD97810121BD974EA
:10368000091219A2121BF074091219A2E0F91238DA
:103690008F1209EE740912196CE9FE700F7C317DEE
:1036A000031238931204C0E97009802074166E70FA
:1036B000027E00900332123899121456EE70048084
:1036C0000B7E01850882850983123EEDEEF9023FEB
:1036D000021238D8F510A3E0F511EA45112274E87A
:1036E0001219C674FE1219568A168B178C148D1572
:1036F000EA2405F50CE43517F50DEA2402F50EE48D
:103700003517F50F850E82F5831238991205F28A66
:10371000088B09750B007C037D0079007A317B03EF
:103720001213E4750A00E50814F5100424FFF508E7
:10373000E50934FFF5098054900331E0FA90032E37
:10374000E0F8EA28F8E43400F9E50898E50999502A
:103750000D900331E0F8E510C39890032EF0E0F5EA
:10376000127513007812121BD912482A900332E006
:103770002AFAA3E03400FB1213CC740212196C90E5
:10378000032EE0F8900331E028F0050A850C8285CD
:103790000D83A3A31241A44003023874900331E0C7
:1037A000C39508E495094003023874AE0AEE2EFE74
:1037B000E433FF1238B3AC18AD19124845E439FBB5
:1037C0001208808A128B13AC12AD13EC4D701B756E
:1037D0000B011238A3123EF1900332122DF0600358
:1037E000121456A90B7402023B5C8516828517835E
:1037F000A3A3A3A3E0F50B780B121BDDE4F512F5F0
:10380000137812121BD975122E7513037812121B1E
:10381000D990032F121BF074071219A2121BF0A9E2
:1038200010850E82850F831238991209EE740912E1
:10383000196CE9F50B709B9003321238C8600302D3
:103840003738E4F512F5137812121BD97CFF7DFF8F
:10385000790F850E82850F831238991209587402E8
:1038600012196C1238CE60030237381238A3123B9B
:10387000D20237E57C317D03850E82850F831238B5
:10388000991204C6E960030237D879000237E5AC23
:103890000CAD0D850A82850B8312389D22E0FAA3B8
:1038A000E0FB221238B3E0FAA3E0F9EA851482853E
:1038B000158322850C82850D83E02EF8A3E03FF965
:1038C000888289832290032F1249CBE8492212383B
:1038D000D8F8A3E0F9E84922900332EAF0A3EBF02C
:1038E000900332E02274E81219C674FA1219567461
:1038F000041219A21234DB8C168D1774041219A24B
:10390000E02405F50EA3E03400F50F74041219A2AB
:10391000E02402123B701238991205F28A0A8B0BCE
:103920007F007E00A818A919880889097808121B49
:10393000D9850E82850F83A3A3A3A3E0F5088E0982
:103940007808121BD9E50E2405F508E4350FF509B2
:103950007808121BD9850E82850F83A3A3123BA082
:1039600012087A740612196C8A0C8B0D8029123B8E
:1039700091F00F123B91F00F90032E123EDC121BC0
:10398000D912482AEFF8123B641213CC74021219B0
:103990006C90032EE02FFFE50C450D7003023A20DA
:1039A000851882851983124012A3A3A3E0F9851418
:1039B00082851583123899120868E9FEE50C240403
:1039C000F510E4350DF511EE705074041219A212C1
:1039D0003B97F5087808121BDDE4F508F50978082F
:1039E000121BD975082E7509037808121BD990038C
:1039F0002F121BF074071219A2121BF0E50A24FA09
:103A0000F9AC0CAD0D851482851583123899120915
:103A1000EE740912196CE9FE6039123BAD123EF0EA
:103A2000EF7003023B47900332E0F5F0EF84900320
:103A300031F07C317D03851482851583123899120B
:103A400004CCE960099003331238991214567900B6
:103A5000023B5A8F08EF703BE4F512F5137812120F
:103A60001BD97CFF7DFF791185148285158312385F
:103A700099120958740212196C123BBD7009123B5D
:103A8000AD123BD1023B5A90032EE0240490033246
:103A9000F0803590032EE0F8900332E0FAE8240439
:103AA000FCE43400FDEC6A4D6003023A26E50A248A
:103AB000FAFAE50B34FFFBE50828F8E43400F9EAEC
:103AC00098EB995003023A26851082851183E0C055
:103AD000E0900333E02FF8A3E034008882F583D030
:103AE000E0F00F851082851183A3E0C0E0123B7ED9
:103AF000D0E0F00F74021219AC8808890978081216
:103B00001BD974021219A2121BF0850E82850F8335
:103B10001234CF120886740412196C8A0C8B0DEAC9
:103B2000450D700302396E74021219A2E0C0E01252
:103B30003B7ED0E0F00F74021219A2A3E0C0E012A5
:103B40003B7ED0E0023976EE70027E0A850E8285D9
:103B50000F83123BB3123EF0EEF9740612196C7F1C
:103B600010021A98900333E028FAA3E03400FB22F5
:103B7000F514A3E03400F515851482F58322123B79
:103B80008222900333E02FFAA3E034008A82F58387
:103B900022123B8274FF22123CFFA3A3A3A3E022C4
:103BA000124ABC850E82850F8312389D22851082B1
:103BB0008511831249CB85168285178322900333A2
:103BC000EAF0A3EBF09003331249CBE84922123E0E
:103BD000F6E8F0A3E9F079112274EA1219C674FE2E
:103BE0001219568A088B098C128D13EA2405FEE4FB
:103BF0003509FFAC18AD198E828F831238991208DF
:103C0000808A0C8B0DEE2406F50EE43FF50FEA4595
:103C10000D7003023CD1E5082402F50AE43509F5EC
:103C20000B8A828B83A3A3A3E0A2E5502885188288
:103C30008519831238991209E28A108B11EA45110D
:103C40006020791212388F8510828511831219C471
:103C5000E9F50C707F850E82850F83E0600979524B
:103C60008011750C0E806D850882850983A3A3A33E
:103C7000A3E0F9E4F508F5097808121BD98E828FC4
:103C800083A3A3E0F5087808121BD98E828F83A343
:103C9000A3A3121BF08E828F8312482D1238931229
:103CA00009F4740612196CE9F50C7011850E828501
:103CB0000F83E0702D1238931204D280257416659C
:103CC0000C7011750C0074181219A2123CFBE480E0
:103CD00010750C011249C3851282851383E8F0A385
:103CE000E9F0850E82850F83E0600479008002A9E7
:103CF0000C740212196C7F0E021A98123CFF22E01B
:103D0000F8A3E0F58388822274EC1219C674F712C6
:103D100019568A0A8B0B8C108D11EA2405FEE435A6
:103D20000BFF750C00AC18AD198E828F8312389979
:103D30001208808A088B09EA45097003023EC7E52C
:103D40000A2402F50A5002050B8A828B83A3A3A3DF
:103D5000E0A2E5502F85188285198312389912093F
:103D6000E28A0C8B0DEA450D604F7912AC08AD0963
:103D7000123893850C82850D831219C4E9F50C6005
:103D800003023ECA850A82850B83E0F508A3E0F5AD
:103D900009AA08FB1209D6EA4B70197AFF7BFF12B9
:103DA00009D6EA4B7003023EBD8A828B83E508F098
:103DB000A3E509F07508008008750C0E023ECA05DF
:103DC0000890032BE0F8E508C3984003023EBD8548
:103DD000080E750F007403780E1219438A828B83C4
:103DE000A3A3E0250EF8A3E0350F12429170D08E08
:103DF000828F83123EE51234DB8E828F83A3A3125F
:103E00003EE51234D9EE2404F508E43FF5098508AF
:103E100082F583E088828983A3A3A3A3F0A3E4F0BF
:103E2000EE2405F50EE43FF50F850E82F583123E74
:103E3000E5A3A3A3A31234D9751207751300781252
:103E4000121BD9EEFCEFFD74041219B41213CC74DA
:103E50000212196CE4F5127812121BD985088285BA
:103E60000983E0FC7D007917123893120958740217
:103E700012196C74071219A21234DB74071219A2FA
:103E8000E0FA4B603D850882850983123EDC121BF7
:103E9000D9850E82850F8312482D1213CC7402121D
:103EA000196C74021219BC1238931204D8E96026F6
:103EB00074071219A21238991214568019750C0938
:103EC0008008750C118003750C011249C38510829E
:103ED000851183123EF0A90C74098028E0F508755D
:103EE000090078082212389D8882898322123EF6C2
:103EF000E8F0A3E9F022E0F8A3E0F9850E82850F4F
:103F00008322740412196C7F0C021A9874EC121933
:103F1000C6124000751000EE2402F50CE43FF50DCA
:103F2000850C82F5831238991209D68A088B09EA22
:103F300045097003023FE4850A82850B83E0640132
:103F40006003023FD9AC08AD09AA0AAB0B1209CA3B
:103F5000E9606E850882850983123266EE2406F5D3
:103F60000AE43FF50B8E828F83A3A3121BF08E828F
:103F70008F83A3A3A3A3121BF0850A82850B831250
:103F80001BF079188E828F83124012123899120911
:103F9000F4740612196CE9F8741668700B850A82BD
:103FA000850B83E4F0A38014E860128E828F831265
:103FB0003899850E82850F83EAF0A3EBF088108094
:103FC00018780E121BD9AC08AD09EEFAEFFB1209F6
:103FD000D0740212196CE9F510AA08AB091209DCB9
:103FE000E510700E850C82850D831238991204DE5F
:103FF0008009741665107003751000A910023F0740
:10400000EAFEEBFF8C0E8D0FEE2405F50AE43FF57A
:104010000B22124ABC850C82850D832274EA121988
:10402000C67508007509007E007F00750A00EC2443
:1040300002F510E43DF5118035EC65087003ED657F
:104040000960030240D188828983A3A3E06A7003D8
:10405000A3E06B707C88828983A3A3A3A31249C7C2
:10406000EE28FEEF39FFEA28FAEB39FB050A124188
:10407000A1503A850A0C750D007403780C1219438F
:10408000851082851183124194124291601FE508C8
:10409000450970A58C088D0988828983123264884D
:1040A000828983A3A3E02EFAA3E03F80BEE50AC382
:1040B0009402500302418F750800750900EE4F60AD
:1040C00010EEFAEFFB1214508A0E8B0FEA450F70B8
:1040D000057900024191750B00024164850B0C7556
:1040E0000D007403780C121943851082851183E04A
:1040F000250CF50CA3E0350DF50DE50C2406F514A3
:10410000E4350DF515851482F5831242966042E57B
:104110000C2404F512E4350DF513851282F5831293
:104120001BF0E50E2508FAE50F3509FB1213CC74D8
:104130000212196C851282851383E02508F508A305
:10414000E03509F509851482851583123899121412
:1041500056E50B600D7C087D007900AA0CAB0D12B2
:1041600013E4050BE50BC3950A50030240DC8510F0
:10417000828511831249C788828983A3A3A3A3A33D
:10418000A3E50EF0A3E50F122DF7EEF0A3EFF07903
:1041900001023CF612419822E0250CF8A3E0350D0F
:1041A0002290032BE0F8E50AC3982274F01219C696
:1041B0008A0E8B0F8C0A8D0B750D00750C008050CC
:1041C0007916EE2406F508E43FF5098E828F83A365
:1041D000A3121BF08E828F83A3A3A3A3121BF085CF
:1041E0000882850983121BF0850E82850F83A3A3A5
:1041F0001238991209F4740612196CE9F50D741647
:10420000650D706C850882850983E4F0A3F0050CC8
:1042100090032BE0F8E50CC3985066AA0C8A087549
:10422000090074037808121943850A82850B83A359
:10423000A31242E0E8FEE9FF8E828F83124296606D
:1042400040EA2401F508E43400F50990032BE06509
:10425000087002E509601488828983A3A3A3A3A33D
:10426000A3A3A31238C860030241C079180241C257
:10427000E9609B1249C374101219A2124288123EBF
:10428000F0A90D7F08021A98E0FAA3E0F5838A826C
:1042900022F988828983124ABCEC4D2274F61219E5
:1042A000C67C0080010C900388E0F8ECC398501E97
:1042B0008C08750900740278081219431242D5E07F
:1042C0006A7003A3E06B70DDE8FAE9FB80047A0012
:1042D0007B000243789003291242E088828983227E
:1042E000E02508F8A3E03509F92274F21219C68A0C
:1042F000088B09750A0080278E828F83A3A3A3A34E
:10430000122DEE60031214567C087D007900EEFA3F
:10431000EFFB1213E48E828F83E4F0A3F0050A1200
:1043200041A15027850A0C750D007403780C1219F1
:1043300043850882850983A3A3E0250CFEA3E0350D
:104340000DFF8E828F831238C870AD850882850973
:104350008374FFF0A3F0024AB074F61219C6120972
:10436000888A828B83E582458370067A007B008091
:1043700007A3A3A3A31238997F02021A9874F41218
:1043800019C689088C828D83E06402703C124966EC
:10439000FEA3E0F9EEF874026870037429697029CD
:1043A000750A02750B00780A121BD974101219A233
:1043B000121BF074101219A2121BF0A9081212E2BB
:1043C000740612196CE9F980027901022E2B74E847
:1043D0001219C674FB121956E9851882851983F0E3
:1043E0008A168B17ECFEEDFF7510008E828F83A36B
:1043F000A3A3E0A2E4502D741D1219A21238991241
:1044000009E28A828B83E58245837003024805793D
:104410000AEEFCEFFDAA16AB171219C4E9F51060FD
:1044200003024808741F1219A2E0F508A3E0F50979
:1044300074211219A2E0F50AA3E0F50B74231219F6
:10444000A2E0F50EA3E0F50F8E828F83E064026098
:10445000030247A6A31249C7850882850983A3855D
:104460008212858313EE2406F50CE43FF50D888255
:104470008983124845F514E439F5157814121C6344
:10448000010000280128A844070002286D450328E0
:10449000DB4400299C460129C746022968460329B6
:1044A0009C4604294047A647E50E450F6003024796
:1044B000A1850C82850D831249C7E8FAE9FB8A823F
:1044C0008B83E0850A82850B83124850121BD98AA0
:1044D000828B83A3E0FCA3E002472AE50E450F6030
:1044E000030247A1850A82850B837401F012483AC2
:1044F000850882850983F07C007D008E828F83A3EE
:10450000A3A3A3E02401FAA3E03400FB120880EA8D
:104510004B60408A828B83E02402F8850A82850BF7
:1045200083E028F0EA2404F8E43BF988828983E0F8
:1045300085128285138312485E124850121BD98A55
:10454000828B83A312482DE5082403FAE43509FB86
:1045500002472F850A82850B83E02404F07C047DCA
:10456000007900AA12AB131213E4024808E50E45C5
:104570000F60030247A112483AFEA3E0FF850A82BA
:10458000850B837404F0EE850882850983F0EF853E
:104590001282851383F074031219BCEEFAEFFB123A
:1045A00008808A0C8B0DEA450D700302464B8A8207
:1045B0008B83A3A312326474011219AC880E890F85
:1045C000780E121BD974051219A2121BF07CFF7D04
:1045D000FF120886740412196C8B0FEA450F7033B2
:1045E000850C82850D83124831121BD9850C82857A
:1045F0000D83A3121BF07C027D007A0F7B821205D3
:10460000E0740412196CE9700A74011219A274FFA3
:10461000F0A3F08E828F83E064027039750C02750E
:104620000D00780C121BD98E828F83A312482DE5C2
:10463000082404FAE43509FB1213CC740212196C35
:10464000850A82850B83E02402800974011219A275
:10465000EEF0A3EFF074011219A212481F740112B8
:1046600019A212481602479BE50E450F6003024748
:10467000A1850C82850D83124AB5AA16AB171212BA
:10468000E8850A82850B837402F085088285098398
:10469000EAF0851282851383EB02479EE50E450FF3
:1046A00060030247A112483AF8A3E0F9850A82851F
:1046B0000B837402F0E8850882850983F0E985128E
:1046C0008285138302479E850C82850D831238995B
:1046D0001213C6EAFAF8C3950EE4950F405CE8653C
:1046E0000E450F70047A008021851882851983E0B9
:1046F000FCE50E2CFCE4350FFDC3EC98ED94005066
:1047000003E08005E50ECAC39AFAEA850A82850BA2
:1047100083F08A0A750B00780A121BD9850C8285F2
:104720000D83E0250EFCA3E0350FFDAA08AB0912AE
:1047300013CC740212196C0248087510070248085D
:10474000E50E450F705B850C82850D831249C78588
:104750000A82850B837407F08882898312481712B6
:10476000480FE0851282851383F0E82402FAE439C9
:10477000FB8A828B8312481F8A828B83124816A37E
:10478000A3122DF6124824F0E82405F850010988F8
:10479000828983124824A312485EA3A3A3A3F080B6
:1047A0006775100B8062741D1219A21238991209D4
:1047B000888A828B83E5824583604A1249C7880CC8
:1047C000890DE8450D603E74251219A2E0F51078B8
:1047D00010121BDD780E121BD9780A121BD978082B
:1047E000121BD974071219A2E0F9EEFCEFFDAA160C
:1047F000AB17850C82850D831219C4740712196CCE
:10480000E9F510800375100EA9107405023B5CF0E9
:1048100088828983A322A3E08508828509832212E6
:104820004865F022124865A3A32290032F124ABCC8
:1048300022E0F50E750F00780E22850C82850D831F
:10484000123CFFE022E0FAA3E0F8E4C8F9EA2822EB
:10485000F08A828B83E0F50A750B00780A221248F1
:104860000F12486522E0850882850983A3A322747C
:10487000EE1219C674FE1219568A088B09ECFEED69
:10488000FF890AAC18AD19EEFAEFFB1208808A0C0A
:104890008B0DEA450D7003024957851882851983EF
:1048A0001238991209888A828B83E58245837003C6
:1048B000024952A3A31249C7880E890FE8450F7019
:1048C0000302495274141219A2E0F510A3E0F51185
:1048D000E50AF50B780B121BDD74191219A2121BD5
:1048E000F07810121BD9741B1219A2E0F9AC0CADB0
:1048F0000DAA08AB09850E82850F831219C47405B1
:1049000012196CE9F50B705274FE650A604C850C47
:1049100082850D83E064027041124966FAA3E0F9D2
:10492000EAF87402687003742969702E8510828514
:104930001183124845F50CE439F50D780C121BD99A
:10494000EEFCEFFDAA08AB09120A0C740212196CF6
:104950008008750B0E8003750B01A90B74021219E8
:104960006C7F0A021A98A31249CB88828983E022BD
:1049700074F61219C674FE121956740C1219A2128A
:1049800049C7E8851882851983F074011219A2E9D4
:10499000F0E4F508F5097808121BD97508027808C3
:1049A000121BD974041219AC880889097808121BE3
:1049B000D979FE1209F4740612196C740212196C7A
:1049C0000243788E828F831249CB22E0F8A3E0F96C
:1049D0002274F71219C6EAFEEBFF8908900346120B
:1049E000482D1212E8EA5402600BA908EEFAEFFB18
:1049F000120874800279017F01021A9874F2121968
:104A0000C674FE121956EAFEEBFF890A7401650AA4
:104A100060147402650A6003024AAB7901120C103B
:104A2000E96003024AABEEFAEFFB1209D6EA4B60EB
:104A3000031209DCA818A919880889097808121B2B
:104A4000D97508027509007808121BD97508157503
:104A500009827808121BD97CFF7DFF7A017B001246
:104A6000087A740612196C8038850882850983A338
:104A7000A3A3A3A3A3124AB5EEFAEFFB1212DCE440
:104A8000F50CF50D780C121BD974021219A2121B29
:104A9000F07CFF7DFFAA08AB091208867404121986
:104AA0006C8A088B09E508450970BE740212196CFE
:104AB0007F06021A98123CFF124ABC22E0FCA3E0D7
:104AC000FD2274F41219C68A088B09ECFEEDFF90E2
:104AD00016B6E0F4604B7A097B001213F0EA4B60E3
:104AE000408A828B8374B1F0A3E4124B24F08A8253
:104AF0008B83A3A3E508F0A3E509124B24A3EEF0F2
:104B0000A3EFF0740C1219A21249C78A828B83A3F7
:104B1000A3A3A3A3A3A3123EF09016B6E0F9121329
:104B2000FC022E2BF08A828B83A3A3A3A32274EE14
:104B30001219C674FA1219568A0A8B0BE9FF8C08EF
:104B40008D097E00850A0C850B0D780C121C1D004A
:104B500004100A4E764B994BB84BDB4BFE4B214C65
:104B6000524C754C8C4CBC4C6B4D8E4DB14DDF4D49
:104B70000A4E0A4EE54C74016F701985088285094A
:104B800083E0C39403500D850882850983E0901764
:104B9000A2F080027E18024E3274026F70158508F2
:104BA00082850983E0F8A3E0F99017A3E8F0A3E970
:104BB000F080027E18024E3274016F7019850882EF
:104BC000850983E0C39402500D850882850983E03E
:104BD00090076CF080027E18024E3274016F7019DB
:104BE000850882850983E0C39405500D8508828578
:104BF0000983E090076DF080027E18024E32740146
:104C00006F7019850882850983E0C39402500D8571
:104C10000882850983E090076EF080027E18024EBC
:104C20003274106F7027750C10750D00780C121B04
:104C3000D9AC08AD097A6F7B071213CC7402121934
:104C40006C8A0C8B0D850C82850D8380027E180288
:104C50004E3274016F7019850882850983E0C39410
:104C600002500D850882850983E090077FF080025D
:104C70007E18024E3274016F700D8508828509839B
:104C8000E09017A6F080027E18024E3274046F7016
:104C9000269081DB780C12181A85088285098378A2
:104CA0000C12163D50118508828509831218449014
:104CB000078112185080027E18024E32EF702112C6
:104CC0000778E97013121282E9F50D795012154632
:104CD000E9F50C121270800A9008147401F0800239
:104CE0007E18024E3274076F707C750E06750F00C9
:104CF000780E121BD9850882850983A3AC82AD8307
:104D000074021219B41213D2740212196C8A108B25
:104D10001185100E85110F7C007D00AA18AB198536
:104D20000882850983E0F9121210E9F50CE50CC33D
:104D3000940A502E120778E97015A90C121288E90E
:104D4000F50E7950121546E9F50D1212708019A86A
:104D50000C7900741528F582740839F5837401F014
:104D600080067E0280027E18024E3274016F701936
:104D7000850882850983E0C39402500D85088285E9
:104D80000983E0900780F080027E18024E327401A1
:104D90006F7019850882850983E0C3940A500D85D8
:104DA0000882850983E09017A5F080027E18024EE4
:104DB0003274016F7025850882850983E0C39407EA
:104DC0004019850882850983E0C39411500D850838
:104DD00082850983E09017A7F080577E188053746E
:104DE000016F7022900813E0F50C85088285098315
:104DF000E0900813F0E50C7039900813E06401703E
:104E000031121270802C7E188028C3E50A9427E5A1
:104E10000B9400501B74026F7016850882850983FD
:104E2000E0FCA3E0FDAA0AAB0B1205F8E9FE800244
:104E30007E02EEF9740612196C7F0A021A9874EC5D
:104E40001219C674DA121956890D8A128B138C0A3C
:104E50008D0B743A1219A2E0F50C90813FAC18AD9D
:104E6000197406121869AC18AD19AA12AB13A90D62
:104E7000121210E9FEEEC3940A4003024FB2EEF99B
:104E8000121252E9FF9017A2E064027004740180CC
:104E9000027400F5087808121BDDAD0CEFFCEEF98A
:104EA000AA0AAB0B1212C4740112196C7C147D0097
:104EB000790074121219B41213E48A0E8B0F850E46
:104EC00008850F0974121219BC7A1075F006EEA449
:104ED0002424F9121540E9703C7C1079FF741212F9
:104EE00019B4121444E9702D74221219A2AC82ADC7
:104EF000837A0475F006EEA42425F9121540E9F52D
:104F00000874121219BCEFA2E0E433F9AA0AAB0B41
:104F1000120682E9F874061219BC7A0C74702EF924
:104F2000121540E9707974061219B4121246750E02
:104F300000E50EC394045067A80E7900E875F003ED
:104F4000A4C8AAF075F000A42AFA75F003E9A42A0F
:104F5000F974061219A2E58228F508E58339F509E6
:104F6000850882850983E0F8A3E0F9E849602C858B
:104F70000882850983A3A3E0F5107511007810124B
:104F80001BD9850882850983E0FCA3E0FDAA0AAB52
:104F90000B1209FA740212196CE9F8050E8092EFEF
:104FA000A2E1500E90076BE0F9AA0AAB0B120A00BF
:104FB000E9F87404650C700F9017A2E064027007A2
:104FC000AA0AAB0B1212BE7900742612196C7F0C60
:104FD000021A9874F71219C6EAFEEBFF120778E975
:104FE0007067900814E06401701B121282E9F508E2
:104FF0009008147400F07C0A7D0079007A157B0813
:105000001213E48039750800E508C3940A502FA8EC
:10501000087900741528F582740839F583E0640175
:105020007018A908121288E9FAA8087900741528DE
:10503000F582740839F5837400F0050880CA795048
:10504000121546E9F5081212707F01021A9874F2DF
:105050001219C6890BEAFEEBFF8C088D09750A0A46
:10506000E50B600C1460091460441460640250F392
:10507000EEFAEFFB121264E9F50AE50AC3940A504E
:1050800072E5084509606C750C06750D00780C1208
:105090001BD9EEFCEFFDAA08AB091213CC74021267
:1050A000196C8A0C8B0D850C82850D838045EEFA78
:1050B000EFFB12125EE9F50AE50AC3940A5034E5E3
:1050C000084509602EAA08AB09A90A121258E980FE
:1050D00022EEFAEFFB12126AE9F50AE50AC3940A16
:1050E0005011E5084509600BAA08AB09A90A12127C
:1050F00058E9F8A90A7F06021A9874F21219C68AAA
:105100000C8B0DE9FF7E1574FF650C700474FF6550
:105110000D702A750800E508C3940A5014EFFC7A54
:10512000027B00A908121234E960027E00050880A3
:10513000E5EF60627AAC7B12120C348059AA0CAB9A
:105140000D120C048A0A8B0B850A08850B09E508E9
:10515000450960407C007D00E5082405FAE4350936
:10516000FB850882850983A3A3A3A3E0F91212108B
:10517000E9F50AE50AC3940A500EEFFC7A027B00B7
:10518000A90A121234E97E00EF600BAA08AB0912DB
:1051900012AC80027E14EEF97F06021A9874EE12A9
:1051A00019C68A0E8B0F8C0A8D0B74121219A2E08D
:1051B000F50CA3E0F50D75081574FF650E70047409
:1051C000FF650F701E7E00EEC3940A5061AC0CADFB
:1051D0000DAA0AAB0BEEF912123AE960037508004A
:1051E0000E80E4AA0EAB0F120C048A108B11AE10C5
:1051F000AF11EE4F60357C007D00EE2405FAE43FF0
:10520000FB8E828F83A3A3A3A3E0F9121210E9F50A
:1052100009E509C3940A5016AC0CAD0DAA0AAB0BF4
:10522000A90912123AE97508008003750814A90843
:105230007F0A021A9874F71219C6EAFEEBFF90076C
:1052400085EEF0A3EFF090076BE0FC7D007A267B03
:10525000001205F8E9F50890076BE0F91209647F80
:1052600001021A9874EE1219C68A108B11E9FF74A4
:10527000121219A2780C12181A7E00EF7041850CD8
:1052800008850D09850E0A850F0B9081DB780C12BD
:10529000181A7808790C1216EC7810121BD9AA0C7F
:1052A000AB0DAC0EAD0F120694740212196CE9FE30
:1052B000EE60177901AA10AB1112068EE9800BEF90
:1052C000F9AA10AB1112068EE9F8EEF97F0A021A5C
:1052D0009874F01219C674EC1219568A0C8B0D854D
:1052E0000C82850D83A3A3E024FA700302574A249D
:1052F000FD70030255BF1470030253C114601024E3
:10530000FD70030255671470030255FE02575DAE2F
:105310000CAF0D900785E0F8A3E0F9E849606690CE
:105320000785E0F8A3E0F5838882E0F8A3E0F9E8D8
:10533000496052EE240CF582E43FF583E0F50878ED
:1053400008121BDDEE240BF582E43FF583E0F98EB5
:10535000828F83A3A3A3A3A3A3A3A3A3E0FCA3E09F
:10536000FDEE2403FAE43FFB900785E0F8A3E0F5A7
:10537000838882E0F8A3E0F58388821219C474015F
:1053800012196C80398E828F83A3A3A3A3A3A3A336
:10539000A3A3121BF090078112183812069474020E
:1053A00012196CE9601879018E828F83A3A3A3A3DD
:1053B000A3A3A3A3A3E0FAA3E0FB12068EE902577E
:1053C0005DAE0CAF0D7508008E828F83A3E0600385
:1053D0000254E98E828F83A3A3A3A3A3E0A2E0409B
:1053E000030254E990081FE0F8A3E0F9E8496003DC
:1053F0000254E97C0E7D007900AA18AB191213E45F
:105400008A0A8B0BAA0AAB0BEE240CF582E43FF55B
:1054100083E0F8A3E0F9E8496036750A06750B00E9
:10542000780A121BD9EE240CF582E43FF583E024C0
:1054300010FCA3E03400FD74021219B41213CC74F2
:105440000212196C8A0A8B0B850A82850B83804FA6
:105450008E828F83A3A3A3E0FAA3E0FB120C048A3D
:105460000E8B0F850E0A850F0BE50A450B602D7517
:105470000E06750F00780E121BD9E50A2405FCE410
:10548000350BFD74021219B41213CC740212196C8C
:105490008A0E8B0F850E82850F83800302575D8EE7
:1054A000828F83A3A3A3A3A3E0A2E25004D2F0803F
:1054B00002C2F0A2F0E433F87900740C1219A2E0F1
:1054C00048F0A3E049F0EEFCEFFDAA18AB19121268
:1054D0004CE970127A027B0090076BE0F9121420FD
:1054E000E9790002575F750815900785E0F8A3E099
:1054F000F9E849606F900785E0F8A3E0F5838882BA
:10550000A3A3E0F8A3E0F9E84960598E828F83A352
:10551000E0FC79018E828F83A3A3A3E0FAA3E0FBD2
:10552000900785E0F8A3E0F5838882A3A3E0F8A3C1
:10553000E0F58388821219C4E5086028AC08790375
:105540008E828F83A3A3A3E0FAA3E0FB900785E0FC
:10555000F8A3E0F5838882A3A3E0F8A3E0F58388AD
:10556000821219C402575DAE0CAF0D900785E0F8AA
:10557000A3E0F9E8496045900785E0F8A3E0F583EA
:105580008882A3A3E0F8A3E0F9E849602F850C82A4
:10559000850D83A3E0FC79028E828F83A3A3A3E011
:1055A000FAA3E0FB900785E0F8A3E0F5838882A3E7
:1055B000A3E0F8A3E0F58388821219C402575DAE18
:1055C0000CAF0D7C007D00EE2404FAE43FFB8E82DC
:1055D0008F83A3A3A3E0F9121210E9F508E508C32D
:1055E000940A5017EE240AFCE43FFD7A0475F00695
:1055F000E508A42425F912153AE9F802575DAE0C26
:10560000AF0D900780E060199017A5E0F98E828FAA
:1056100083A3A3A3E0FAA3E0FB12068EE9F80257E6
:105620005D9017A2E0701679058E828F83A3A3A3E5
:10563000E0FAA3E0FB12068EE9F802575D8E828F36
:1056400083A3A3A3E0FAA3E0FB120C048A0A8B0B4A
:10565000850A08850B09E5084509700302575D8E28
:10566000828F83A3A3A3A3A3A3A3E0A2E0506D858D
:105670000882850983A3A3A3A3E060608E828F8341
:10568000A3A3A3A3A3A3A3A3A3E0F50AA3E0F50BFD
:105690007409780A121934E50A5401F8E50B54002C
:1056A000F9E8A2E04036740E1219BCE5082405FAA8
:1056B000E43509FB850882850983A3A3A3A3E0F948
:1056C000121210E9701679038E828F83A3A3A3E0D0
:1056D000FAA3E0FB12068EE9F802575DEE2405FC02
:1056E000E43FFD850882850983A3A3A3A3E0F98E87
:1056F000828F83A3A3A3E0FAA3E0FB1212B8900762
:1057000085E0F8A3E0F9E8496053900785E0F8A345
:10571000E0F5838882A3A3E0F8A3E0F9E849603DBF
:105720007C0079008E828F83A3A3A3E0FAA3E0FB21
:10573000900785E0F8A3E0F5838882A3A3E0F8A3AF
:10574000E0F58388821219C48013AE0CAF0D8E82EF
:105750008F83A3A3A3E0FAA3E0FB12120A790174DA
:105760001412196C7F08021A9874F51219C674F293
:105770001219568909EAFEEBFF8C0AAC18AD197AAA
:105780000E75F006E509A42420F9121540E9705FB2
:105790007C0679FFAA18AB19121444E97051740CF5
:1057A0001219A2E0F8A3E0F9E8F508E50A6005EEB1
:1057B00042088004EEF45208A8087900740C12190B
:1057C000A2E0687003A3E0696021A8087900740C66
:1057D0001219A2E8F0A3E9F0AC18AD197A0E75F031
:1057E00006E509A42420F912153AE9790180027925
:1057F00000740E12196C7F03021A9874F01219C605
:1058000074E6121956890B8A0C8B0DECFEEDFF74B1
:105810000C1219BC7A0E75F006E50BA42420F912BF
:105820001540E9600302592B7C0679FF740C1219AC
:10583000B4121444E9600302592BAC18AD197A0C68
:105840007470250BF9121540E96003025927750A97
:1058500000AA18AB19121246E50C450D702E7C0CEF
:105860007900AA18AB19121444E9600302590D7C9F
:105870000C7D007900AA18AB191213E48A088B0971
:10588000850882850983750A0102590DAC18AD1986
:10589000AA0CAB0D1212408A0E8B0F850E08850FD5
:1058A00009E50845097030EE4F601BAC18AD197A58
:1058B000007B001212408A0E8B0FA80EA90F8808D9
:1058C0008909E84970047900806385088285098325
:1058D000E50CF0A3E50DF0850882850983A3A3E01C
:1058E000F87900EE687002EF696022EEC0E085088A
:1058F00082850983A3A3D0E0F0EE4F700D85088266
:105900008509837400F0A37400F0750A01E50A604C
:1059100016AA18AB19121246AC18AD197A0C74708D
:10592000250BF912153AE9790180027900741A12EF
:10593000196C7F08021A9874F61219C68A088B0926
:105940007E00EEC394045050EEF87900E875F00341
:10595000A4C8AAF075F000A42AFA75F003E9A42AF5
:10596000F9EC28F582ED39F583E065087004A3E0D1
:1059700065097021EEF87900E875F003A4C8AAF073
:1059800075F000A42AFA75F003E9A42AF9EC28FAC4
:10599000ED39FB80070E80AA7A007B007F02021A95
:1059A0009874F71219C67C00ECC394044003025AA1
:1059B00050ECF87900E875F003A4C8ADF075F0007C
:1059C000A42DFD75F003E9A42DF9EA28F582EB3941
:1059D000F583E0F4FEA3E0F4FFECF87900E875F05D
:1059E00003A4C8ADF075F000A42DFD75F003E9A483
:1059F0002DF9EA28F582EB39F583EEF0A3EFF0EC10
:105A0000F87900E875F003A4C8ADF075F000A42D96
:105A1000FD75F003E9A42DF9EA28F582EB39F58349
:105A2000A3A3E0F4C0E0ECF87900E875F003A4C8A3
:105A3000ADF075F000A42DFD75F003E9A42DF9EA91
:105A400028F582EB39F583A3A3D0E0F00C0259A826
:105A50007F01021A9874F01219C674F4121956EAEA
:105A6000FEEBFF8C088D0990081FE0F8A3E0F9E831
:105A700049702CEE4F6006E5084509700579010272
:105A80005D01EEFAEFFB121264E99017A8F090178F
:105A9000A8E0C3940A4008121276E99017A8F09083
:105AA00017A8E0C3940A4003025CFF90081FE0F8C7
:105AB000A3E0F9E8496003025B4BEEFCEFFD7A0ED0
:105AC00075F0069017A8E0A42420F912153AE9F51C
:105AD0000C7C0C7D0079FFAA18AB191213E48A0E16
:105AE0008B0F850E0A850F0BAC18AD197A0C901729
:105AF000A8E02470F912153AE9F50D750E0E750F30
:105B000000780E121BD9EEFCEFFD9017A8E0F87993
:105B100000E875F00EA4C8AAF075F000A42AFA7582
:105B2000F00EE9A42AF9748728FA740739FB1213D6
:105B3000CC740212196C8A0E8B0FA80EA90F900854
