:10000000020782C2AFF5088138FFFFC2AFF5088151
:100010004AFFFFC2AFF508815CFFFFC2AFF5088160
:100020006EFFFFC2AFF5088180FFFFC2AFF5088108
:1000300092FFFFC2AFF50881A4FFFFC2AFF50881B0
:10004000B6FFFFC2AFF50881C8FFFFC2AFF5088158
:10005000DAFFFFC2AFF50881ECFFFFC2AFF5088100
:10006000FEFFFFC2AFF508A110FFFFC2AFF508A168
:1000700022FFFFC2AFF508A134FFFFC2AFF508A110
:1000800046FFFFC2AFF508A158FFFFC2AFF508A1B8
:100090006AFFFFFF758701002274FC120748750A8A
:1000A00004750B00780A12077174021207B77A0000
:1000B0007B007908120580740212072D850D828558
:1000C0000E83E0F47003A3E0F47003020210850DC8
:1000D00082850E83E0F8A3E0F9E84970030202107C
:1000E00074021207ADE0687003A3E069701075092F
:1000F00001024060C2AF75C9AB75C95B80FE53BEDB
:10010000FBE59DA2E650FAE5C654804449F5C6E5F4
:100110009E547F644970F853C67FE59EA2E740FA7B
:1001200053C680E59E547F70FA43BE04906270749B
:1001300008F075FD1C75FE0775FF01758F2075F6BB
:100140000875F700750A00F50B780A1207717C80B4
:100150007D017A007B007908120580740212072D58
:10016000900186E0F50AA3E0F50B7409780A1207FE
:1001700091E50A2408FF53B4F375BC0075BC007CFC
:10018000FC7D077A047B0079081203A77E09EFC380
:10019000940A401C800774086E70027E4E7C007DBD
:1001A000087A007B00EEF91203A70EEEC39F40E62B
:1001B000A8BD850D82850E83E8F9E5BCF8E068707E
:1001C00003A3E069704A850D82850E83E0F8A3E001
:1001D000F974021207ADE8F0A3E9F0850D82850EEF
:1001E0008374FFF0A3F07409F5D575D480750A0106
:1001F000780A12077174021207B77A007B10120690
:1002000006740212072DC2AF75C9AB75C95B80FEBB
:10021000750A04780A12077174021207B77A007B14
:10022000007901120580740212072D850D82850E5A
:1002300083E0F47003A3E0F47003020397850D825A
:10024000850E83E0F8A3E0F9E84970030203977490
:10025000021207ADE0F8A3E0F9850D82850E83E078
:10026000687003A3E0697010750900020860C2AFEE
:1002700075C9AB75C95B80FE74FF68700374FF6954
:10028000600302039753BEFBE59DA2E650FAE5C664
:1002900054804449F5C6E59E547F644970F853C6BE
:1002A0007FE59EA2E740FA53C680E59E547F70FA30
:1002B00043BE049062707408F075FD1C75FE0775EE
:1002C000FF01758F2075F60875F700750A00F50BAC
:1002D000780A1207717C807D017A007B0079011217
:1002E0000580740212072D900186E0F50AA3E0F55F
:1002F0000B7409780A120791E50A2447FF53B4F3F7
:1003000075BC0075BC007CFC7D077A047B0079011C
:100310001203A77E02EFC39403401C800774086E8B
:1003200070027E4E7C007D087A007B00EEF912039D
:10033000A70EEEC39F40E6A8BD850D82850E83E81B
:10034000F9E5BCF8E0687003A3E069704A850D82A6
:10035000850E83E0F8A3E0F974021207ADE8F0A37C
:10036000E9F0850D82850E8374FFF0A3F07409F522
:10037000D575D480750A01780A12077174021207C4
:10038000B77A007B02120606740212072DC2AF75FF
:10039000C9AB75C95B80FE43BE03120094C2AF7542
:1003A000C9AB75C95B80FE74F712066CE9FEAFC776
:1003B000740F5EF50A750B00740B780A12075EEA7B
:1003C0002400F8EB350BF9E82400E93480F9A2AFFA
:1003D000E433F50AC2AFEEC4540FFAE5C754F84A45
:1003E000F5C7E9900980F0E8A3F0A37470F0A37456
:1003F000BDF0EC900985F0900984E054E0F0EDFC4C
:10040000E04CF09009867420F0A37442F07409F572
:10041000D575D48075D601000000000000000000F2
:10042000000075D701E5D7A2E040FA8FC7E50AA220
:10043000E092AF7F020206D2E5096007E508D2AF7D
:10044000024063E508D2AF020863E5096007E508EA
:10045000D2AF02406BE508D2AF02086BE509600736
:10046000E508D2AF024073E508D2AF020873E50990
:100470006007E508D2AF02407BE508D2AF02087BF7
:10048000E5096007E508D2AF024083E508D2AF0274
:100490000883E5096007E508D2AF02408BE508D282
:1004A000AF02088BE5096007E508D2AF024093E58B
:1004B00008D2AF020893E5096007E508D2AF024011
:1004C0009BE508D2AF02089BE5096007E508D2AFBB
:1004D0000240A3E508D2AF0208A3E5096007E508DA
:1004E000D2AF0240ABE508D2AF0208ABE509600726
:1004F000E508D2AF0240B3E508D2AF0208B3E50980
:100500006007E508D2AF0240BBE508D2AF0208BBE6
:10051000E5096007E508D2AF0240C3E508D2AF02A3
:1005200008C3E5096007E508D2AF0240CBE508D271
:10053000AF0208CBE5096007E508D2AF0240D3E57A
:1005400008D2AF0208D3E5096007E508D2AF024040
:10055000DBE508D2AF0208DBE5096007E508D2AFAA
:100560000240E3E508D2AF0208E3E5096007E508C9
:10057000D2AF0240EBE508D2AF0208EB0002057CE7
:1005800074F612066C890C740F550CF50A750B0085
:10059000740B780A12075EEA2400F8EB3480F9E85D
:1005A0002400E9350BF985C70BA2AFE433F50AC285
:1005B000AFE50CC4540FFAE5C754F84AF5C7740AFE
:1005C0001207ADE0FEA3E0FFEE4F602CEEFAEFFB6A
:1005D00088828983E08C828D83F088828983A3A8B6
:1005E00082A9838C828D83A3AC82AD83EA24FF1A17
:1005F000EB34FFFBEA4B70D8850BC7E50AA2E0920B
:10060000AF7F030206D274F712066CED900980F0FA
:10061000ECA3F0A37462F0A37473F0A3E0541FF092
:1006200074091207ADE0F50AA3E0F50BE50A3333D0
:1006300054FC900985F07406780A120791E50A9037
:100640000984F09009867412F0A37442F075D11EEB
:1006500075D601EA906271F0EBA3F0906270E0D27F
:10066000E1F0E0A2E740FB7F020206D2250DC58241
:10067000C0E0E50E34FFC583C0E0E50DC3958224DC
:10068000F910AF0885830E85820D800885830E855D
:10069000820DD2AFCEF0A3E520F0A3780AE608F0F1
:1006A000A3DEFAEFF0A3E58124FBF8E608F0A3E669
:1006B00008F0A30808E608F0A3E608F0A3158115E2
:1006C00081D0E0FED0E0F815811581E8C0E0EEC0F1
:1006D000E022850E83850D82E0A3FEE0A3F520785D
:1006E0000AE0A3F608DFFAE0A3FFE0A3C0E0E0A37E
:1006F000C0E0E0A3C0E0E0A3C0E010AF0885820D39
:1007000085830E800885820D85830ED2AFD083D07D
:100710008222250DF58210AF08F50D400C150E80D4
:1007200008F50D4002150ED2AF850E832200C0D011
:10073000250D10AF08F50D500C050E8008F50D5075
:1007400002050ED2AFD0D022250D10AF08F50D4016
:100750000C150E8008F50D4002150ED2AF22700464
:1007600022600D18C6C333C608C633C6D5E0F418D8
:100770002274028000C0E0F404120712D0E01207D5
:10078000A02275D00075813F750D80750E0102079E
:10079000BF600C08C6C313C618C613C6D5E0F42242
:1007A000CAC0E0E6F0A308DAFAD0E0FA22250DF597
:1007B00082E4350EF58322250DFCE4350EFD221270
:1007C00000991207C500000080FBFFFFFFFFFFFF3D
:1007D000FFFFFFFFFFFFFFFFFFFFFFFFFFFFFFFF29
:1007E000FFFFFFFFFFFFFFFFFFFFFFFFFFFFFFFF19
:1007F000FFFFFFFFFFFFFFFFFFFFFFFFFFFFFFFF09
:10080000FFFFFFFFFFFFFFFFFFFFFFFFFFFFFFFFF8
:10400000ADDAADDA0100008C42424242FFFFFFFF11
:10401000FFFFFFFFFFFFFFFFFFFFFFFFFFFFFFFFB0
:10402000000102030405060708090A0BFFFFFFFF52
:10403000FFFF0500007C42424242FFFFFFFFFFFFFF
:10404000FFFFFFFFFFFFFFFFFFFFFFFFFFFF00017D
:1040500002030405060708090A0BFFFFFFFFFFFF25
:1040600002460F025475FFFFFFFFFFFFFFFFFFFF38
:10407000FFFFFFFFFFFFFFFFFFFFFFFFFFFFFFFF50
:10408000FFFFFFFFFFFFFFFFFFFFFF025C22FFFFBD
:10409000FFFFFF025BF9FFFFFFFFFF025C4BFFFF2B
:1040A000FFFFFF025B70FFFFFFFFFFFFFFFFFFFF50
:1040B000FFFFFF0254EBFFFFFFFFFFFFFFFFFFFFCC
:1040C000FFFFFFFFFFFFFFFFFFFFFF025B99FFFF07
:1040D000FFFFFFFFFFFFFFFFFFFFFF025BC1FFFFCF
:1040E000FFFFFF0252CB0112416363656C2E204437
:1040F000617461000A416363656C2E20436F6E66D4
:104100002E000A64416363656C2E20506572696FEE
:104110006400025E840100004184025A84010000B0
:104120008017027C84010000C20202568403000052
:10413000C7020258840100008117025A840100005E
:104140008D17027E84030000C9020258840100001A
:104150008E17025A840100009B17027A8403000024
:104160009C170258840100009D17110199010F123C
:10417000640400AD270111310401025E84010000D6
:104180003284025A8401000008180276840100007B
:104190000918025684030000D2020246840100007E
:1041A00011180254840100000A18FF0000B4000036
:1041B00028002800283075A000A000A000A0000062
:1041C000080008E001F000100010001000100010BE
:1041D00000100050005000500010001000D00700E8
:1041E00000000000000F00010005003075070010FE
:1041F00000010081FF00000000FFFFFF135F315F3F
:10420000195F555FFF02020208025000A000000083
:10421000E803025E840100003584025A8401000034
:104220009E180252840100001A03025A8401000001
:104230009F180250840100003003025A84010000DC
:10424000A018024E840100003203025A84010000CB
:10425000A118024C840800003303025A84010000B4
:10426000A218024A84010000A318FF0100FF1700F2
:10427000FB67FB67FB67FB67FB67FB67FB67FB672E
:10428000FB67FB67FB67FB67FB67DD6AEF6AD76A63
:1042900012436F6E6E2E20506172616D7300084381
:1042A0006F6E6E2E20506172616D732052657100C9
:1042B00008446973636F6E6E6563742052657100A4
:1042C000025E840100003B84025A84010000291927
:1042D00002728401000086070256840300008C07E6
:1042E0000258840100002A19025A8401000037197B
:1042F0000270840200008E07025884010000381901
:10430000025A840100004919026E840200009607D7
:104310000258840100004A191C025E840100003822
:1043200084025A84010000B11910EE810200009F3E
:1043300007025684030000A1070258840100003FD1
:1043400082025A84010000B11910FE81020000A00F
:1043500007025684030000A307025884010000539B
:1043600082FFFF0C092D447261676F6E466C792DD8
:10437000051250002003020A000201054472616721
:104380006F6E466C795F76305F303400E803E80387
:10439000E96D0000EF6DF56DFB6D016E1245766500
:1043A0006E742E204461746100025E840100002F4F
:1043B00084025A84010000351A026A84010000ED6B
:1043C00007025684030000EE0702588401000036FD
:1043D0001A01E8030577100A54010D0A0350101062
:1043E000100300000080000000124C75786F6D65AE
:1043F0007465722E2044617461000A4C75786F6D8B
:10440000657465722E20436F6E662E000A644C75CB
:10441000786F6D657465722E20506572696F6400E7
:10442000025E84010000ED82025A84010000821ABB
:10443000026284010000D90A025684030000E10AE6
:10444000025884010000831A025A84010000931A62
:10445000026484030000E30A025884010000941AF5
:10446000025A84010000A51A026684030000A61AFD
:10447000025884010000A71A1C025E840100003E5D
:1044800084025A84010000111B10AE81020000E476
:104490000A025684030000E60A025884010000B4B0
:1044A00082025A84010000111B10BE81020000E547
:1044B0000A025684030000E80A025884010000C181
:1044C00082FFFFFFFFFF00013075030201060000BD
:1044D00000000000000000000000000000000000DC
:1044E00000000000000000000000FFFF0600800C3C
:1044F000E80312576561746865722E204461746127
:10450000000A576561746865722E20436F6E662ECF
:10451000000A64576561746865722E20506572697F
:104520006F6400025E840100002C84025A84010042
:10453000008B1B0282840100007517025684030061
:10454000007D170258840100008C1B025A84010070
:10455000009A1B0284840300007F17025884010024
:10456000009B1B025A84010000AA1B0286840300E0
:1045700000AB1B025884010000AC1BE5C754F84493
:1045800004F5C779012200000080FB12457BB900C9
:10459000030245F9E479217808B800028004F7099C
:1045A000D8FCE479297802B800028004F709D8FC25
:1045B000E49002C278BF79158002F0A3D8FCD9FA42
:1045C000781C9040E67A01BA00028007E493A3F6D3
:1045D00008DAF97A807B179040E77895790580159D
:1045E000E493A3AD82AE838A828B83F0A3AA82ABCD
:1045F000838D828E83D8E9D9E77582127583D3744F
:104600000412462175828675834574001246217511
:10461000D00075813F751AC2751B02759F00024557
:104620008BC09FF59FE473D09F22D083D082C09F20
:10463000E493C0E0740193C0E0740293F59F22E01C
:1046400066701008A3E066700A08A3E066700408AC
:10465000A3E06622C00AC3E096F50A08A3E09642EA
:104660000A08A3E096420A08A3E096420AA2D2658D
:10467000D033E50A7001D3D00A22C3E7960809E7D0
:10468000960809E7960809E79622C3E09608A3E092
:104690009608A3E09608A3E09622C00AC3E096F528
:1046A0000A08A3E096420A08A3E096420A08A3E09B
:1046B00096450A7001D3D00A22080808EAC0E0EB48
:1046C000C0E086F0E7A4FA180986F0E7A42AFA18F1
:1046D0000986F0E7A42AFA180986F0E7A42AFA194D
:1046E00086F0E7A4FBE5F02AFA190886F0E7A42B88
:1046F000FBE5F03AFA190886F0E7A42BFBE5F03A5F
:10470000FA18180986F0E7A4C5F02BFBE43AFA1969
:1047100008E7C5F0C6A426F6E5F03BFBE43AFA1834
:1047200086F0E7A4F6E5F00826F6E43B08F6E43A5E
:1047300008F6D0E0FBD0E0FA22E4CFC0E0E4CEC03F
:10474000E0E4CDC0E0E4CCC0E075F020E626F60859
:10475000E633F608E633F608E633F6181818EC33B5
:10476000FCED33FDEE33FEEF33FFC3EC9709ED971D
:1047700009EE9709EF97191919400FFFEC97FC09FB
:10478000ED97FD09EE97FE191906D5F0BFECF70974
:10479000EDF709EEF709EFF7191919D0E0FCD0E0B1
:1047A000FDD0E0FED0E0FF226017080808C6A2E7AF
:1047B00013C618C613C618C613C618C613C6D5E046
:1047C000E9226016080808C6C313C618C613C6181F
:1047D000C613C618C613C6D5E0EA22700908080831
:1047E000226016181818C6C333C608C633C608C6D2
:1047F00033C608C633C6D5E0EA22E627F60809E63E
:1048000037F60809E637F60809E637F622E026F615
:1048100008A3E036F608A3E036F608A3E036F62251
:10482000E026F008A3E036F008A3E036F008A3E0A5
:1048300036F022C3E697F60809E697F60809E697E8
:10484000F60809E697F622C3E0C696F608A3E0C686
:1048500096F608A3E0C696F608A3E0C696F622C32D
:10486000E096F008A3E096F008A3E096F008A3E035
:1048700096F022E657F60809E657F60809E657F6D5
:104880000809E657F622E056F608A3E056F608A314
:10489000E056F608A3E056F622E056F008A3E056EC
:1048A000F008A3E056F008A3E056F022E647F60829
:1048B00009E647F60809E647F60809E647F622E062
:1048C00046F608A3E046F608A3E046F608A3E0464D
:1048D000F622E0F608A3E0F608A3E0F608A3E0F667
:1048E00022E6F008A3E6F008A3E6F008A3E6F0222B
:1048F000E0FAA3E0FBA3E0FCA3E0FD22EAF0A3EBD7
:10490000F0A3ECF0A3EDF022E0F8A3E0F9A3E0FAC5
:10491000A3E0FB22E8F0A3E9F0A3EAF0A3EBF02286
:10492000CAC0E0E6F0A308DAFAD0E0FA22CAC0E092
:10493000E0A3C582CCC582C583CDC583F0A3C58263
:10494000CCC582C583CDC583DAE6D0E0CA22C3E4F4
:1049500098F8E499F912498F8026C3E49AFAE49B07
:10496000FBE920E7E912498FE498F8E499F922C3BA
:10497000E498F8E499F912498FE498F8E499F9C3B6
:10498000E49AFAE49BFB22EB20E7CFE920E7E0B9C9
:104990000010BB0008E88AF084F8AAF022E4FBC803
:1049A000FA22EB70227B10C833C8C933C9335007D1
:1049B000C39AC3DBF280069A50012ADBEAC833F4BB
:1049C000C8C933F4C9FA2275F008E4C833C8C9333A
:1049D000C933C99AC99B5004C92AC93BD5F0ECFB1D
:1049E000C833F4C8E4C9FA22600D08C6A2E713C6AA
:1049F00018C613C6D5E0F322600C08C6C313C61848
:104A0000C613C6D5E0F422700422600D18C6C33365
:104A1000C608C633C6D5E0F41822251A10AF08F52B
:104A20001A400C151B8008F51A4002151BD2AF2244
:104A300000C0D0251A10AF08F51A500C051B8008CD
:104A4000F51A5002051BD2AFD0D022251AF58210DC
:104A5000AF08F51A400C151B8008F51A4002151B0B
:104A6000D2AF851B8322251AF582E4351BF58322FC
:104A7000251AF8E4351BF922251AFAE4351BFB2226
:104A8000251AFCE4351BFD22E473251AC582C0E01B
:104A9000E51B34FFC583C0E0E51AC3958224F810F6
:104AA000AF0885831B85821A800885831B85821A3F
:104AB000D2AFCEF0A3E520F0A3780AE608F0A3DE9B
:104AC000FAEFF0A3E58124FAF8E608F0A3E608F08F
:104AD000A3E608F0A30808E608F0A3E608F0A3158B
:104AE000811581D0E0FED0E0F8158115811581E8AF
:104AF000C0E0EEC0E022251AC582C0E0E51B34FF0D
:104B0000C583C0E0E51AC3958224F910AF088583F8
:104B10001B85821A800885831B85821AD2AFCEF04E
:104B2000A3E520F0A3780AE608F0A3DEFAEFF0A3ED
:104B3000E58124FBF8E608F0A3E608F0A30808E600
:104B400008F0A3E608F0A315811581D0E0FED0E0BF
:104B5000F815811581E8C0E0EEC0E022851B838551
:104B60001A82E0A3FEE0A3F520780AE0A3F608DFAE
:104B7000FAE0A3FFE0A3C0E0E0A3C0E0E0A3C0E050
:104B8000E0A3C0E0E0A3C0E010AF0885821A8583EF
:104B90001B800885821A85831BD2AFD083D0820206
:104BA0004627851B83851A82E0A3FEE0A3F52078C3
:104BB0000AE0A3F608DFFAE0A3FFE0A3C0E0E0A369
:104BC000C0E0E0A3C0E0E0A3C0E010AF0885821A17
:104BD00085831B800885821A85831BD2AFD083D042
:104BE0008222C0D0251AC582C0E0E51B34FFC583F0
:104BF000C0E0E51AC3958224F310AF0885831B85B6
:104C0000821A800885831B85821AD2AFC8F0A3E977
:104C1000F0A3EAF0A3EBF0A3790AE709F0A3D8FA2E
:104C2000ECF0A3EDF0A3EEF0A3EFF0A3D0E0F0A33F
:104C3000D0E0F0A3D0E0F0A3E520F0A3E5F0F0A3EE
:104C400022851B83851A82E0C0E0A3E0F9A3E0FA85
:104C5000A3E0FBA3780AE0F608A3DFFAE0FCA3E0F8
:104C6000FDA3E0FEA3E0FFA3E0C0E0A3E0C0E0A35B
:104C7000E0F5D0A3E0F520A3E0A3F5F010AF0885A0
:104C8000831B85821A800885831B85821AD2AFD048
:104C900082D083D0E0F8D0E03274048006740280C1
:104CA000027401C0E0F404124A4BD0E01249202201
:104CB0007404800474028000CCC0E0EDC0E0E51A0A
:104CC000C39CCCAD1B50011D10AF068C1A8D1B80F0
:104CD000068C1A8D1BD2AF12492DD0E0FDD0E0FC1E
:104CE00022D083D082E9C0E0E493A3C386F0C5F06C
:104CF00095F0F908E493A386F0C5F095F0700BE405
:104D000093A3C3994005E9048002A3E475F002A4CB
:104D10002582F582E5F03583F583D0E0F9E493A3AD
:104D2000C0E0E493C0E022D083D082ECC0E0EDC0CC
:104D3000E0E493A3FCE493A3FDED4C600D124D73EE
:104D4000EC24FFFCED34FFFD80EFE493A3FCE4933F
:104D5000A3FDED4C600D124DB2EC24FFFCED34FFD1
:104D6000FD80EFD0E0FDD0E0FCE493A3C0E0E4934D
:104D7000C0E022C0E0C3E493960874019396184003
:104D80000FE4936670080874019366187000701938
:104D9000A3A3C3E49396087401939618A3A3400DAC
:104DA000D0E0D0E0D0E0024D63A3A3A3A3A3A3D09F
:104DB000E022C0E0C0F088F0E49366700808740157
:104DC0009366187000A8F0A3A3700BD0F0D0E0D0C9
:104DD000E0D0E0024D63A3A3D0F0D0E022FFFFFFBC
:104DE00074F6124AF6EAFEEBFF8C0A8D0BEE2434C1
:104DF000F8E43FF9E8FCE9FDEE243512511AFAEE29
:104E0000243712511AF8850AF0A4C885F00C850BD6
:104E1000F0A4250CF9EA28F8E439F97A257B001288
:104E2000498FEA8C828D83F0FA131313541FF8EE26
:104E300028F8E43FF9E8245DF582E439F583E0C021
:104E4000E074075AF8D0E0B800028004C313D8FC1D
:104E5000A2E0EE50082434F582E43F801824361294
:104E6000511AF5F0EA84A8F0EE28F8E43FF9E824B6
:104E700038F582E439F583E0F97F03024BA274F739
:104E8000124AF6EAFEEBFFEE243412511AC0E0EEAD
:104E90002435F582E43FF583D0E0F08E828F83A342
:104EA000A3A3A3A3A3A3C082C0838E828F83A3A343
:104EB000A3A3A3124F83D083D082E0C398F50AA3A3
:104EC000E099F50BEE247F12511A6401705DEE2417
:104ED00080124F7D8E828F83A3A3A3A3A3A3A312CB
:104EE00052BD8E828F83A3A3A3A3A3E0FAA3E0FB0A
:104EF000C3EA9CEB9D5010C3EC98ED99402DC3EA9A
:104F000098EB995026800EC3EA98EB994007C3ECC2
:104F100098ED9940167C0B7D05EEFAEFFB12673594
:104F2000EE247FF582E43FF583E4F0AC0AAD0BEEAE
:104F3000FAEFFB124DE0E9F9125B627F02024BA22D
:104F4000C082C083851A82851B83124F83C3EA9C6B
:104F5000EB9D5010C3EC98ED99401BC3EA98EB9978
:104F60005014800EC3EA98EB994007C3EC98ED9972
:104F70004004790180027900D083D08222F582E456
:104F80003FF583E0F8A3E0F922EAC39CFAEB9DFB2E
:104F90002274EF124AF69003D1E064086005E064E1
:104FA00007702A9061C8E060249003FFE0F4601D60
:104FB000E0F875F00AA4C8AAF02AF9740128FE7472
:104FC0000439FF8E828F83A3A3A3E0700302509F56
:104FD000906060E0C0E0EE2468F582E43FF583D0A5
:104FE000E0F0750E7B750F05750A00750B00E5D9AD
:104FF00014F50CE5D95403F51060127403651060C4
:1050000043E50C600AEE246712511A700280759015
:105010000576E06401601F12511760047A04800273
:105020007A00E50CC39AFA95E0FB1264DD8A0A8BDC
:105030000BEA450B700512698D80641251177004DC
:105040008A0E8B0FE50C6012850E82850F83F50D9D
:10505000E5D9F0A3150DE50D70F6125117604474F3
:10506000FC250CF50C780E124C9DAC0CA910EEFA38
:10507000EFFB1267F57402124A30E97026AA0AABF8
:105080000B1271C7793D8E828F83A3A3A3A3E0FA8D
:105090007B00126309EEFAEFFB1267591268077979
:1050A00000806F740365106051850C1275130078D1
:1050B00012124C9DAC0EAD0FAA0AAB0B1267B9745D
:1050C00002124A30EE246812511A64807004747F10
:1050D0008001E0F50E780E124CA1E510F50E780E69
:1050E000124CA1A90CAC0AAD0B9003FFE0FA7B00B7
:1050F0001262DF7402124A3080139003D1E0640818
:10510000600BAC0EAD0FEEFAEFFB126879126999E5
:1051100079017F0A024BA2EE2482F582E43FF583F7
:10512000E02274F2124AF674FC124A1AEAFEEBFF0D
:10513000890BA2AFE433F50AC2AF0251DEE0601B77
:10514000780E124C9DAC0DA910EEFAEFFB1267EF32
:105150007402124A307404250DF50D7401250DF505
:10516000D98510D9E50D6018F50C850E82850F8361
:10517000E0F5D9A385820E85830F150CE50C70EA46
:1051800075E195EE2463F8E43FF97A007B00A2AF65
:10519000E433F50DC2AF1252B9EC4D60328882890A
:1051A00083E0FAA3E0FB8A828B831252BD88828956
:1051B00083ECF0A3EDF08A828B83E4F0A3F012522B
:1051C000B9EC4D700A88828983A3A3E4F0A3F0E5CB
:1051D0000DA2E092AF1271C7900512E004F0EE2428
:1051E00063124F7DE8496064EE246312511A240271
:1051F000F8A3E03400F988828983E5822402F50E61
:10520000E43583F50FE0F50DA3E0F510EE2462120E
:10521000511A640170369061D0E0F81251176004A1
:105220007C0480027C007480C398FA95E0FBE50D55
:105230002CF8E43400F9E82402F8500109C3EA9894
:10524000EB99A2D265D033400302513D900512E0A4
:10525000604D900513E0F8900512E0C398500C746F
:1052600002650B703A900514E060348E828F83A340
:10527000A3A3A3E0851A82851B831252AF74021286
:105280004A66E81252AF900511E028F07402124A03
:1052900080AA1AAB1B7901126339900512E4F0E57C
:1052A0000AA2E092AF7404124A307F07024BA2F0C8
:1052B000A3E4F0900512E0F82288828983E0FCA341
:1052C000E0FD22FF8521878522C622C0E074EB1213
:1052D0004BE2A2AFE433F50AC2AF759B0090618246
:1052E000E0A2E05030E591A2E0502A7591FE7401F1
:1052F0006521702112545E1268C712544C124CB0D2
:1053000012590C7404124A30E964017005790112D3
:10531000690F124F91906182E0A2E5505DE591A284
:10532000E550577591DF9003D1E064076005E064B4
:1053300008702F12545E74016521703E1268C71206
:10534000544C124CB012590C7404124A30E96401E6
:105350007005790112690F7901EEFAEFFB12512203
:105360008018E0640D70139003F3E004F06428707B
:1053700002E4F07A00E0F91269B7906182E0A2E6F7
:105380004003025421E591A2E640030254217591A5
:10539000BF9003D1E0640570081268AF1268BB804B
:1053A000031268B575210012691BE99003D2F079E8
:1053B0000012690F1266997A017B009003D0E0F920
:1053C000127197907803E06442705690057AE01469
:1053D000F0704EC2AF1253D800782AD0E0F618D041
:1053E000E0F6E59F5407F87005750FFF8003750F11
:1053F0007FC4C0E07829E6F50C08E6550FF50D747A
:105400000B780C1249F8D0E0250CF8906270E0A2FD
:10541000E740F8E8C333906272F0906270E0D2E047
:10542000F0906181E0A2E35009E5E9A2E350037541
:10543000E9F7A3E0A2E75009E591A2E750037591CF
:105440007FE50AA2E092AF7F08024C418E828F83F3
:10545000E0F8A3E0C82416F582E438F5832290032F
:10546000FFE0F875F00AA4C8AAF02AF9740128FE32
:10547000740439FF22C0E0C0D0C082C08390618331
:10548000E0A2E05009E5BFA2E0500375BFFEE0A234
:10549000E15009E5BFA2E1500375BFFDE0A2E25073
:1054A00009E5BFA2E2500375BFFBE0A2E35009E5A6
:1054B000BFA2E3500375BFF7E0A2E45009E5BFA225
:1054C000E4500375BFEFE0A2E55009E5BFA2E55047
:1054D0000375BFDFE0A2E65009E5BFA2E650037501
:1054E000BFBFD083D082D0D0D0E032C0E074F212FF
:1054F0004BE2E5A7A2E6500FE5A1A2E6500953A7AB
:10550000BF75A1BF12553FE5A7A2E5500CE5A1A2CA
:10551000E5500653A7DF75A1DFE5A7A2E15009E535
:10552000A1A2E1500375A1FDE5A7A2E2500CE5A1FF
:10553000A2E2500653A7FB75A1FB7F01024C417408
:10554000F7124AF67521019003D1E0640670151236
:10555000682B8A828B83A3A3A3A3A3A3E0FAA3E06F
:10556000FB12689DA2AFE433FED2AF9003D7E06494
:105570000170187A207B009003D0E0F91272B17AA2
:10558000207B009003D0E0F912719D906182E0D2FF
:10559000E6F0900577E0602185C62280169003D65C
:1055A000E064017008E5C654F84405F5C653BEFC36
:1055B0001252C47401652160E4EEA2E092AF7F0252
:1055C000024BA2FF8E238F24858228858327851A8C
:1055D00082851B83E0CEA3E0CF852882852783EBDD
:1055E000C9EAC8EDCBECCA75F010C3E833C8E9339B
:1055F000C9EA33CAEB33CBC3EA9EF526EB9FF52508
:10560000B35004AB25AA26EC33CCED33CDD5F0DA7C
:10561000AE23AF242274E9124AF674FA124A1AEA47
:10562000FEEBFF8C0C8D0D1268D3EAF8EBF9ECFA67
:10563000EDFB8E828F831249149003D1E024F7C3CF
:105640009405500675160102577C12682B8A0A8B46
:105650000BEA450B7003025779EEFCEFFDAA1AAB7B
:105660001B1268CD850A82850B83A3A3780E12488E
:10567000D2908380780E124886851A82851B8378A3
:10568000121248D29083807812124886780E7912CE
:1056900012467A501F780E79121248339083487858
:1056A0000E12469A4047850E16850F1785101885ED
:1056B0001119804590834885121685131785141893
:1056C0008515197816790E124833781612469A50B5
:1056D0001C75160075170075180075190178167974
:1056E000121248337816790E1247FA800C7516019B
:1056F000751700751800751900740978161247DBC4
:10570000908414780E1248D27816790E1247398593
:105710000A82850B83A3A3A3A3A3A312579A1249BA
:105720008F880E890FE4F510F5117816790E12475F
:10573000FA7404124A6612579A12498FE8FA8A0ECE
:10574000E4F50F7816790E12467A50077816790E1E
:105750001248339003D1E06408600AE064066005F3
:10576000E064057020908378781612469A5016905F
:10577000834C781612480D800C751600751700754D
:105780001800751900850C82850D8378161248E182
:105790007406124A307F10024BA2E0F8A3E0F97AB7
:1057A000D07B032274F7124AF61268E5900575E083
:1057B00064017010906245E4F0A3F053F4F343FEEB
:1057C0000C5390F312688BE5C654B84441F5C6E516
:1057D0009E5447644170F8906185740FF090057392
:1057E000E0F47002A3E0604E900574E0600814607D
:1057F0001B14602E8040750A01750B00900573E044
:10580000780A124A07E50AF45280802A750A01755F
:105810000B00900573E0780A124A07E50AF45290EB
:105820008014750A01750B00900573E0780A124A1E
:1058300007E50AF452A079007F02024BA274F71226
:105840004AF6E9FEEAFF1268E574016E700C7A8090
:105850007B009003D0E0F912719790734CE493F4BD
:105860006008E493F9126687800953C6B8E59E5430
:105870004770FA126891900575E064017003126632
:10588000B7900573E0F47002A3E0604B900574E0FC
:10589000600814601A14602C803D750A01750B00B5
:1058A000900573E0780A124A07E50A42808028755D
:1058B0000A01750B00900573E0780A124A07E50AA1
:1058C00042908013750A01750B00900573E0780A09
:1058D000124A07E50A42A012682B8A0A8B0BA80A13
:1058E000A90BE8496014E5E170FCE82414F582E4B2
:1058F00039F583E0F46003E0F5E174016F700A7A32
:10590000019003D0E0F912722702583874F1124A5C
:10591000F68A0A8B0B8C0C8D0D908380780A1248C6
:1059200086740F124A66780E1248D2908380780EE1
:10593000124886780A790E12467A90834850107879
:105940000A790E124833780A12469A4014800E786B
:105950000E790A124833780E12469A500479018063
:105960000279007F08024BA274ED124AF68A0A8B74
:105970000B8C0C8D0D908380780A1248867413125C
:105980004A66780E1248D2908380780E1248867844
:105990000E790A12467A4011780A790E124833AA13
:1059A0000AAB0BAC0CAD0D8022751200751300759F
:1059B00014007515017812790E1248337812790A9D
:1059C0001247FAAA12AB13AC14AD157F0C024BA20E
:1059D000908380780A1248D28A828B83780A124890
:1059E000997F04024BA274F5124AF68C828D83785B
:1059F0000A1248D28A828B83780A12485F125A3E72
:105A0000C3E09CF0A3E09D125A3040229083A0781E
:105A10000A1248D28A828B83780A1248208A828BA3
:105A200083A3A3A3A3E02420F0A3E0344EF080A03E
:105A3000F088828983C3E09420A3E0944E22EA2474
:105A400004F8E43BF98C828D83A3A3A3A3E0FCA319
:105A5000E0FD888289832274F5124AF6E9FE9005FA
:105A60002DE0FAA3E0FBEE29F8E433F9746428F59D
:105A700082748239F583E02AF50AA3E03BF50B78BE
:105A80000A124C9D9083D01248F01255C474021231
:105A90004A308A0A8B0B8C0C8D0D7410780A1247D1
:105AA000C2AA0AAB0B7F04024BA274F1124AF68A17
:105AB0000E8B0F8C108D117411124A66124CB47437
:105AC00011124A66E02401F50AA3E03400F50BE464
:105AD000F50CF50D780E790A1246B9908358780ABC
:105AE0001248D2780E790A1246B9AA0EAB0FAC1042
:105AF000AD111255C47402124A308B0BEA450B608B
:105B0000047A0180027A00EC2AFCE43DFD74131251
:105B10004A66E0F8A3E0F9E8FEE9FFECF8EDF97A6F
:105B2000717B0212498F880A890BE4F50CF50D8E02
:105B3000828F83780A1248E1ECF8EDF97A717B02E2
:105B400012498F8A0A8B0B7405780A124A078E82D3
:105B50008F83A3A3A3A3E50AF0A3E50BF07F0802BC
:105B60004BA2C082C083E9906000F0D083D0822233
:105B7000C0E074F2124BE2A2AFE433FED2AFC2C077
:105B8000E5D1A2E4500675D10F127071751C00EEBC
:105B9000A2E092AF7F01024C41C0E074F2124BE2EE
:105BA000A2AFE433FED2AFE589A2E6500579001238
:105BB0006F9F758900C2C5EEA2E092AF7F01024CD3
:105BC00041C0E074F2124BE2A2AFE433FED2AFE583
:105BD0008AA2E7400CE58AA2E64006E58AA2E350E5
:105BE000057901126F9F758A00758A00758A0075A4
:105BF0008A00758900C2EB80BEC0E0C0D0E8C0E07A
:105C0000E9C0E0A9A8D2AF758B00C2E8E9A2E7E439
:105C100033F8E9A2E792AFD0E0F9D0E0F8D0D0D0E5
:105C2000E032C0E0C0D0E8C0E0E9C0E0A9A8D2AF4F
:105C3000C2C7751C00E9A2E7E433F8E9A2E792AF16
:105C4000D0E0F9D0E0F8D0D0D0E032C0E0C0D0E869
:105C5000C0E0E9C0E0EAC0E0C082C083A2AFE433A4
:105C6000FAD2AF900AAAE0F8A3E0687008539AFB52
:105C7000A374018022C2E9900AAAE0F8740128F016
:105C8000742A28F582E4340AF583E0F5C1900AAA63
:105C9000E0C394804002E4F0EAA2E092AFD083D067
:105CA00082D0E0FAD0E0F9D0E0F8D0D0D0E032C233
:105CB000AF0200002212462AFCC20412462A9BC3ED
:105CC0000412462AA7AA0412462A0AAB0412462A3C
:105CD0002BAB0412462AD6AB0412462A69AC041236
:105CE000462A30AD0412462A0DD20412462A4ED25C
:105CF0000412462AAE980412462AC1980412462A73
:105D0000F2980412462A2C990412462A8599041204
:105D1000462ACC990412462A149A0412462A439A17
:105D20000412462A729A0412462AA99A0412462A92
:105D3000F09A0412462A099B0412462A5E9B04121A
:105D4000462A779B0412462AC59B0412462AFF9BCB
:105D50000412462ACEB10312462AD1B20312462AB1
:105D60000AB30312462A2DB30312462A3FB3031285
:105D7000462A7DB30312462AF9B30312462AC1B458
:105D80000312462AE3B40312462A7AB50312462ABE
:105D9000CCB50312462AFDB50312462A0AB60312F1
:105DA000462A74B60312462ACBB60312462ACEB64A
:105DB0000312462A07B70312462A0AB70312462AD5
:105DC00014B70312462A68B70312462AA9B703126A
:105DD000462ADCB70312462A19B80312462A1BB911
:105DE0000312462ABFB90312462A28BA0312462ACA
:105DF00066BA0312462AE18C0412462A098D04125F
:105E0000462A368D0412462A6E8D0412462ACC8DFF
:105E10000412462A188E0412462A7F8E0412462A3D
:105E2000BF8E0412462AFC8E0412462A2A8F0412C0
:105E3000462AD48F0412462ADE8F0412462AEB8F9C
:105E40000412462A1E900412462A2A900412462A58
:105E500042900412462A4C900412462AEDCF0412B6
:105E6000462AFBCF0412462A13D00412462A2AD00F
:105E70000412462A80910212462A2A920212462AC7
:105E80003D930212462AB9930212462AD79402126F
:105E9000462A13950212462AAE950212462A929677
:105EA0000212462A5E970212462AEC980212462AED
:105EB0005D990212462A179A0212462A099B02127B
:105EC000462A499B0212462AFD9B0212462A2F9C13
:105ED0000212462A259E0212462A679E0212462A6E
:105EE000859E0212462AEB9E0212462ABA9F021291
:105EF000462A7EA00212462A9DA20212462A48D1B4
:105F00000312462A32D20312462ADDD20312462A4F
:105F10002ED30312462ADED30312462A4FD403128D
:105F2000462A34D50312462A68D50312462A61D67A
:105F30000312462A9ED60312462A7AD70312462A0D
:105F4000B9D70312462AD5D70312462A05BA041236
:105F5000462A89BA0412462AB4BA0412462ACEBB8B
:105F60000412462AC6940412462ADC940412462AD5
:105F7000FA940412462A0B960412462A1596041225
:105F8000462A40970412462A37980412462AA498B3
:105F90000412462A1BE30312462A4BE40312462A44
:105FA00082E40312462ACCE40312462A8FE6031247
:105FB000462A2DE50112462AB9E50112462A1DE7B7
:105FC0000112462A29E70112462A64E70112462AED
:105FD000D3E70112462ADCE80112462AE5E901125C
:105FE000462AACEA0112462A09EC0112462A27EC9D
:105FF0000112462A44EC0112462AF1EC0112462A0B
:106000006EED0112462A96ED0112462A60F0011249
:10601000462A65F00112462A7EF20112462ACCF287
:106020000112462A3CF30112462A7AF30112462A4B
:1060300056F40112462A16F50112462A62F501129B
:10604000462A65F50112462AA9F50112462AF1F5FC
:106050000112462A30F60112462A52F60112462A49
:1060600086F60112462AE9F60112462A5EE8031274
:10607000462A6CE80312462ABFE80312462ADEE8E5
:106080000312462A23E90312462A67EA0312462A24
:1060900002EB0312462A46EB0312462A70EB031268
:1060A000462ADFEB0312462A25EC0312462A9CEC13
:1060B0000312462A4DED0312462A00800112462A99
:1060C00010800112462AB1800112462A0D81011268
:1060D000462ACA810112462AEB820112462A1A83F5
:1060E0000112462AC7840112462A3E870112462A17
:1060F000AE890112462AA08A0112462A998B011202
:10610000462AA08D0112462A94900112462AC39174
:106110000112462AC7930112462AD7940112462A31
:1061200066960112462A57970112462AA597011230
:10613000462A14980112462A38980112462AD99CF8
:106140000112462ADA9D0112462A3B9E0112462A76
:10615000669E0112462A2C9F0112462A96DB0212E5
:10616000462AA0DB0212462AE5DB0212462AF9DBA8
:106170000212462A31DC0212462A7ADC0212462A30
:10618000BBDC0212462AFEDC0212462A28DD02127D
:10619000462AB1DD0212462A5CDE0212462A8BDE56
:1061A0000212462AC4DE0212462AFFDE0212462AE4
:1061B00034DF0212462A5EDF0212462A87DF02120D
:1061C000462ADBDF0212462AF0DF0212462A12E0DC
:1061D0000212462A27E00212462A4FE00212462AFD
:1061E0006DE00212462A81E00212462A96E002126F
:1061F000462AABE00212462A01E10212462A3BE19E
:106200000212462A67E10212462A95E10212462A44
:10621000BFE10212462AD4E10212462AE9E1021243
:10622000462A19E20212462A64E20212462AB5E21E
:106230000212462A01E30212462A2CE30212462ADF
:1062400057E30212462AC2E30212462AECE3021284
:10625000462A17E40212462A47E40212462A7EE43E
:106260000212462ABBE40212462AF3E40212462A2C
:106270001DE50212462A5AE50212462A84E5021258
:10628000462AB4E50212462ADEE50212462A08E64C
:106290000212462A33E60212462A5CE60212462A17
:1062A000ADE60212462AF3E60212462A1EE7021261
:1062B000462A7EE70212462AA9E70212462AD9E7B1
:1062C0000212462A1CE80212462A46E80212462A10
:1062D0006BE80212462AF2E80212462ADED30412C2
:1062E000462AEDC90412462A828A0312462A658B81
:1062F0000312462AE08B0312462A1B8C0312462AFD
:106300006C8D0312462AFA8D0312462A8C900312D2
:10631000462A3E910312462A4A920312462ABD9308
:106320000312462A16940312462ABF940312462AE1
:106330008B840412462ACE840412462A5285041203
:10634000462A29880412462ADB880412462A8889AC
:106350000412462ABC890412462AD2890412462A0B
:10636000C58A0412462A078B0412462A3F8B041260
:10637000462A7E8B0412462AD88B0412462A058CA4
:106380000412462A578C0412462A678C0412462AA5
:10639000A88C0412462ADABD0412462A3DBE041215
:1063A000462ADABE0412462A0FBF0412462A3FBF0D
:1063B0000412462A7ABF0412462A9ABF0412462AB9
:1063C0005FED0312462AEBED0312462AAAEE0312F2
:1063D000462AC2EF0312462ADCF10312462A1AE9C2
:1063E0000212462A3FE90212462A0CEA0212462A03
:1063F000E0EA0212462A4DEB0212462A8DEB021207
:10640000462A29EC0212462A5DED0212462A38EE8F
:106410000212462A97EE0212462A23EF0212462A59
:1064200091EF0212462A1DF00212462A63F0021270
:10643000462AD5F00212462A67F10212462A08F2CD
:106440000212462A28F20212462A70F20212462A44
:10645000B9F20212462AD5F20212462AFBF20212C1
:10646000462A75F30212462A83F30212462A12F4D0
:106470000212462A7BF40212462A13F20312462A1B
:1064800098F20312462ADAF20312462ABEF30312E6
:10649000462A2BF40312462A6FF40312462AB3F459
:1064A0000312462AE0F40312462A08F50312462A8C
:1064B00040F50312462A7EF50312462AA5F503127B
:1064C000462A1FF60312462A69F60312462A989FA7
:1064D0000112462A37A10112462A6FA30112462A49
:1064E000C3A30112462AEEA30112462ACAA401122E
:1064F000462AFAA40112462A29A50112462A3CA5D9
:106500000112462A7DA50112462ABFA50112462A7C
:10651000CEA50112462AFBA50112462A49A6011260
:10652000462A78A60112462A98A60112462AC6A62D
:106530000112462A01A70112462A24A70112462A5F
:1065400085A70112462ADEA70112462A2BA80112AE
:10655000462AA5A80112462AE0AA0112462A16AC2C
:106560000112462A81AC0112462AFBAC0112462ACE
:10657000E5AE0112462A21AF0112462AABB0011244
:10658000462AD8B00112462A1DB10112462A90B1FE
:106590000112462AE5B10112462AE7B10112462A44
:1065A000E9B10112462AEEB10112462AF0B10112F8
:1065B000462A99B20112462A65B30112462A8DB3C2
:1065C0000112462AB8B30112462AE3B30112462A41
:1065D0001CB40112462A41B40112462A60B40112C9
:1065E000462A8DB40112462A03B50112462A7DB50A
:1065F0000112462AC5B50112462AE7B50112462AFC
:10660000EBB60112462A1AB70112462A4BB70112FD
:10661000462AAAB70112462ACAB70112462AD8B892
:106620000112462A02B90112462A5DB90112462A10
:10663000E9B90112462A14BA0112462A59BA0112BE
:10664000462A92BA0112462AB4BA0112462AE1BA7F
:106650000112462A00BC0112462A11BC0112462A28
:10666000C59E0312462A3E9F0312462AF8A403122F
:10667000462A03A60312462AACA70312462A3AA8C2
:106680000312462AB8D00112462A39D10112462AED
:1066900066D10112462AA9D10112462ABBD10112A4
:1066A000462ABCD20112462A00D30112462A2BD315
:1066B0000112462A66D30112462AE2D40112462A62
:1066C00064D50112462A7FD50112462AF0D501125F
:1066D000462AADD60112462A70D70112462AFED7A5
:1066E0000112462AB5D80112462AC8D80112462AF4
:1066F00061D90112462AF8D90112462A1FDA01127D
:10670000462A88DA0112462AD2DA0112462A20DB0A
:106710000112462AC7DB0112462A65DC0112462A0D
:10672000F2DC0112462A63DD0112462AAADD0112BB
:10673000462A02DE0112462A34DE0112462AF5DE1E
:106740000112462AF8DF0112462A41E00112462AC8
:106750005EE00112462A7DE00112462AB0E10112F4
:10676000462A67E20112462A8CE20112462AA1E279
:106770000112462A11E30112462A52E30112462A67
:1067800076E40112462AF7E40112462AF79403122E
:10679000462A42950312462A4E950312462A22960D
:1067A0000312462A39960312462A76960312462A7F
:1067B000A7960312462AD8960312462A1097031268
:1067C000462A66970312462A7C970312462AB897F0
:1067D0000312462ACB970312462AF2970312462A3F
:1067E00026980312462A4C990312462A969A0312B7
:1067F000462A929B0312462AA89C0312462AF57F3A
:106800000012462A37B10212462A66B10212462AFF
:10681000B8B40212462A0FB60212462ACEB60212A7
:10682000462A35BA0212462A21BB0212462A73BBF7
:106830000212462A8DBB0212462ABFBB0212462A0A
:10684000CABB0212462AD3BB0212462A85BC0212D8
:10685000462A55BD0212462A9CBD0212462A02BE95
:106860000212462A74BE0212462A00800212462AEA
:1068700040830212462A46830212462A058A0212E1
:10688000462A2A8E0212462A679C0412462AFD9C3A
:106890000412462A139D0412462A6C9D0412462AAD
:1068A000B09D0412462AEA9D0412462A829E0412D2
:1068B000462AF19E0412462AFA9E0412462A069F90
:1068C0000412462A209F0412462A4A9F0412462A8E
:1068D0005F9F0412462AC19F0412462AE89F0412B1
:1068E000462AB2DD0312462ABFDD0312462AD9DD4D
:1068F0000312462A0CDE0312462A4ADE0312462AF7
:10690000AFDE0312462AC4DE0312462ACFDE03128C
:10691000462ADCDE0312462AF3DE0312462A01DF92
:106920000312462A0CDF0312462A18DF0312462AF6
:1069300027DF0312462A32DF0312462A55DF0312ED
:10694000462A5ADF0312462AF1DF0312462A59E08B
:106950000312462A69E00312462A83E00312462AFC
:10696000A0E00312462ABBE00312462AD7E0031236
:10697000462AEEE00312462AF9E00312462A0EE107
:106980000312462A22E10312462A83E10312462A11
:1069900089E10312462A8FE10312462A95E1031288
:1069A000462AA9E10312462AD0E10312462A0BE245
:1069B0000312462A24E20312462A66E20312462AFA
:1069C00099E20312462A13CE0212462AAACE0212D6
:1069D000462A42CF0212462A32D00212462A69D0F3
:1069E0000212462A7CD00212462AEAD00212462A15
:1069F00085D20212462AACD20212462A4ED3021285
:106A0000462A83D30212462A94D30212462A0DD470
:106A10000212462A2ED40212462A46D40212462ACE
:106A20009ED50212462AA7D70212462AF7D9021289
:106A3000462AFADA0212462A49DB0212462AAAA29A
:106A40000212462AA7A30212462A92A40212462A3A
:106A50009CA40212462ABEA40212462ACAA402120A
:106A6000462A1CA60212462A4BA60212462A7BA7D9
:106A70000212462ABDA70212462AE9A80212462A95
:106A8000BFA90212462A11AA0212462A70AA0212AD
:106A9000462AA7AA0212462AE2AA0212462A7DAE76
:106AA0000212462A96AE0212462A18AF0212462A4F
:106AB00026AF0212462A7BAF0212462A89AF021283
:106AC000462AF6AF0212462A68B00212462AAEB033
:106AD0000212462A9EF40212462AC0F40212462AE4
:106AE000AAF60212462A4FFA0212462A92FB021214
:106AF000462A6CFC0212462AA8BF0412462ACDBFC1
:106B00000412462A3EC00412462AC1F70112462A40
:106B1000CAF70112462AD3F70112462A04F90112D4
:106B2000462A23FB0112462A59FB0112462A93FBEF
:106B30000112462AC9FB0112462A03FC0112462A09
:106B400037FC0112462A63FC0112462AACFC0112F2
:106B5000462AE6FC0112462A2EFD0112462A84FD31
:106B60000112462AB9FD0112462A14FE0112462AD4
:106B70004EFE0112462A9FFE0112462AD5FE011240
:106B8000462A0FFF0112462A3DFF0112462A60FFE6
:106B90000112462A50730012462A83730012462AB5
:106BA000C6730012462AD1730012462ADC73001203
:106BB000462AE7730012462AF2730012462A5C77CF
:106BC0000012462A3B780012462AB4780012462A60
:106BD0002B790012462A38790012462A457900128C
:106BE000462A4F790012462A59790012462A6379BB
:106BF0000012462A70790012462A80790012462A2D
:106C0000C6790012462AEA790012462AFA79001259
:106C1000462A077A0012462A117A0012462A1B7A5F
:106C20000012462A257A0012462A327A0012462A93
:106C30003C7A0012462A467A0012462A507A0012FE
:106C4000462A5A7A0012462AD57A0012462AF27A41
:106C50000012462A0F7B0012462A1F7B0012462A8A
:106C6000297B0012462A337B0012462A3D7B001204
:106C7000462A5A7B0012462A777B0012462ADB7B83
:106C80000012462AFD7B0012462A067C0012462A84
:106C90002E7C0012462A487C0012462A517C0012A3
:106CA000462A687C0012462A807C0012462A897C8B
:106CB0000012462A317D0012462A497D0012462ADA
:106CC000597D0012462A697D0012462A737D001202
:106CD000462A837D0012462A937D0012462AA07D13
:106CE0000012462AAD7D0012462ABA7D0012462ABD
:106CF000CA7D0012462AE97D0012462A067E00124D
:106D0000462A167E0012462A267E0012462A367E23
:106D10000012462A677E0012462A717E0012462A19
:106D2000817E0012462A917E0012462A9E7E001223
:106D3000462AC37E0012462AD07E0012462AE07EF2
:106D40000012462AEA7E0012462AF77E0012462AE0
:106D5000017F0012462A117F0012462A1B7F001273
:106D6000462A257F0012462A357F0012462AF1ADB9
:106D70000412462A23AE0412462A40AE0412462AC2
:106D8000EEAE0412462A3AAF0412462AF4AF0412B9
:106D9000462AA4D40412462A9AD20412462AD4D2ED
:106DA0000412462A03CA0312462A87CA0312462A35
:106DB0009ECA0312462A60CB0312462A4BCC03120A
:106DC000462A9BCE0312462A6CCF0312462AC0D015
:106DD0000312462A00800312462AC4820312462A5E
:106DE000A7850312462ACC850312462AC4860312BD
:106DF000462A50880312462ABF880312462A1E8953
:106E00000312462AAE890312462A078A0312462A2B
:106E10000CB80412462A3EB80412462AB3B804122B
:106E2000462A69B90412462AAEFF0212462A34BC29
:106E30000112462A9DBE0112462A54C00112462A5A
:106E4000B1C00112462AAEC10112462A36C2011251
:106E5000462AC2C20112462AE7C20112462ADCC5EE
:106E60000112462A52C60112462A3EC70112462A7C
:106E700078C70112462AB8C70112462A58C901121A
:106E8000462AADC90112462AFAC90112462A68CA21
:106E90000112462A8FCA0112462AA9CA0112462A9D
:106EA000BFCB0112462ACFCB0112462A55CD011283
:106EB000462A75CD0112462AABCD0112462A16CFBD
:106EC0000112462A55CF0112462A93D00112462AB2
:106ED0002EFB0312462A86FB0312462ACEFC03121F
:106EE000462A3DFD0312462AECFD0312462A0BFEFC
:106EF0000312462A5FFE0312462A9DFE0312462A0B
:106F0000C2C80412462A79C90412462AB0C904121A
:106F1000462ABAD00412462ACBD00412462A6BD194
:106F20000412462AAFFF0312462AEEFF0312462A36
:106F3000ECD40412462AF8D40412462A04D50412CA
:106F4000462AFDCE0412462A08CF0412462A33CF21
:106F50000412462AE7CF0412462A12CC0412462A0B
:106F600096CC0412462AFCCC0412462A85C7041289
:106F7000462AB9C70412462ADEC70412462A46C862
:106F80000412462AB5C80412462A8CC40412462AA2
:106F9000B8C40412462A30C50412462A4BC504124E
:106FA000462AA5C50412462A00C60412462A03C66C
:106FB0000412462ADA900412462AEF900412462A56
:106FC00068910412462A3D920412462A0F94041234
:106FD000462A69940412462AAE940412462A30A71F
:106FE0000412462A50A70412462A93A70412462ADE
:106FF000FEA70412462A87A80412462AF4A80412FF
:10700000462A0DC60412462A9CC60412462AE67F6A
:107010000012462A01CB0412462A56CB0412462AF5
:10702000AECB0412462AC7CB0412462AF87F0012C0
:10703000462AFDBB0412462A76BD0412462AD7BD55
:107040000412462AEAB30412462A68B40412462AF5
:10705000E8B40412462A79B50412462ABBB50412D4
:10706000462ACAB50412462AE0B50412462AF3B5E8
:107070000412462A07B60412462A64A80312462AB6
:10708000D1A80312462A07A90312462A3BA90312D4
:10709000462A25AC0312462AE4AD0312462A48B01C
:1070A0000312462AA3A30412462AD5A30412462A91
:1070B000FEA30412462A9DA40412462ADEA404124A
:1070C000462AC1A50412462A76D10412462AE0D1E6
:1070D0000412462AEBD10412462AFBD10412462A96
:1070E00006D20412462A62C20312462AEBC20312D7
:1070F000462A02C30312462AC4C30312462AA6C460
:107100000312462A47C60312462A18C70312462A04
:107110006CC80312462AF4C80312462A0CCE041285
:10712000462A35CE0412462A5ECE0412462A76CE70
:107130000412462AB8CE0412462A36D80312462A2A
:1071400040D80312462A80D80312462AC9D803120F
:10715000462A03D90312462A59D90312462A78D956
:107160000312462A81D90312462AD2D90312462A8B
:10717000FBD90312462A10DA0312462A19DA03123F
:10718000462A89DA0312462A17DB0312462A5BDBFA
:107190000312462A83DB0312462A02DC0312462A24
:1071A00045DC0312462A82DC0312462A94DC0312D1
:1071B000462AB3DC0312462ABCDC0312462A86DDCB
:1071C0000312462A5EC10412462AAFC10412462A9F
:1071D00038C20412462A9EC20412462A2BB1041257
:1071E000462A55B10412462A4AB20412462A79B2F6
:1071F0000412462AFFB20412462A15CD0412462A6A
:107200007FD30412462A0AB60412462A40B6041254
:10721000462A79B60412462AD2B70412462A3F7F7C
:107220000012462A557F0012462A5F7F0012462A26
:10723000B57F0012462A8CBA0312462A49BB0312B4
:10724000462A84BB0312462AACBB0312462A0EBC54
:107250000312462A5ABC0312462AC5BC0312462A08
:1072600041BD0312462A3DBE0312462AC4BF031283
:10727000462A47C00312462AABC00312462AC2C0A0
:107280000312462AB8C10312462A04C20312462A30
:10729000A9F60312462ABEF60312462A6EF7031217
:1072A000462AAEF70312462AC7F70312462AFAF710
:1072B0000312462A47F80312462A7BF80312462A8D
:1072C000BDF80312462ABBFA0312462A21FB031219
:1072D000462AC3BF0212462A7AC30212462A0CC5A6
:1072E0000212462A5CC50212462A73C50212462AB9
:1072F00092C50212462A10C60212462AA2C70212DC
:10730000462A86C80212462A97CC0212462A6BCD1C
:107310000212462A16A00412462A48A00412462A3F
:1073200071A00412462A10A10412462A51A1041287
:10733000462A34A20412462A32D40412462A78D4A9
:107340000412462ACED404FF31B1E1FFFFFFFFFF54
:1073500074F7124A8AE9FE7AB57B6B1270C5EE901B
:107360000778F0900779E4F090077AF090077BF0C7
:1073700090077CF090077DF012632D900363E4F09A
:107380000279F574F6124A8AEAFEEBFF5480602F08
:10739000900778E0F912717FEA4B601B8A828B8339
:1073A000E014601014600814700D126BC180081294
:1073B0006BBB8003126BC7EEFAEF6480FB80047A2C
:1073C000007B00027D2CC082C083E990077A027C9A
:1073D00060C082C083E990077B027C60C082C0836A
:1073E000E990077C027C60C082C083E990077D023F
:1073F0007C6074F2124A8A1270D78A0C8B0D801747
:107400007C017D007A7F7B071270CB8B0BEA450BEA
:1074100070EE90077EE4F0E50C450D70030276E512
:1074200090077EE0600302756C7C017D007A7F7BB3
:10743000071270CBE50C24FFF50CE50D34FFF50DBC
:1074400090077FE014600914600F14600C0276E569
:1074500090077E7401F002758D90077E7404F0121F
:1074600076EA50030276E57C027D007A807B071283
:1074700070CB1277047405F01276EA50030276E5B9
:107480007C027D007A827B071270CBE50C24FE1211
:1074900076F440030274001270DD8A0A8B0BA80A8E
:1074A000A90B900782C3E098A3E0994003027400FF
:1074B00090077E7406F012773450030276E57A0A5C
:1074C0007B001271618A0A8B0BAE0AAF0BEE4F7014
:1074D000030276E58E828F837403F0A374FFF0902D
:1074E000077FE08E828F83A3A3F0900780E0F8A34C
:1074F000E0540FF98E828F83A3A3A3E8F0A3E9F0F1
:10750000900780E0F50AA3E0F50B740C780A1249A5
:10751000F8E50A54038E828F83A3A3A3A3A3F0905C
:107520000782E0F812789DA3A3A3E8F0A3E9F01284
:1075300078919007821278AE126159850A82850B84
:1075400083EAF0A3EB127753FA4B70030276DE90D6
:107550000782E0FCA3E0FD1270CB12773BEEFAEF5E
:10756000FB900778E0F912716D02741214601E141A
:1075700060341470030275FC14700302745F14709D
:10758000030274781470030274B60274171276EA58
:1075900050030276E57C027D007A807B071270CB77
:1075A0001277047402F0E50C450D70030276E59045
:1075B0000782E4F0A3F07C01FD7A827B071270CB96
:1075C000E50C24FF1276F450161270DD8A0A8B0B3C
:1075D000A80AA90B900782C3E098A3E09940177C02
:1075E000017D007A7F7B071270CB8B0BEA450B7015
:1075F0000302741280E990077E7403F0127734500E
:10760000030276E5900782E02408FAA3E03400FB49
:107610001271618A0A8B0BAE0AAF0BEE4F70030238
:1076200076E5EE2402F50AE43FF50BEE2404F8E4D7
:107630003FF9850A82850B83E8F0A3E9F090077F84
:10764000E0C0E0127714D0E0F0900780E0C0E012D4
:107650007714A3D0E0F0900781E0C0E0127723D048
:10766000E0F0900782E0C0E0127723A3D0E0F09032
:107670000782E0FCA3E0FD850A82850B83E02404F9
:10768000FAA3E03400FB1270CB12773B8E828F831B
:10769000A374FFF0900781E054FCF9E4700374FCDC
:1076A000697031900780E0F50EA3E0F50F7407785C
:1076B0000E1249F8E50E5407601A8E828F83749378
:1076C00012775312772AE05403F0EEFAEFFB90079B
:1076D0007D0275648E828F837402F002755DEEFA0E
:1076E000EFFB1271677F06024B5CC3E50C9402E569
:1076F0000D940022F50CE50D34FFF50DC3900783C2
:10770000E0940122E50C24FEF50CE50D34FFF50DA7
:1077100090077E22850A82850B83E0F8A3E0F5833B
:10772000888222850A82850B83E0F8A3E0F58388AE
:1077300082A3A322127746E50D9922127746F50C13
:10774000E50D99F50D22900782E0F8A3E0F9C3E575
:107750000C9822F0850A82850B83E02274F1124A8C
:107760008A74FF124A1A8A0E8B0F7510008A828B58
:1077700083A3A3127834FAE9FB8A828B83127CFDFF
:10778000127824FEE439FF8002051085100A750B7B
:10779000007402780A124A077400250AF50A7480F8
:1077A000350BF50BE50A2402F50CE4350BF50D85D8
:1077B0000A82850B83E0F47003A3E0F4603A127848
:1077C0002E496025850A82850B83E06E7003A3E055
:1077D0006F70B6EA2404FA50010B850C82850D8384
:1077E000A3E0F5838882124A88850A82850B83E0AC
:1077F000F47003A3E0F4701B12782E497015851AFB
:1078000082851B837401F0AC1AAD1BF9EEFAEFFB15
:107810001262E5AA0EAB0F1271677401124A307F33
:1078200007024B5CA3A3E0F8E4C8F9EC2822850C1E
:1078300082850D83E0F8A3E0F9E82274F6124A8A03
:10784000EAFEEBFF8E828F83A3A3E06402703812FE
:1078500078918882F583124CB48E828F83A3A3A380
:10786000A3A3A3E0FCA3E0FD8E828F83A3A3A3A325
:1078700012789D1278AE12615F7402124A30E9608C
:10788000061278A81271C7EEFAEFFB127167027D3B
:107890002CEE2408F8E43FF9880A890B22A3E0F9CA
:1078A0008E828F83A3A3A322850A82850B83E0FAAD
:1078B000A3E0FB2274F4124A8AEAFEEBFFEE2402F4
:1078C000F8E43FF9880A890B8882F5831278AE8A3A
:1078D000828B83E024FE60081460051460378029E1
:1078E0001279BFF9EC2405FCE439FD1270D18B0D3F
:1078F000EA450D700EEEFAEFFB900778E0F9127191
:1079000073800D1278A81271C7EEFAEFFB1271673F
:107910007F04024B5CA3A3E02403FCE43400FD12CB
:1079200070D18B0BEA450B70E080CAC082C0831215
:107930007D3E126165027C61C082C083127C3A1276
:10794000616B027C61C082C083126171027C61C084
:1079500082C08312637B027C61C082C08312634B4E
:10796000027C61C082C083127D3E126177027C611D
:10797000C082C0838A828B83E0F912617D027C61C0
:1079800074F6124A8A8A828B83127CF9127D0E1257
:107990004C9D8A828B831279BFF8E4C8F9EC28E405
:1079A00039FD1279B2E0FEA3E0FBEEFA1261830228
:1079B0007D278A828B83A3A3E0F98A828B8322129C
:1079C0007D20A3A3E02274F7124A8AEAF8EBF9E8D3
:1079D0002403FCE439FD88828983A3AA82AB8388CF
:1079E000828983E0F9126189800B74F7124A8A1246
:1079F0007C1412635D7F01024B5C74F7124A8A1299
:107A00007BB512636380EEC082C08312618F027CFB
:107A100061C082C083126351027C61C082C0831244
:107A20006195027C61C082C083127C3A1261A1021E
:107A30007C61C082C0831261A7027C61C082C08366
:107A4000126369027C61C082C0831261AD027C61F5
:107A5000C082C0831261B3027C6174F6124A8AEA62
:107A6000240E127AC9124CA1EA240D127AC9124CC2
:107A7000A1EA2407F50AE43BF50B780A124C9D8A2B
:107A8000828B83A3A3A3A3A3A3127ACF124CA18AB0
:107A9000828B83A3A3A3A3A3127ACF124CA18A82C1
:107AA0008B83A3A31279B6A3A3E0FE8A828B83A360
:107AB000A3A3E0FDEEFC8A828B83E0FEA3E0FBEE55
:107AC000FA1261B97406027D29F582E43BF583E080
:107AD000F50A780A22C082C083EAF8EBF988828925
:107AE00083A3AA82AB8388828983E0F91261BF02F3
:107AF0007C61C082C083EAF8EBF988828983A3AAFB
:107B000082AB8388828983E0F91261C5027C61C0FF
:107B100082C0838A828B83E0F91261CB027C61C0D0
:107B200082C0831261D1027C61C082C0831261D79E
:107B3000027C61C082C0831261DD027C61C082C0B0
:107B400083EAF8EBF988828983A3AA82AB838882CF
:107B50008983E0F91261E3027C61C082C083EAF8A4
:107B6000EBF988828983A3AA82AB8388828983E028
:107B7000F91261E9027C6174F6124A8A127CDF1202
:107B80007D14124C9D127CC5127D14124C9D127DE9
:107B900001124C9D127CF4127D0D124C9D8A828B39
:107BA00083127CFA127D0F124C9D127BB5126381F9
:107BB000740A027D298A828B83127BD2A3127824D5
:107BC000E439FD8A828B83E0FEA3E0F9EEFAE43922
:107BD000FB22A3A3E0FC8A828B832274F6124A8ADA
:107BE000EAFEEBFF79101262D9127E581262D9AC0C
:107BF0000AAD0BEEFAEFFB1261EF027D2CC082C0E2
:107C0000831261F5805B74F7124A8A127C14126148
:107C1000FB0279F5EA2402FCE43BFD8A828B83E0D7
:107C2000FEA3E0F8E4C8F9EE28FAE439FB22C082AA
:107C3000C083127C3A12620180278A828B83E0FC27
:107C4000127825FAE439FB22C082C08312620780D1
:107C500010C082C0838A828B83E0F912620D80019A
:107C6000F0D083D082024627C082C083EAF8EBF9C5
:107C700088828983A3A3E0FB127DDB12621380E17B
:107C8000C082C08312621980D874F6124A8A127CAC
:107C9000DF127D14124C9D127CC5127D14124C9D76
:107CA000127D01124C9D127CF4127D0D124C9D8AA6
:107CB000828B83127CFA127D0F124C9D127BB512BF
:107CC000636F027BB08A828B83A3A3A3A3A3A3A326
:107CD000A3A3A3E0FCEA240BF582E43BF58322EAAC
:107CE000240CF582E43BF583E0FCEA240DF582E404
:107CF0003BF583228A828B83A3A3A3A3A3127BD306
:107D0000228A828B83A3A3A3A3A3127D20A3A3A370
:107D1000A3A3A3A3127826F50AE439F50B780A2267
:107D2000A3127BD2A3A3227402124A307F02024B19
:107D30005CC082C083127D3E126375027C61127941
:107D4000B2E0FCA3E0FBECFA22C082C0838A828B03
:107D500083E0F912621F027C61C082C0838A828B39
:107D600083E0F9126225027C61C082C08312629DA9
:107D7000027C61C082C0838A828B83E0F91262A395
:107D8000027C61C082C0838A828B83E0F9126285A3
:107D9000027C61C082C083127DD712628B027C613B
:107DA000C082C083127C3A126291027C61C082C0A0
:107DB00083127D3E126297027C61C082C0838A82F8
:107DC0008B83E0F91262AF027C61C082C083127DB6
:107DD000D71262B5027C61EAF8EBF988828983A345
:107DE000E0FA88828983E0F92274F6124A8AE4F57F
:107DF0000AF50B780A124C9D7C007D007A007B000E
:107E0000126357027D27C082C0838A828B83E0F988
:107E100012622B027C61C082C0838A828B83E0F96C
:107E2000126231027C61C082C0838A828B83E0F956
:107E3000126237027C6174F6124A8AEAFEEBFF791D
:107E4000101262D9127E581262D9AC0AAD0BEEFA4A
:107E5000EFFB12623D027D2CEE2410F50AE43FF5A3
:107E60000B7910AA0AFB22C082C083126243027CF3
:107E700061C082C0838A828B83E0F9126249027CEE
:107E800061C082C0838A828B83E0F912624F027CD8
:107E900061C082C083127C3A126273027C61C0822C
:107EA000C083EAF8EBF988828983A3E0FC888289A1
:107EB00083A3A3E0FBECFA88828983E0F91262A92C
:107EC000027C61C082C083127C3A12638D027C61A5
:107ED000C082C0838A828B83E0F9126387027C614F
:107EE000C082C08312619B027C61C082C083127D0C
:107EF000D7126255027C61C082C08312625B027C31
:107F000061C082C0838A828B83E0F9126261027C45
:107F100061C082C083126267027C61C082C083122A
:107F2000626D027C61C082C0838A828B83E0F91219
:107F30006279027C61C082C08312627F027C61C070
:107F400082C0839016FAE4F09016F4F0A3F0D08388
:107F5000D082024627C082C083E99016FA80EE7470
:107F6000F6124A8AE9FE90848AE0F8EEC39840044B
:107F70007903803CA2AFE433FBC2AF750A01750BF5
:107F800000EE780A124A07AC0AAD0BEA7011ECF465
:107F9000F8EDF4F99016F4E058F0A3E05980099058
:107FA00016F4E04CF0A3E04DF0EBA2E092AF7900C4
:107FB0007F02024B5C74F4124A8A9016FAE0602148
:107FC0009016F4E0F8A3E0F9E8497015AFA8C2AF45
:107FD0001272C3EFA2E7E433FEEFA2E792AF127092
:107FE0002F7F04024B5C53F3BF53FDBF53F3BF43DA
:107FF000FD40024627024627851C87C2AF0246275E
:10800000C082C083E9901906F0D083D0820246274F
:1080100074F6124A8AE9900343F09003A3E0F50A4C
:10802000750B007402780A124A07AA0AAB0B127287
:108030000F900344128996900344128D83606F90D1
:1080400003A3E075F003A4FAABF012720F90036182
:10805000128996900361128D83700B900344128DE8
:10806000541272158048900361129C977AFF7BFF2F
:10807000126ECD7A0080198A0A750B007402780A94
:10808000124A0712979074FF1281C3E4F0A3F00A1A
:108090009003A3E0F8EAC39840DD79051260CF9021
:1080A0000343E0F9125FBB7A4D7B6112647D029855
:1080B0003374F4124A8A8A0A8B0BEB54806047901F
:1080C0000343E0F912717F8A0C8B0DAE0CAF0DEEFD
:1080D0004F602A8E828F83E064B0701A1260DBE9F1
:1080E00060148E828F83A3A3A3A3E0F9EE2405FA84
:1080F000E43FFB1260B1EEFAEFFB127167AA0AE5EA
:108100000B6480FB80047A007B000282E674F2122A
:108110004A8A74FB124A1AEAFEEBFFEE4F6045747E
:1081200003124A66EEF0A3EFF0851A82851B83ECFA
:10813000F0A3EDF07402124A66E9F0AA1AAB1B1222
:108140005FB5E9F50A70757413124A66E0F50CA381
:10815000E0F50DE50C450D60638E828F8312871F5D
:10816000EE4F7005750A0280537A067B0012720F7B
:108170008A0E8B0FA80EA90FE8497005750A1380A7
:108180003B88828983E41281C3EEF0A3EF1282DF81
:10819000E50CF0A3E50DF09003471282D890034759
:1081A0006017E0FCA3E08003EAFCEBFD8C828D838A
:1081B0001282D870F38C828D831293ABA90A740556
:1081C000029F17F0A3129C79A32274F2124A8A89A3
:1081D0000A890E750F007403780E124A07850E0C7B
:1081E000850F0D900346F09003441291B61282D68B
:1081F000602E1272157900801D890E750F007402B1
:10820000780E124A0790034412964F8882F583A392
:10821000A3E4F0A3F0099003A3E0F8E9C39840D9E0
:108220009003A3E0FA850CF0A4CAA8F0850DF0A491
:1082300028FB12720F8A0E8B0FAE0EAF0FEE4F702F
:10824000030282CC9003A3E0FC850CF0A4CCA8F040
:10825000850DF0A428FD79001271557C0080318DC8
:108260000E750F007403780E124A078A828B8312F0
:1082700082D188828983E4F01282DEA3A3F0A3F086
:108280000DEDC3950A40D8EE250CFEEF350DFF0C21
:108290009003A3E0F8ECC39850288C0E750F00747F
:1082A00002780E124A079003441282D1E824025049
:1082B0000109FAE9FB8A828B83EEF0A3EFF07D00DF
:1082C00080BFE50A900346F0790080027913029F8F
:1082D0001A129653F922A3A3128D58EA4B22A31225
:1082E0009C79A3A3A3227F04024B5CC082C083902D
:1082F0000347128D83601C88828983A3A3E06A7080
:1083000003A3E06B8882898370E8A3A3A3A3128DE3
:108310005480047A007B0002800974F2124A8A7445
:10832000FD124A1AEAFEEBFF851A82851B83E4F0F0
:10833000A3F07402124A667401F0128D8070141258
:1083400063B712720F90034A128996128D807003E0
:108350000284AC128A96EE2404F50CE43FF50D85F8
:108360000C82F583E024FE603C24FC607424FE60F3
:108370007E24FE70030283FC24FE70030284092421
:10838000FE700302841624FE700302842324FE7010
:108390000302843024FC700302845124FE70030223
:1083A00084690284A51263B790034CEAF0A3EB1230
:1083B00084B8125CFDE960030284A590034C124C62
:1083C000B48E828F83A3A3A3A3A3129C97850A8252
:1083D000850B83128D541260997402124A30028404
:1083E000A5AC1AAD1BEEFAEFFB1260E1028474AC8F
:1083F0001AAD1BEEFAEFFB1260E78078AC1AAD1BEA
:10840000EEFAEFFB1260ED806BAC1AAD1BEEFAEFEB
:10841000FB1260F3805EAC1AAD1BEEFAEFFB12604C
:10842000F98051AC1AAD1BEEFAEFFB1260FF8044ED
:108430007402124A70880E890F780E124C9D7402D5
:10844000124A80EEFAEFFB1261057402124A308084
:1084500023AC1AAD1BEEFAEFFB12610BE9F87016B4
:108460007402124A66E4F0803CAC1AAD1BEEFAEFDF
:10847000FB126111E9F8E8602C8E828F83A3E0641F
:10848000146022850C82850D83E090034CF0851AE0
:1084900082851B83128D5490034D128996E8A31296
:1084A00084B8125CF7EEFAEFFB12606F7402124AA6
:1084B00066E0F97403029F17F07C4C7D03850A8205
:1084C000850B83128D582274E8124A8A74FA124A74
:1084D0001A7404124A66ECF0A3EDF08A148B15EAC4
:1084E0002405F510E43515F511EA2402F512E435FA
:1084F00015F513851282F583128D54125DED8A0CE9
:108500008B0D750A007C037D0079007A4C7B031289
:108510007155E5102402F518E43511F519740212AD
:108520004A70880E890F780E124C9D851082851135
:1085300083A3A3A3A3E0F50E750F00780E124C9D44
:10854000E5102405F50EE43511F50F780E124C9D5B
:1085500085188285198312905B125FD37406124AC4
:10856000308A0E8B0FE50E450F70030286E88020DF
:10857000851A82851B83E088828983F0050A851A23
:1085800082851B83A3E0C0E0128729D0E0F0050AB2
:10859000E50C24FBFAE50D34FFFBC3E50A9AE49BE6
:1085A00040030286E87E007F00851482851583A340
:1085B000A3A3A3E0F50B780B124CA1E4F516F51775
:1085C0007816124C9D7516497517037816124C9D36
:1085D00090034A124CB47409124A66124CB4E50C6A
:1085E00024F9F9AC0EAD0F851282851383128D54D8
:1085F0001261357409124A30E960030286898510D8
:1086000082851183A3A3A3A3A3A3A3E0F8900349A6
:10861000E0687075E0F5168E177816124C9D129C66
:1086200094851082851183A3A3A3A3A3A3A3A3125C
:108630008D5412714F7402124A30E9604C90034D10
:10864000128D83703BE4F5167816124C9D7CFF7DED
:10865000FF7907851282851383128D541260AB74E3
:1086600002124A30128D897017851082851183128B
:108670009E317404124A6612974312908C02871C32
:10868000850E82850F8312871FA81AA91B88168959
:10869000177816124C9D7404124A66124CB4851851
:1086A0008285198312898C125FDF7404124A308A22
:1086B0000E8B0FEE4F7003028565128729EE12872D
:1086C00034129042EF128734F8A3E03400F9E50E3B
:1086D000450F60030285708882898374FFF0050A64
:1086E00012872974FFF0050AE50A601A1313543F34
:1086F00012899C125D09E9600990034D128D541294
:1087000071C779008016851082851183129E31749D
:1087100004124A661297431293AB790A029015A38A
:10872000A3A3A3E0FEA3E0FF22A80A90034DE02844
:1087300012904222F0050A0890034DE0282274E8C6
:10874000124A8A74FA124A1A7402124A66128996F6
:108750007404124A66ECF0A3EDF07402124A66E06B
:10876000240512902BE0F50EA3E0F50F7402124AD7
:1087700066E02402F512A3E03400F513851282F5B9
:1087800083128D54125DED750A00750B00EA24FC0E
:10879000FEEB34FFFF8008050EE50E7002050FA802
:1087A0000AC3EE98EF94005003028948A81AA91B47
:1087B000881089117810124C9D851682851783A325
:1087C000A3A3A3129C9B124C9DE5162405F510E46F
:1087D0003517F5117810124C9D8516828517831276
:1087E000898A125FD37406124A308A108B11EA45C7
:1087F000117003028948EA2404F518E43511F519CB
:10880000851882F583E0F50EA3E0F50F851A8285C1
:108810001B83129C978A828B83A3A3A3E0F9851202
:1088200082851383128D54125FC1E9F50B60030238
:1088300089487402124A66129052F50B780B124C5A
:10884000A1E4F514F5157814124C9D7514497515AD
:10885000037814124C9D90034A124CB47407124AC8
:1088600066124CB4EEF9AC10AD11851282851383FB
:10887000128D541261357409124A30E9F50B600308
:10888000028948E50A703FE4F510F5117810124CA2
:108890009D7CFF7DFF7909851282851383128D549B
:1088A0001260AB7402124A30129078700D74041288
:1088B0004A6612897F791102897C900349E024027B
:1088C00090034DF0801490034DE0FA900349E07955
:1088D0000024025001096A497072A80A900349E015
:1088E000FAE82AFAE43400FBEE9AEF9B405A851826
:1088F00082851983E0C0E090034E12872ED0E0F00D
:10890000050A851882851983A3E0C0E00890034E0C
:1089100012872ED0E0F0050A900349129C9B124C5E
:108920009D129C94A80A12901F12713D7402124A63
:1089300030900349E0250AF50A74FF650E7004744F
:10894000FF650F6003028797E50A601F90034DE003
:10895000F5F0E50A8412899C125D0FE96009900325
:108960004E128D541271C779008011E50B7003759A
:108970000B0A7404124A6612897FA90B0290151221
:1089800091BAE50EF0A3E50FF022A3A3129F26AA49
:108990000EAB0F22A3A3EAF0A3EBF02290034CF05E
:1089A0007C4C7D03851282851383128D582274ECD2
:1089B000124A8A74FC124A1A1294BB7402124A8038
:1089C000128D4E125FD98A0E8B0FEA450F7003028B
:1089D0008A86128A96A81AA91B88128913781212FD
:1089E0004C9D7CFF7DFF790B850A82850B83128D60
:1089F000541260AB7402124A30128B8C700C850CCE
:108A000082850D83129089028A938E828F83A3A31D
:108A1000A3A3E0F5147814124CA1E4F514F515782D
:108A200014124C9D75144C7515037814124C9D78D6
:108A300012124C9D7409124A66124CB47409124AFF
:108A400066E0F9AC0EAD0F850A82850B83128D545A
:108A50001261357409124A30E9FE70157C4C7D03B1
:108A6000850A82850B83128D54125D15E970098089
:108A70002074166E70027E0090034D128D54127198
:108A8000C7EE7004800B7E01850C82850D831293E6
:108A9000A8EEF90293BDEE2402F50AE43FF50B229D
:108AA00074EC124A8A74FC124A1AEAFEEBFF8C102C
:108AB0008D11EE2405F50AE43FF50B7402124A808D
:108AC000850A82850B83128D54125FD98A0E8B0F13
:108AD000EA450F7003028B7CEE2402F50CE43FF5AF
:108AE0000DA81AA91B881289137812124C9D7CFFBD
:108AF0007DFF790D128D4E1260AB7402124A301256
:108B00008B8C700B850A82850B83129089807A8EFC
:108B1000828F83A3A3A3A3E0F5147814124CA1853C
:108B20000A82850B83A3A3124CB475144C751503EC
:108B30007814124C9D7812124C9D7409124A6612D8
:108B40004CB47409124A66E0F9128D4A1261357408
:108B500009124A30E9FE700F7C4C7D03128D4E12D3
:108B60005D1BE97009802074166E70027E00900310
:108B70004D128D541271C7EE7004800B7E01850A70
:108B800082850B831293A8EEF90293BD128D93F5A3
:108B900012A3E0F513EA45132274E8124A8A74FE20
:108BA000124A1A8A188B198C168D17EA2405F50EAD
:108BB000E43519F50FEA2402F510E43519F51185AD
:108BC0001082F583128D54125DED8A0A8B0B750DA0
:108BD000007C037D0079007A4C7B03127155750C83
:108BE00000E50A14F5120424FFF50AE50B34FFF53D
:108BF0000B805490034CE0FA900349E0F8EA28F81F
:108C0000E43400F9E50A98E50B99500D90034CE027
:108C1000F8E512C398900349F0E0F5147515007853
:108C200014124C9D129C9490034DE02AFAA3E03458
:108C300000FB12713D7402124A30900349E0F89033
:108C4000034CE028F0050C850E82850F83A3A31248
:108C5000965F4003028D2F90034CE0C3950AE49584
:108C60000B4003028D2FAE0CEE2EFEE433FF128D6F
:108C70006EAC1AAD1B129CAFE439FB125FD98A149B
:108C80008B15AC14AD15EC4D701B750D01128D5E7E
:108C90001293AC90034D1282D860031271C7A90DD4
:108CA0007402029017851882851983A3A3A3A3E0F9
:108CB000F50D780D124CA1E4F514F5157814124C4D
:108CC0009D7514497515037814124C9D90034A1232
:108CD0004CB47407124A66124CB4A91285108285EE
:108CE0001183128D541261357409124A30E9F50D61
:108CF000709B90034D128D836003028BF3E4F51497
:108D0000F5157814124C9D7CFF7DFF790F8510823C
:108D1000851183128D541260AB7402124A30128D89
:108D2000896003028BF3128D5E12908D028CA07C01
:108D30004C7D03851082851183128D54125D21E9CB
:108D40006003028C937900028CA0AC0EAD0F850CF1
:108D500082850D83128D5822E0FAA3E0FB22128D4A
:108D60006EE0FAA3E0F9EA85168285178322850E64
:108D700082850F83E02EF8A3E03FF9888289832261
:108D800090034A129E35E84922128D93F8A3E0F928
:108D9000E8492290034DEAF0A3EBF090034DE02266
:108DA00074E8124A8A74FA124A1A7404124A661251
:108DB00089968C188D197404124A66E02405F51002
:108DC000A3E03400F5117404124A66E02402129004
:108DD0002B128D54125DED8A0C8B0D7F007E00A846
:108DE0001AA91B880A890B780A124C9D8510828566
:108DF0001183A3A3A3A3E0F50A8E0B780A124C9D5E
:108E0000E5102405F50AE43511F50B780A124C9D9E
:108E1000851082851183A3A312905B125FD3740621
:108E2000124A308A0E8B0F802912904CF00F12904C
:108E30004CF00F900349129397124C9D129C94EFA3
:108E4000F812901F12713D7402124A30900349E0EB
:108E50002FFFE50E450F7003028EDB851A82851BFE
:108E6000831294CDA3A3A3E0F985168285178312FC
:108E70008D54125FC1E9FEE50E2404F512E4350FAE
:108E8000F513EE70507404124A66129052F50A7887
:108E90000A124CA1E4F50AF50B780A124C9D750AEA
:108EA00049750B03780A124C9D90034A124CB47416
:108EB00007124A66124CB4E50C24FAF9AC0EAD0F59
:108EC000851682851783128D541261357409124AF2
:108ED00030E9FE60391290681293ABEF7003029094
:108EE0000290034DE0F5F0EF8490034CF07C4C7D54
:108EF00003851682851783128D54125D27E9600958
:108F000090034E128D541271C779000290158F0A8A
:108F1000EF703BE4F514F5157814124C9D7CFF7D41
:108F2000FF7911851682851783128D541260AB74F8
:108F300002124A30129078700912906812908C02D6
:108F40009015900349E0240490034DF08035900380
:108F500049E0F890034DE0FAE82404FCE43400FD15
:108F6000EC6A4D6003028EE1E50C24FAFAE50D345B
:108F7000FFFBE50A28F8E43400F9EA98EB9950037E
:108F8000028EE1851282851383E0C0E090034EE0FB
:108F90002FF8A3E034008882F583D0E0F00F85122B
:108FA00082851383A3E0C0E0129039D0E0F00F7403
:108FB00002124A70880A890B780A124C9D740212B8
:108FC0004A66124CB485108285118312898A125F19
:108FD000DF7404124A308A0E8B0FEA450F700302C9
:108FE0008E297402124A66E0C0E0129039D0E0F097
:108FF0000F7402124A66A3E0C0E0129039D0E0027A
:109000008E31EE70027E0A85108285118312906E79
:109010001293ABEEF97406124A307F10024B5C904B
:10902000034EE028FAA3E03400FB22F516A3E03457
:1090300000F517851682F5832212903D2290034E8B
:10904000E02FFAA3E034008A82F5832212903D7467
:10905000FF221291BAA3A3A3A3E022129F26851098
:1090600082851183128D5822851282851383129E68
:10907000358518828519832290034EEAF0A3EBF020
:1090800090034E129E35E849221293B1E8F0A3E90D
:10909000F079112274EA124A8A74FE124A1A8A0A74
:1090A0008B0B8C148D15EA2405FEE4350BFFAC1AEE
:1090B000AD1B8E828F83128D54125FD98A0E8B0F57
:1090C000EE2406F510E43FF511EA450F7003029116
:1090D0008CE50A2402F50CE4350BF50D8A828B83AE
:1090E000A3A3A3E0A2E55028851A82851B83128DD5
:1090F0005412612F8A128B13EA45136020791212E1
:109100008D4A851282851383124A88E9F50E707F95
:10911000851082851183E0600979528011750E0EE9
:10912000806D850A82850B83A3A3A3A3E0F9E4F5F0
:109130000AF50B780A124C9D8E828F83A3A3E0F56B
:109140000A780A124C9D8E828F83A3A3A3124CB47B
:109150008E828F83129C97128D4E12613B74061281
:109160004A30E9F50E7011851082851183E0702D6B
:10917000128D4E125D2D80257416650E7011750EC0
:10918000007418124A661291B6E48010750E01122E
:109190009E2D851482851583E8F0A3E9F085108261
:1091A000851183E0600479008002A90E7402124ADE
:1091B000307F0E024B5C1291BA22E0F8A3E0F583F7
:1091C00088822274EC124A8A74F7124A1A8A0C8B2B
:1091D0000D8C128D13EA2405FEE4350DFF750E008B
:1091E000AC1AAD1B8E828F83128D54125FD98A0AFE
:1091F0008B0BEA450B7003029382E50C2402F50CFD
:109200005002050D8A828B83A3A3A3E0A2E5502F11
:10921000851A82851B83128D5412612F8A0E8B0F43
:10922000EA450F604F7912AC0AAD0B128D4E850ED8
:1092300082850F83124A88E9F50E600302938585C3
:109240000C82850D83E0F50AA3E0F50BAA0AFB1258
:109250006123EA4B70197AFF7BFF126123EA4B709E
:10926000030293788A828B83E50AF0A3E50BF075FD
:109270000A008008750E0E029385050A900346E0E9
:10928000F8E50AC3984003029378850A1075110027
:1092900074037810124A078A828B83A3A3E02510F7
:1092A000F8A3E0351112974C70D08E828F83129301
:1092B000A01289968E828F83A3A31293A012899401
:1092C000EE2404F50AE43FF50B850A82F583E08875
