:020000040000FA
:1000000002075EC2AFF5088114FFFFC2AFF5088199
:1000100026FFFFC2AFF5088138FFFFC2AFF50881A8
:100020004AFFFFC2AFF508815CFFFFC2AFF5088150
:100030006EFFFFC2AFF5088180FFFFC2AFF50881F8
:1000400092FFFFC2AFF50881A4FFFFC2AFF50881A0
:10005000B6FFFFC2AFF50881C8FFFFC2AFF5088148
:10006000DAFFFFC2AFF50881ECFFFFC2AFF50881F0
:10007000FEFFFFC2AFF508A110FFFFC2AFF508A158
:1000800022FFFFC2AFF508A134FFFFC2AFF508A100
:1000900046FFFFFF758701002274FC120724750AD2
:1000A00004750B00780A12074D74021207937A0048
:1000B0007B00790612055C7402120709850D8285A2
:1000C0000E83E0F47003A3E0F470030201FE850DDB
:1000D00082850E83E0F8A3E0F9E84970030201FE8F
:1000E0007402120789E0687003A3E0697010750953
:1000F00001023030C2AF75C9AB75C95B80FE53BE1B
:10010000FBE59DA2E650FAE5C654804449F5C6E5F4
:100110009E547F644970F853C67FE59EA2E740FA7B
:1001200053C680E59E547F70FA43BE04906270749B
:1001300008F0750A00F50B780A12074D7C807D01E6
:100140007A007B00790612055C740212070990019F
:1001500086E0F50AA3E0F50B7409780A12076DE54D
:100160000A2406FF53B4F375BC0075BC007CFC7D0B
:10017000077A047B0079061203837E07EFC3940895
:10018000401C800774066E70027E507C007D087AE9
:10019000007B00EEF91203830EEEC39F40E6A8BD7C
:1001A000850D82850E83E8F9E5BCF8E0687003A34D
:1001B000E069704A850D82850E83E0F8A3E0F9744A
:1001C00002120789E8F0A3E9F0850D82850E837499
:1001D000FFF0A3F07409F5D575D480750A01780A8B
:1001E00012074D74021207937A007B0C1205E27419
:1001F00002120709C2AF75C9AB75C95B80FE750AEB
:1002000004780A12074D74021207937A007B007972
:100210000112055C7402120709850D82850E83E0C8
:10022000F47003A3E0F47003020373850D82850E5E
:1002300083E0F8A3E0F9E849700302037374021243
:100240000789E0F8A3E0F9850D82850E83E06870E8
:1002500003A3E0697010750900020830C2AF75C9C8
:10026000AB75C95B80FE74FF68700374FF6960033F
:1002700002037353BEFBE59DA2E650FAE5C6548027
:100280004449F5C6E59E547F644970F853C67FE53E
:100290009EA2E740FA53C680E59E547F70FA43BEA3
:1002A000049062707408F0750A00F50B780A120762
:1002B0004D7C807D017A007B00790112055C74021F
:1002C000120709900186E0F50AA3E0F50B7409789E
:1002D0000A12076DE50A244BFF53B4F375BC007591
:1002E000BC007CFC7D077A047B0079011203837ECD
:1002F00002EFC39403401C800774066E70027E50A8
:100300007C007D087A007B00EEF91203830EEEC3B9
:100310009F40E6A8BD850D82850E83E8F9E5BCF80F
:10032000E0687003A3E069704A850D82850E83E062
:10033000F8A3E0F97402120789E8F0A3E9F0850D4B
:1003400082850E8374FFF0A3F07409F5D575D4800F
:10035000750A01780A12074D74021207937A007B1E
:10036000021205E27402120709C2AF75C9AB75C962
:100370005B80FE43BE03120094C2AF75C9AB75C962
:100380005B80FE74F7120648E9FEAFC7740F5EF596
:100390000A750B00740B780A12073AEA2400F8EB8E
:1003A000350BF9E82400E93480F9A2AFE433F50A0B
:1003B000C2AFEEC4540FFAE5C754F84AF5C7E99046
:1003C0000980F0E8A3F0A37470F0A374BDF0EC9082
:1003D0000985F0900984E054E0F0EDFCE04CF090E9
:1003E00009867420F0A37442F07409F5D575D480A1
:1003F00075D601000000000000000000000075D765
:1004000001E5D7A2E040FA8FC7E50AA2E092AF7FEC
:10041000020206AEE5096007E508D2AF023033E517
:1004200008D2AF020833E5096007E508D2AF023011
:100430003BE508D2AF02083BE5096007E508D2AF0B
:10044000023043E508D2AF020843E5096007E5083A
:10045000D2AF02304BE508D2AF02084BE509600786
:10046000E508D2AF023053E508D2AF020853E509E0
:100470006007E508D2AF02305BE508D2AF02085B47
:10048000E5096007E508D2AF023063E508D2AF02A4
:100490000863E5096007E508D2AF02306BE508D2D2
:1004A000AF02086BE5096007E508D2AF023073E5DB
:1004B00008D2AF020873E5096007E508D2AF023041
:1004C0007BE508D2AF02087BE5096007E508D2AFFB
:1004D000023083E508D2AF020883E5096007E5082A
:1004E000D2AF02308BE508D2AF02088BE509600776
:1004F000E508D2AF023093E508D2AF020893E509D0
:100500006007E508D2AF02309BE508D2AF02089B36
:10051000E5096007E508D2AF0230A3E508D2AF02D3
:1005200008A3E5096007E508D2AF0230ABE508D2C1
:10053000AF0208ABE5096007E508D2AF0230B3E5CA
:1005400008D2AF0208B3E5096007E508D2AF023070
:10055000BBE508D2AF0208BB0002055874F61206CC
:1005600048890C740F550CF50A750B00740B780A4A
:1005700012073AEA2400F8EB3480F9E82400E93560
:100580000BF985C70BA2AFE433F50AC2AFE50CC483
:10059000540FFAE5C754F84AF5C7740A120789E000
:1005A000FEA3E0FFEE4F602CEEFAEFFB888289831A
:1005B000E08C828D83F088828983A3A882A9838CB2
:1005C000828D83A3AC82AD83EA24FF1AEB34FFFB58
:1005D000EA4B70D8850BC7E50AA2E092AF7F030211
:1005E00006AE74F7120648ED900980F0ECA3F0A374
:1005F0007462F0A37473F0A3E0541FF0740912073F
:1006000089E0F50AA3E0F50BE50A333354FC9009C1
:1006100085F07406780A12076DE50A900984F09057
:1006200009867412F0A37442F075D11E75D601EAE2
:10063000906271F0EBA3F0906270E0D2E1F0E0A282
:10064000E740FB7F020206AE250DC582C0E0E50E45
:1006500034FFC583C0E0E50DC3958224F910AF08CF
:1006600085830E85820D800885830E85820DD2AF2D
:10067000CEF0A3E520F0A3780AE608F0A3DEFAEFB7
:10068000F0A3E58124FBF8E608F0A3E608F0A30850
:1006900008E608F0A3E608F0A315811581D0E0FE76
:1006A000D0E0F815811581E8C0E0EEC0E022850EAB
:1006B00083850D82E0A3FEE0A3F520780AE0A3F68F
:1006C00008DFFAE0A3FFE0A3C0E0E0A3C0E0E0A3FE
:1006D000C0E0E0A3C0E010AF0885820D85830E80E6
:1006E0000885820D85830ED2AFD083D08222250D5E
:1006F000F58210AF08F50D400C150E8008F50D4081
:1007000002150ED2AF850E832200C0D0250D10AF8A
:1007100008F50D500C050E8008F50D5002050ED29F
:10072000AFD0D022250D10AF08F50D400C150E806E
:1007300008F50D4002150ED2AF22700422600D188C
:10074000C6C333C608C633C6D5E0F4182274028087
:1007500000C0E0F4041206EED0E012077C2275D04F
:100760000075813F750D80750E0102079B600C08B6
:10077000C6C313C618C613C6D5E0F422CAC0E0E645
:10078000F0A308DAFAD0E0FA22250DF582E4350E5E
:10079000F58322250DFCE4350EFD22120099120787
:1007A000A100000080FBFFFFFFFFFFFFFFFFFFFF37
:1007B000FFFFFFFFFFFFFFFFFFFFFFFFFFFFFFFF49
:1007C000FFFFFFFFFFFFFFFFFFFFFFFFFFFFFFFF39
:1007D000FFFFFFFFFFFFFFFFFFFFFFFFFFFFFFFF29
:1007E000FFFFFFFFFFFFFFFFFFFFFFFFFFFFFFFF19
:1007F000FFFFFFFFFFFFFFFFFFFFFFFFFFFFFFFF09
:040000050000075E92
:00000001FF
