:020000040000FA
:10300000E675FFFF0100009442424242FFFFFFFFCE
:10301000FFFFFFFFFFFFFFFFFFFFFFFFFFFFFFFFC0
:10302000000102030405060708090A0BFFFFFFFF62
:1030300002342A024279FFFFFFFFFFFFFFFFFFFF7D
:10304000FFFFFFFFFFFFFFFFFFFFFFFFFFFFFFFF90
:10305000FFFFFFFFFFFFFFFFFFFFFF02472CFFFF08
:10306000FFFFFF024703FFFFFFFFFF024752FFFF83
:10307000FFFFFF02467DFFFFFFFFFFFFFFFFFFFF98
:10308000FFFFFF0242EFFFFFFFFFFFFFFFFFFFFF1A
:10309000FFFFFFFFFFFFFFFFFFFFFF0246A3FFFF52
:1030A000FFFFFFFFFFFFFFFFFFFFFF0246CBFFFF1A
:1030B000FFFFFF0240CF120A0A64024B85010000A5
:1030C0003785025185010000901A027985010000C0
:1030D000C202025585030000C702025185010000AB
:1030E000911A027B85030000C9020251850100008C
:1030F000921A027785030000931A42494E49844987
:103100007E49FF0000B4000028002800283075A088
:1031100000A000A000A00000080008E001F00010DE
:10312000001000100010001000100050005000505F
:103130000010001000D0070000000000000F000188
:10314000000500307507001000010081FF0000003D
:1031500000FFFFFFC24AE04AC84A044BFF020202D6
:1031600008025000A0000000E803024B85010000A7
:103170004085025185010000371B02578501000080
:103180001503025185010000381B02738501000000
:103190002B03025185010000391B025B85010000F1
:1031A0002D030251850100003A1B025D85080000D5
:1031B0002E030251850100003B1B025F85010000C8
:1031C0003C1BFFFF0100FF17007E527E527E527EA5
:1031D000527E527E527E527E527E527E527E527E6F
:1031E000527E528E54AC548854D255E455CC55126C
:1031F0000808024B850100003D8502518501000051
:10320000C91B026F850100004E0D025585030000A9
:10321000540D025185010000CA1B026B850200009B
:10322000560D025185010000CB1B0269850200008A
:103230005E0D46570C092D447261676F6E466C79BE
:103240002D051250002003020A0002010601015858
:10325000570000FFFFFFFFFF010C0C8E5794571221
:10326000024B850100004685025185010000391C92
:10327000026385010000DA0D025585030000DB0DB5
:1032800001E803057710020A1A0A0AD007000002B3
:103290004B850100004385025185010000621C023C
:1032A0006D85030000950E025585030000A70E02F0
:1032B0005185010000631C026785030000A90E020E
:1032C0005185010000641C025985030000651C54EF
:1032D000010D0A035010101C024B850100003A85B5
:1032E000025185010000B11C10F281020000A21001
:1032F000025585030000A4100253850100003184AB
:10330000025185010000B11C100282020000A310CE
:10331000025585030000A6100253850100003E847B
:10332000FFFFFFFFFF0001307503020106000000F0
:10333000000000000000000000000000000000008D
:10334000000000000000000000FFFF0600800CE805
:10335000033031323334353637383941424344450E
:103360004600286E756C6C20706F696E74657229EA
:103370000030313233343536373839616263646551
:103380006600464C4F4154533F2077726F6E672062
:10339000666F726D617474657220696E7374616CAE
:1033A0006C656421003F3F3F00E5C754F84404F5D5
:1033B000C779012200000080FB1233A9B900030283
:1033C0003414E479217808B800028004F709D8FCA5
:1033D000E479297802B800028004F709D8FCE49067
:1033E00002C278CF79188002F0A3D8FCD9FA7A907B
:1033F0007B1A9030B678F479038015E493A3AD82FC
:10340000AE838A828B83F0A3AA82AB838D828E8364
:10341000D8E9D9E775825F7583F1740412343C757D
:1034200082B4758333740012343C75D00075813FCB
:10343000751AC2751B02759F000233B9C09FF59FB4
:10344000E473D09F22D083D082C09FE493C0E07405
:103450000193C0E0740293F59F22E066701008A308
:10346000E066700A08A3E066700408A3E06622C064
:103470000AC3E096F50A08A3E096420A08A3E0967C
:10348000420A08A3E096420AA2D265D033E50A7048
:1034900001D3D00A22C3E7960809E7960809E79600
:1034A0000809E79622C3E09608A3E09608A3E096F1
:1034B00008A3E09622C00AC3E096F50A08A3E096A6
:1034C000420A08A3E096420A08A3E096450A700162
:1034D000D3D00A22080808EAC0E0EBC0E086F0E793
:1034E000A4FA180986F0E7A42AFA180986F0E7A4D6
:1034F0002AFA180986F0E7A42AFA1986F0E7A4FB4D
:10350000E5F02AFA190886F0E7A42BFBE5F03AFA71
:10351000190886F0E7A42BFBE5F03AFA181809869B
:10352000F0E7A4C5F02BFBE43AFA1908E7C5F0C6AA
:10353000A426F6E5F03BFBE43AFA1886F0E7A4F699
:10354000E5F00826F6E43B08F6E43A08F6D0E0FB9E
:10355000D0E0FA22E4CFC0E0E4CEC0E0E4CDC0E0A9
:10356000E4CCC0E075F020E626F608E633F608E67F
:1035700033F608E633F6181818EC33FCED33FDEE9D
:1035800033FEEF33FFC3EC9709ED9709EE9709EF90
:1035900097191919400FFFEC97FC09ED97FD09EEFB
:1035A00097FE191906D5F0BFECF709EDF709EEF70C
:1035B00009EFF7191919D0E0FCD0E0FDD0E0FED0FA
:1035C000E0FF22E4C396F608E496F608E496F608CF
:1035D000E496F6226016080808C6C313C618C61378
:1035E000C618C613C618C613C6D5E0EA2270090865
:1035F0000808226016181818C6C333C608C633C692
:1036000008C633C608C633C6D5E0EA22E627F60860
:1036100009E637F60809E637F60809E637F622E044
:1036200026F608A3E036F608A3E036F608A3E0364F
:10363000F622E026F008A3E036F008A3E036F00812
:10364000A3E036F022C3E697F60809E697F60809E4
:10365000E697F60809E697F622C3E096F008A3E09D
:1036600096F008A3E096F008A3E096F022E657F65D
:103670000809E657F60809E657F60809E657F6225C
:10368000E056F608A3E056F608A3E056F608A3E0D5
:1036900056F622E056F008A3E056F008A3E056F0F4
:1036A00008A3E056F022E066F608A3E066F608A359
:1036B000E066F608A3E066F622E0F608A3E0F60866
:1036C000A3E0F608A3E0F622E6F008A3E6F008A3DC
:1036D000E6F008A3E6F022E0FAA3E0FBA3E0FCA3F7
:1036E000E0FD22EAF0A3EBF0A3ECF0A3EDF022E082
:1036F000FCA3E0FDA3E0FEA3E0FF22ECF0A3EDF0CD
:10370000A3EEF0A3EFF022E0F8A3E0F9A3E0FAA320
:10371000E0FB22E8F0A3E9F0A3EAF0A3EBF022CA71
:10372000C0E0E6F0A308DAFAD0E0FA22CAC0E0E08E
:10373000A3C582CCC582C583CDC583F0A3C582CC89
:10374000C582C583CDC583DAE6D0E0CA22C3E4983A
:10375000F8E499F912378E8026C3E49AFAE49BFBC9
:10376000E920E7E912378EE498F8E499F922C3E4F6
:1037700098F8E499F912378EE498F8E499F9C3E4DB
:103780009AFAE49BFB22EB20E7CFE920E7E0B900BF
:1037900010BB0008E88AF084F8AAF022E4FBC8FA1B
:1037A00022EB70227B10C833C8C933C9335007C31A
:1037B0009AC3DBF280069A50012ADBEAC833F4C8C8
:1037C000C933F4C9FA2275F008E4C833C8C933C94B
:1037D00033C99AC99B5004C92AC93BD5F0ECFBC830
:1037E00033F4C8E4C9FA22600D08C6A2E713C6186C
:1037F000C613C6D5E0F322600C08C6C313C618C6AC
:1038000013C6D5E0F422700422600D18C6C333C677
:1038100008C633C6D5E0F41822251A10AF08F51AE9
:10382000400C151B8008F51A4002151BD2AF220070
:10383000C0D0251A10AF08F51A500C051B8008F5EA
:103840001A5002051BD2AFD0D022251AF58210AF34
:1038500008F51A400C151B8008F51A4002151BD2FA
:10386000AF851B8322251AF582E4351BF5832225BB
:103870001AF8E4351BF922251AFAE4351BFB222538
:103880001AFCE4351BFD22E473251AC582C0E0E56D
:103890001B34FFC583C0E0E51AC3958224F810AF3E
:1038A0000885831B85821A800885831B85821AD22E
:1038B000AFCEF0A3E520F0A3780AE608F0A3DEFA85
:1038C000EFF0A3E58124FAF8E608F0A3E608F0A3F8
:1038D000E608F0A30808E608F0A3E608F0A31581BF
:1038E0001581D0E0FED0E0F8158115811581E8C082
:1038F000E0EEC0E022251AC582C0E0E51B34FFC51A
:1039000083C0E0E51AC3958224F910AF0885831BB4
:1039100085821A800885831B85821AD2AFCEF0A3D8
:10392000E520F0A3780AE608F0A3DEFAEFF0A3E5BD
:103930008124FBF8E608F0A3E608F0A30808E608EF
:10394000F0A3E608F0A315811581D0E0FED0E0F8E1
:1039500015811581E8C0E0EEC0E022851B83851A41
:1039600082E0A3FEE0A3F520780AE0A3F608DFFAE0
:10397000E0A3FFE0A3C0E0E0A3C0E0E0A3C0E0E07C
:10398000A3C0E0E0A3C0E010AF0885821A85831BC6
:10399000800885821A85831BD2AFD083D0820234FF
:1039A00042851B83851A82E0A3FEE0A3F520780AF6
:1039B000E0A3F608DFFAE0A3FFE0A3C0E0E0A3C0C5
:1039C000E0E0A3C0E0E0A3C0E010AF0885821A8564
:1039D000831B800885821A85831BD2AFD083D08257
:1039E00022C0D0251AC582C0E0E51B34FFC583C0C4
:1039F000E0E51AC3958224F310AF0885831B858206
:103A00001A800885831B85821AD2AFC8F0A3E9F01B
:103A1000A3EAF0A3EBF0A3790AE709F0A3D8FAEC44
:103A2000F0A3EDF0A3EEF0A3EFF0A3D0E0F0A3D06D
:103A3000E0F0A3D0E0F0A3E520F0A3E5F0F0A322AE
:103A4000851B83851A82E0C0E0A3E0F9A3E0FAA316
:103A5000E0FBA3780AE0F608A3DFFAE0FCA3E0FDB0
:103A6000A3E0FEA3E0FFA3E0C0E0A3E0C0E0A3E08A
:103A7000F5D0A3E0F520A3E0A3F5F010AF0885830F
:103A80001B85821A800885831B85821AD2AFD0825B
:103A9000D083D0E0F8D0E032740480067402800253
:103AA0007401C0E0F40412384AD0E012371F2274C7
:103AB00004800474028000CCC0E0EDC0E0E51AC3CD
:103AC0009CCCAD1B50011D10AF068C1A8D1B8006BF
:103AD0008C1A8D1BD2AF12372CD0E0FDD0E0FC2227
:103AE000D083D082E9C0E0E493A3C386F0C5F0950B
:103AF000F0F908E493A386F0C5F095F0700BE49319
:103B0000A3C3994005E9048002A3E475F002A4254B
:103B100082F582E5F03583F583D0E0F9E493A3C024
:103B2000E0E493C0E022D083D082ECC0E0EDC0E0BE
:103B3000E493A3FCE493A3FDED4C600D123B72EC07
:103B400024FFFCED34FFFD80EFE493A3FCE493A39A
:103B5000FDED4C600D123BB1EC24FFFCED34FFFD9C
:103B600080EFD0E0FDD0E0FCE493A3C0E0E493C09C
:103B7000E022C0E0C3E49396087401939618400FC6
:103B8000E49366700808740193661870007019A3B6
:103B9000A3C3E49396087401939618A3A3400DD091
:103BA000E0D0E0D0E0023B62A3A3A3A3A3A3D0E0B4
:103BB00022C0E0C0F088F0E49366700808740193B6
:103BC00066187000A8F0A3A3700BD0F0D0E0D0E08E
:103BD000D0E0023B62A3A3D0F0D0E02274F612380A
:103BE000F5EAFEEBFF8C0A8D0BEE2434F8E43FF986
:103BF000E8FCE9FDEE2435123F1FFAEE2437123FB0
:103C00001FF8850AF0A4C885F00C850BF0A4250CDC
:103C1000F9EA28F8E439F97A257B0012378EEA8C24
:103C2000828D83F0FA131313541FF8EE28F8E43F43
:103C3000F9E8245DF582E439F583E0C0E074075AC1
:103C4000F8D0E0B800028004C313D8FCA2E0EE5024
:103C5000082434F582E43F80182436123F1FF5F023
:103C6000EA84A8F0EE28F8E43FF9E82438F582E485
:103C700039F583E0F97F030239A174F71238F5EAC8
:103C8000FEEBFFEE2434123F1FC0E0EE2435F58238
:103C9000E43FF583D0E0F08E828F83A3A3A3A3A398
:103CA000A3A3C082C0838E828F83A3A3A3A3A312E6
:103CB0003D7FD083D082E0C398F50AA3E099F50B4D
:103CC000EE247F123F1F6401705DEE2480123D7967
:103CD0008E828F83A3A3A3A3A3A3A31240C28E8229
:103CE0008F83A3A3A3A3A3E0FAA3E0FBC3EA9CEB07
:103CF0009D5010C3EC98ED99402DC3EA98EB995074
:103D000026800EC3EA98EB994007C3EC98ED9940E2
:103D1000167C227D07EEFAEFFB1251B2EE247FF5FE
:103D200082E43FF583E4F0AC0AAD0BEEFAEFFB1250
:103D30003BDCE9F912466F7F020239A1C082C083E1
:103D4000851A82851B83123D7FC3EA9CEB9D501030
:103D5000C3EC98ED99401BC3EA98EB995014800E80
:103D6000C3EA98EB994007C3EC98ED9940047901B8
:103D700080027900D083D08222F582E43FF583E08F
:103D8000F8A3E0F922EAC39CFAEB9DFB2274EF1240
:103D900038F59003CEE064086005E06407702A906F
:103DA00061C8E060249003FCE0F4601DE0F875F069
:103DB0000CA4C8AAF02AF974FE28FE740339FF8EF9
:103DC000828F83A3A3A3E07003023E9B906060E018
:103DD000C0E0EE2468F582E43FF583D0E0F0750E94
:103DE000BC750F07750A00750B00E5D914F50CE5D5
:103DF000D95403F5106012740365106043E50C603C
:103E00000AEE2467123F1F700280759007B7E064C6
:103E100001601F123F1C60047A0480027A00E50CE6
:103E2000C39AFA95E0FB124FCC8A0A8B0BEA450B3A
:103E300070051254648064123F1C70048A0E8B0F4C
:103E4000E50C6012850E82850F83F50DE5D9F0A390
:103E5000150DE50D70F6123F1C604474FC250CF541
:103E60000C780E123A9CAC0CA910EEFAEFFB125231
:103E700078740212382FE97026AA0AAB0B125A8204
:103E8000793D8E828F83A3A3A3A3E0FA7B00124E19
:103E900022EEFAEFFB1251D61252D87900807874D4
:103EA0000365106051850C127513007812123A9C4C
:103EB000AC0EAD0FAA0AAB0B12523C740212382F93
:103EC000EE2468123F1F64807004747F8001E0F567
:103ED0000E780E123AA0E510F50E780E123AA0A94F
:103EE0000CAC0AAD0B9003FCE0FA7B00124DF274AF
:103EF0000212382F801C9003CEE06408AC0EAD0F88
:103F00007009EEFAEFFB1252A88007EEFAEFFB12EF
:103F1000534A12547079017F0A0239A1EE2482F5C6
:103F200082E43FF583E02274F21238F574FC123813
:103F300019EAFEEBFF890BA2AFE433F50AC2AF0228
:103F40003FE3E0601B780E123A9CAC0DA910EEFA2C
:103F5000EFFB125272740212382F7404250DF50D06
:103F60007401250DF5D98510D9E50D6018F50C857E
:103F70000E82850F83E0F5D9A385820E85830F1508
:103F80000CE50C70EA75E195EE2463F8E43FF97AEC
:103F9000007B00A2AFE433F50DC2AF1240BEEC4D82
:103FA000603288828983E0FAA3E0FB8A828B8312E5
:103FB00040C288828983ECF0A3EDF08A828B83E48F
:103FC000F0A3F01240BEEC4D700A88828983A3A34F
:103FD000E4F0A3F0E50DA2E092AF125A8290072917
:103FE000E004F0EE2463123D79E8496064EE246356
:103FF000123F1F2402F8A3E03400F988828983E588
:10400000822402F50EE43583F50FE0F50DA3E0F50B
:1040100010EE2462123F1F640170369061D0E0F808
:10402000123F1C60047C0480027C007480C398FAF8
:1040300095E0FBE50D2CF8E43400F9E82402F85093
:104040000109C3EA98EB99A2D265D0334003023F3D
:1040500042900729E0604D90072AE0F8900729E098
:10406000C398500C7402650B703A90072BE06034D3
:104070008E828F83A3A3A3A3E0851A82851B83125C
:1040800040B47402123865E81240B4900728E02862
:10409000F0740212387FAA1AAB1B7901124E5290AB
:1040A0000729E4F0E50AA2E092AF740412382F7FEA
:1040B000070239A1F0A3E4F0900729E0F8228882F2
:1040C0008983E0FCA3E0FD228521878522C622C0EA
:1040D000E074EB1239E1A2AFE433F50AC2AF759B8D
:1040E00000906182E0A2E05030E591A2E0502A7594
:1040F00091FE74016521702112426212538C1242AA
:1041000050123AAF124419740412382FE964017046
:104110000579011253C8123D8D906182E0A2E550ED
:104120005DE591A2E550577591DF9003CEE06407FD
:104130006005E06408702F12426274016521703ED0
:1041400012538C124250123AAF12441974041238AE
:104150002FE96401700579011253C87901EEFAEF75
:10416000FB123F278018E0640D70139003F0E00409
:10417000F064287002E4F07A00E0F912547690615D
:1041800082E0A2E64003024225E591A2E640030256
:1041900042257591BF9003CEE064057008125374F8
:1041A000125380800312537A7521001253E6E9906E
:1041B00003CFF079001253C81250DA7A017B0090D5
:1041C00003CDE0F9125A52907803E06442705690A1
:1041D00007BBE014F0704EC2AF1241DC00782AD069
:1041E000E0F618D0E0F6E59F5407F87005750FFF6C
:1041F0008003750F7FC4C0E07829E6F50C08E6550A
:104200000FF50D740B780C1237F7D0E0250CF890F1
:104210006270E0A2E740F8E8C333906272F0906207
:1042200070E0D2E0F0906181E0A2E35009E5E9A2FC
:10423000E3500375E9F7A3E0A2E75009E591A2E78F
:10424000500375917FE50AA2E092AF7F08023A40E1
:104250008E828F83E0F8A3E0C82416F582E438F557
:1042600083229003FCE0F875F00CA4C8AAF02AF9A8
:1042700074FE28FE740339FF22C0E0C0D0C082C0A3
:1042800083906183E0A2E05009E5BFA2E05003758E
:10429000BFFEE0A2E15009E5BFA2E1500375BFFDFA
:1042A000E0A2E25009E5BFA2E2500375BFFBE0A225
:1042B000E35009E5BFA2E3500375BFF7E0A2E45065
:1042C00009E5BFA2E4500375BFEFE0A2E55009E5A0
:1042D000BFA2E5500375BFDFE0A2E65009E5BFA22B
:1042E000E6500375BFBFD083D082D0D0D0E032C0BB
:1042F000E074F21239E1E5A7A2E6500FE5A1A2E6CB
:10430000500953A7BF75A1BF124343E5A7A2E550CB
:104310000CE5A1A2E5500653A7DF75A1DFE5A7A232
:10432000E15009E5A1A2E1500375A1FDE5A7A2E2D4
:10433000500CE5A1A2E2500653A7FB75A1FB7F013B
:10434000023A4074F71238F57521019003CEE0640B
:104350000670151252FC8A828B83A3A3A3A3A3A386
:10436000E0FAA3E0FB125362A2AFE433FED2AF90B7
:1043700003D4E0640170187A207B009003CDE0F94B
:10438000125B6C7A207B009003CDE0F9125A5890B2
:104390006182E0D2E6F09007B8E0602185C6228015
:1043A000169003D3E064017008E5C654F84405F59F
:1043B000C653BEFC1240C87401652160E4EEA2E061
:1043C00092AF7F020239A1FF8E238F248582288538
:1043D0008327851A82851B83E0CEA3E0CF852882C0
:1043E000852783EBC9EAC8EDCBECCA75F010C3E8AA
:1043F00033C8E933C9EA33CAEB33CBC3EA9EF526A7
:10440000EB9FF525B35004AB25AA26EC33CCED3356
:10441000CDD5F0DAAE23AF242274F11238F58A0A32
:104420008B0B8C0C8D0D9084F3780A123680740FF0
:10443000123865780E1236B99084F3780E123680F1
:10444000780A790E1234959084AF5010780A790E5C
:10445000123645780A1234B54014800E780E790A67
:10446000123645780E1234B5500479018002790075
:104470007F080239A174ED1238F58A0A8B0B8C0C77
:104480008D0D9084F3780A12368074131238657893
:104490000E1236B99084F3780E123680780E790AAF
:1044A0001234954011780A790E123645AA0AAB0BE0
:1044B000AC0CAD0D802275120075130075140075DB
:1044C00015017812790E1236457812790A12360CD7
:1044D000AA12AB13AC14AD157F0C0239A19084F372
:1044E000780A1236B98A828B83780A1236937F044F
:1044F0000239A174F51238F58C828D83780A123650
:10450000B98A828B83780A12365912454BC3E09CD4
:10451000F0A3E09D12453D40229084A7780A123610
:10452000B98A828B83780A1236328A828B83A3A35C
:10453000A3A3E02420F0A3E0344EF080A0F0888212
:104540008983C3E09420A3E0944E22EA2404F8E493
:104550003BF98C828D83A3A3A3A3E0FCA3E0FD8899
:104560008289832274F51238F5E9FE900744E0FA57
:10457000A3E0FBEE29F8E433F9741128F582748482
:1045800039F583E02AF50AA3E03BF50B780A123AE5
:104590009C9085331236D71243C8740212382F8A82
:1045A0000A8B0B8C0C8D0D7410780A1235D4AA0A64
:1045B000AB0B7F040239A174F11238F58A0E8B0F10
:1045C0008C108D117411123865123AB374111238AF
:1045D00065E02401F50AA3E03400F50BE4F50CF5E1
:1045E0000D780E790A1234D49084AB780A1236B959
:1045F000780E790A1234D4AA0EAB0FAC10AD11129A
:1046000043C8740212382F8B0BEA450B60047A0101
:1046100080027A00EC2AFCE43DFD7413123865E058
:10462000F8A3E0F9E8FEE9FFECF8EDF97A717B0216
:1046300012378E880A890BE4F50CF50D8E828F8374
:10464000780A1236C8ECF8EDF97A717B0212378ECF
:104650008A0A8B0B7405780A1238068E828F83A320
:10466000A3A3A3E50AF0A3E50BF07F080239A1C0DC
:1046700082C083E9906000F0D083D08222C0E074D1
:10468000F21239E1A2AFE433FED2AFC2C0E5D1A24B
:10469000E4500675D10F125986EEA2E092AF7F0169
:1046A000023A40C0E074F21239E1A2AFE433FED224
:1046B000AFE589A2E650057900125908758900C254
:1046C000C5EEA2E092AF7F01023A40C0E074F21260
:1046D00039E1A2AFE433FED2AFE58AA2E7400CE5B0
:1046E0008AA2E64006E58AA2E3500579011259083C
:1046F000758A00758A00758A00758A00758900C2FE
:10470000EB80BEC0E0C0D0E8C0E0E9C0E0A9A8D21C
:10471000AF758B00C2E8E9A2E7E433F8E9A2E792BB
:10472000AFD0E0F9D0E0F8D0D0D0E032C0E0C0D0D7
:10473000E8C0E0E9C0E0A9A8D2AFC2C7E9A2E7E4B7
:1047400033F8E9A2E792AFD0E0F9D0E0F8D0D0D0CA
:10475000E032C0E0C0D0E8C0E0E9C0E0EAC0E0C0BC
:1047600082C083A2AFE433FAD2AF90109DE0F8A3E9
:10477000E0687008539AFBA374018022C2E990108C
:104780009DE0F8740128F0741D28F582E43410F5DA
:1047900083E0F5C190109DE0C394804002E4F0EA0C
:1047A000A2E092AFD083D082D0E0FAD0E0F9D0E09E
:1047B000F8D0D0D0E032C2AF02000022123445E679
:1047C000DE0412344585DF0412344505EE0412344C
:1047D0004546EE0412344593DB04123445A6DB044F
:1047E000123445C7DB0412344532DC0412344573FD
:1047F000DC0412344594DC04123445D5DC04123454
:10480000451DDD04123445E4B504123445F7B50402
:1048100012344528B60412344562B604123445BB3E
:10482000B60412344502B7041234454AB7041234B0
:104830004579B704123445A8B704123445DFB704EC
:1048400012344526B8041234453FB8041234459456
:10485000B804123445ADB804123445FBB804123420
:104860004535B90412344509A1031234450CA2039D
:1048700012344539A2031234458AA203123445ADDD
:10488000A203123445BFA203123445C2A20312345C
:104890004500A30312344574A303123445E0A30377
:1048A000123445A8A403123445CEA403123445089B
:1048B000A5031234459FA503123445F1A503123414
:1048C0004522A6031234452FA60312344599A603A8
:1048D0001234459CA603123445F3A603123445F660
:1048E000A6031234452FA70312344532A70312340E
:1048F000453CA7031234453FA70312344593A70351
:10490000123445DCA703123445ECA7031234451FCB
:10491000A8031234452CA8031234452FA8031234DF
:104920004597A80312344599A9031234453DAA03BB
:10493000123445A6AA03123445E4AA0312344512E0
:10494000C803123445A8C803123445F3C80312340F
:104950004557C903123445E1C9031234459ACA03C5
:10496000123445BCCD0312344539CF031234455CB3
:10497000CF03123445949D04123445399F041234F8
:1049800045599F041234457AA004123445CDA00441
:104990001234452AAA0412344552AA041234457F1F
:1049A000AA04123445B7AA0412344515AB041234D4
:1049B0004561AB04123445C8AB0412344508AC045D
:1049C00012344545AC0412344573AC041234451D11
:1049D000AD0412344527AD0412344534AD0412340D
:1049E0004567AD0412344573AD041234458BAD04F4
:1049F00012344595AD0412344570EA041234457EF4
:104A0000EA0412344596EA04123445AEEA0412343C
:104A100045C5EA04123445008002123445AA8002DA
:104A2000123445BD81021234453982021234455791
:104A300083021234459383021234452E84021234C9
:104A400045128502123445D585021234454D860241
:104A5000123445DB87021234454C88021234450675
:104A60008902123445F88902123445388A02123418
:104A700045EC8A021234451E8B02123445148D0215
:104A80001234455B8D02123445798D02123445DFB4
:104A90008D02123445AE8E02123445728F021234EA
:104AA000459191021234459B91021234454DE00329
:104AB00012344537E103123445E2E1031234453341
:104AC000E203123445E3E20312344554E3031234A3
:104AD0004539E4031234456DE40312344566E503B9
:104AE000123445A3E5031234457FE603123445BE74
:104AF000E603123445DAE603123445F6D5041234DF
:104B0000457AD604123445A5D604123445BFD704DD
:104B100012344523AE0412344539AE0412344557DD
:104B2000AE0412344568AF0412344572AF04123437
:104B3000459DB00412344594B10412344501B204C9
:104B40001234450BB20412344576E004123445ADFC
:104B5000E104123445D9E5011234459BE6011234D3
:104B6000458EE70112344545E80112344553EB0107
:104B700012344542ED01123445F4ED01123445BDC5
:104B8000EE0112344502F201123445ACF201123446
:104B900045D5F301123445A7F501123445E6F50178
:104BA000123445B9F60112344508F701123445456F
:104BB000D301123445D1D30112344535D501123415
:104BC0004541D5011234457CD501123445EBD50160
:104BD000123445F4D601123445FDD701123445C4D0
:104BE000D80112344521DA011234453FDA0112347A
:104BF000455CDA0112344509DB0112344586DB01DC
:104C0000123445AEDB0112344578DE011234457DA5
:104C1000DE0112344596E001123445E4E00112341D
:104C20004554E10112344592E1011234456EE2012E
:104C30001234452EE3011234457AE3011234457DE6
:104C4000E301123445C1E30112344509E401123491
:104C50004548E4011234456AE4011234459EE401FA
:104C600012344501E501123445A38A04123445ACDF
:104C70008A04123445BA8A041234450D8B04123466
:104C8000452C8B04123445718B04123445B58C04C9
:104C9000123445508D04123445948D04123445BEAF
:104CA0008D041234452D8E04123445738E04123453
:104CB00045EA8E041234459B8F04123445135C0080
:104CC000123445B45C00123445105D00123445CDF9
:104CD0005D00123445EE5E001234451D5F00123453
:104CE00045CA6000123445416300123445B1650085
:104CF000123445A366001234459C6700123445A364
:104D00006900123445976C00123445C66D001234A8
:104D100045CA6F00123445DA7000123445697200DA
:104D20001234455A7300123445A8730012344517E3
:104D300074001234453B7400123445DC78001234A0
:104D400045DD79001234453E7A00123445697A0017
:104D50001234452F7B00123445E2F203123445EC45
:104D6000F20312344531F30312344545F303123490
:104D700045D5F3031234450EF40312344549F403C8
:104D800012344572F403123445C0F403123445D58D
:104D9000F403123445EAF40312344512F5031234D5
:104DA0004527F50312344592F503123445A6F50361
:104DB000123445BAF503123445CFF50312344509D0
:104DC000F6031234452DF60312344559F603123416
:104DD00045A1F60312344506F70312344552F70392
:104DE00012344595F703123445BFF703123445EAF0
:104DF000F7031234457CE5041234450FDE02123409
:104E000045F2DE021234456DDF02123445A8DF029E
:104E1000123445F9E00212344582E1021234459A17
:104E2000E3021234452CE602123445DEE602123467
:104E300045EAE7021234455DE902123445B6E9025B
:104E4000123445808504123445C385041234454725
:104E500086041234451A8704123445F18904123449
:104E6000453FFD03123445ECFD03123445F9FE03C2
:104E700012344538FF0312344592FF03123445EED5
:104E8000D70412344551D804123445EED8041234F4
:104E90004523D90412344553D90412344574D90436
:104EA000123445AFD904123445CFD904123445AD7C
:104EB0008F04123445399004123445F890041234AA
:104EC000451092041234452A94041234450080039C
:104ED000123445258003123445F28003123445C64E
:104EE000810312344533820312344589820312341C
:104EF0004525830312344559840312344534850310
:104F00001234459385031234451F86031234458DB0
:104F100086031234451987031234451C8703123463
:104F200045668703123445D887031234456A8803DF
:104F30001234450B89031234452B8903123445730F
:104F40008903123445BC8903123445D889031234CD
:104F500045FE8903123445788A03123445868A0354
:104F6000123445158B031234457E8B031234459B56
:104F70007B00123445207C00123445627C001234E0
:104F800045467D00123445B37D00123445F77D005F
:104F90001234453B7E00123445687E001234459041
:104FA0007E00123445C87E00123445067F0012345C
:104FB000452D7F00123445A77F0012344500800143
:104FC000123445F98101123445E684011234453A20
:104FD00085011234456585011234453E860112343F
:104FE00045798601123445A98601123445BC8601F3
:104FF000123445FD86011234452A87011234457862
:105000008701123445AD8701123445E3870112341C
:1050100045428801123445C78801123445668B0128
:105020001234454E8D011234458A8D0112344508E3
:105030008F011234456A8F011234451F91011234D9
:1050400045A291011234451192011234454D970148
:10505000123445A5970112344587990112344556FB
:105060009B01123445609B011234458B9B01123425
:1050700045AD9C01123445FB9D011234450C9E0147
:1050800012344531CD041234451CCE041234455F30
:10509000CE04123445AECE04123445FFCE04123491
:1050A0004550CF0412344544F602123445BDF60291
:1050B00012344577FC0212344582FD021234452B2E
:1050C000FF02123445B9FF021234452F9E011234FB
:1050D00045B09E01123445DD9E01123445289F01E2
:1050E00012344529A00112344578A001123445F448
:1050F000A10112344576A201123445C5A201123431
:105100004530A301123445E4A30112344581A401C2
:10511000123445FCA40112344586A501123445D948
:10512000A50112344521A701123445A0A80112346B
:10513000456BA90112344578A901123445C8A9016B
:10514000123445D8A901123445FCA901123445FF97
:10515000A901123445E8AA01123445CAAB01123440
:10516000456CAC0112344507AD011234452EAD013A
:105170001234458BAD01123445E2AD011234453095
:10518000AE011234457EAE01123445E7AE01123451
:105190004589AF0112344525B001123445B2B00142
:1051A00012344527B10112344577B101123445D686
:1051B000B101123445FDB101123445BEB2011234C1
:1051C00045AAB401123445F3B40112344525B501A2
:1051D0001234459CB50112344526B701123445DA24
:1051E000B701123445FFB7011234453EB8011234FD
:1051F0004553B80112344596B80112344506B90139
:1052000012344547B9011234455CBA01123445DD08
:10521000BA01123445EFB4031234453AB5031234DF
:105220004546B5031234451AB60312344531B60368
:105230001234456EB6031234459FB603123445D777
:10524000B6031234452DB70312344543B703123465
:10525000457FB70312344592B703123445B9B703FB
:10526000123445EDB70312344513B9031234455DCA
:10527000BA0312344559BB031234456FBC031234D0
:1052800045F6FF0212344512F803123445C0FB0301
:10529000123445F4FC031234455FEA021234451817
:1052A000ED021234451EED02123445CFEF021234E6
:1052B0004529F202123445619404123445F89404ED
:1052C000123445B69504123445E09504123445165F
:1052D000980412344513BB011234454EBB011234FD
:1052E0004593C701123445FFC801123445FCC9017A
:1052F00012344581CD011234457ACE01123445C6AF
:10530000CE01123445E0CE011234451DCF011234D6
:105310004528CF0112344531CF01123445E3CF0186
:10532000123445B3D001123445FAD001123445602D
:10533000D101123445D2D101123445A59102123463
:1053400045E89402123445EE9402123445AA9B02B9
:10535000123445CA9F0212344536C704123445132D
:10536000C80412344557C80412344591C804123495
:105370004529C90412344598C904123445A1C90409
:10538000123445ADC904123445C7C904123445F17D
:10539000C90412344521CA041234453BE7031234D0
:1053A0004548E70312344562E70312344595E703A5
:1053B000123445D3E70312344538E8031234454D1F
:1053C000E80312344558E80312344565E803123403
:1053D000457CE8031234458AE80312344599E80312
:1053E000123445AEE803123445C3E803123445CE07
:1053F000E803123445DAE803123445E7E8031234CF
:1054000045F6E80312344501E90312344526E90361
:10541000123445CAE903123445DAE903123445EF80
:10542000E90312344509EA0312344526EA0312342B
:105430004543EA031234454EEA03123445FAEA03BF
:10544000123445DBEB0312344500EC031234450BF8
:10545000EC0312344520EC0312344534EC031234CF
:105460004595EC031234459BEC03123445A1EC0343
:10547000123445A7EC03123445BFEC03123445F255
:10548000EC03123445B19603123445D3960312341B
:10549000459B9703123445559A031234456B9B0381
:1054A0001234458C9C03123445669D031234451515
:1054B0009E031234458CD00212344523D10212349B
:1054C00045BBD102123445ABD202123445E2D202BE
:1054D000123445F5D20212344563D302123445FE2C
:1054E000D40212344525D502123445C7D5021234F0
:1054F00045FCD5021234450DD60212344586D6023B
:10550000123445A7D602123445BFD60212344517CD
:10551000D80212344520DA0212344570DC0212340B
:105520004573DD02123445C2DD02123445EBB3028D
:10553000123445E8B402123445D3B502123445DDC5
:10554000B502123445E7B50212344509B6021234E9
:105550004515B60212344567B70212344596B702B4
:10556000123445C6B80212344508B9021234453423
:10557000BA021234450ABB021234455CBB02123433
:1055800045BBBB02123445F2BB021234452DBC02AE
:10559000123445C8BF02123445E1BF0212344563DC
:1055A000C00212344571C002123445C6C002123422
:1055B00045D4C00212344541C102123445B3C10280
:1055C000123445F9C102123445A18B03123445C38C
:1055D0008B03123445AD8D031234455291031234BE
:1055E000459592031234456F9303123445DDD90477
:1055F00012344502DA0412344573DA041234457F5A
:10560000D00312344588D00312344591D0031234AC
:1056100045C2D103123445E1D30312344517D403F4
:1056200012344551D40312344587D403123445C192
:10563000D403123445F5D40312344521D503123472
:10564000456AD503123445A4D503123445ECD5037D
:1056500012344542D60312344577D603123445D26C
:10566000D6031234450CD7031234455DD7031234E8
:105670004593D703123445CDD703123445FBD703E6
:105680001234451ED80312344521EC041234454D22
:10569000EC04123445A8EC04123445B2EC04123484
:1056A00045C2EC04123445FCC3041234452EC40434
:1056B0001234454BC404123445F9C4041234454530
:1056C000C504123445FFC504123445DAA10412346E
:1056D0004521A20412344536A20412344594A20492
:1056E000123445EDA2041234453CA304123445950E
:1056F000A304123445A2A4041234459BA504123419
:1057000045D8A5041234458DEF04123445C7EF0483
:105710001234454FCA04123445BACA0412344584BF
:10572000CB04123445A9CB0412344565CC041234A1
:105730004571CC04123445C7CC041234458AE804C0
:10574000123445CFE8041234457CE9041234458C08
:10575000BE031234454DC0031234458BC1031234CD
:1057600045A6C203123445A9C203123445ECC30353
:1057700012344562C603123445E7C603123445CCE1
:10578000C70312344503E20412344532E2041234F2
:10579000454EE204123445DFE204123445FDD304E1
:1057A0001234452FD404123445A4D4041234455A7B
:1057B000D50412344515EF0412344525A3021234E2
:1057C00045A1A50212344545A702123445A2A702FD
:1057D0001234454BA80212344548A902123445AB95
:1057E000AC02123445EBAC021234458BAE021234DB
:1057F00045BCAE0212344511AF021234455EAF0211
:10580000123445CFAF02123445F3AF021234450DC6
:10581000B00212344553B10212344589B102123438
:1058200045F9B20212344572B302123445BDB302D7
:1058300012344515B20412344547B204123445708F
:10584000B20412344523B30412344574B304123441
:10585000455EB4041234451399041234456B99041F
:10586000123445B39A04123445229B04123445D1B4
:105870009B04123445F09B04123445449C041234BA
:1058800045829C0412344534E304123445EBE304AE
:1058900012344522E40412344510F204123445C790
:1058A000F10412344506F204123445E77F00123445
:1058B00045F37F00123445E3FF02123445CCEC047B
:1058C000123445D7EC0412344503ED041234456B11
:1058D000ED0412344590E60412344514E704123402
:1058E000457AE70412344555EB0412344589EB043C
:1058F000123445B2EB041234455FE4041234457FA0
:10590000E404123445D5E40412344521E50412348C
:10591000459DB904123445B2B9041234452BBA047A
:1059200012344500BB04123445D2BC041234452164
:10593000F204123445EEF00412344546F1041234F8
:10594000452CBD04123445BEBD041234453CBE0492
:10595000123445BCBE041234454DBF041234459F79
:10596000BF04123445A9BF04123445B8BF04123431
:1059700045CEBF04123445E1BF041234452EC004A5
:105980001234458FC004123445A3C0041234457547
:10599000ED04123445DFED04123445EAED0412340F
:1059A00045FAED04123445ACD80312344535D90319
:1059B0001234454CD9031234450EDA03123445F043
:1059C000DA0312344591DC0312344562DD031234EC
:1059D00045B6DE031234453EDF031234457FE90449
:1059E000123445A8E904123445D1E904123445E9DA
:1059F000E9041234452BEA0412344574ED031234E1
:105A0000457EED03123445BEED0312344507EE0327
:105A100012344541EE0312344597EE03123445B675
:105A2000EE03123445BFEE0312344510EF03123477
:105A30004539EF031234454EEF03123445BEEF03F0
:105A40001234454CF00312344590F003123445B83B
:105A5000F00312344537F1031234457AF10312345E
:105A600045B7F103123445C9F103123445E8F10397
:105A7000123445F1F103123445B6F20312344548AD
:105A8000DD0412344599DD0412344522DE0412345B
:105A90004588DE04123445A6C004123445D0C00443
:105AA000123445C5C104123445EAC1041234458B91
:105AB000C20412344511C30412344593E70412346E
:105AC000457BF004123445FBD10412344531D20435
:105AD0001234456AD204123445C3D3041234450546
:105AE000F0041234451BF00412344525F00412343E
:105AF00045FEF701123445BBF801123445F6F801B2
:105B00001234451EF90112344580F901123445CC96
:105B1000F90112344537FA01123445B3FA0112344F
:105B200045AFFB0112344536FD01123445B9FD0184
:105B30001234451DFE0112344534FE011234452A4B
:105B4000FF0112344576FF0112344510A6041234C9
:105B50004525A604123445D8A60412344518A704D6
:105B600012344531A70412344564A704123445B1F8
:105B7000A704123445E5A70412344527A8041234BB
:105B8000451DAA0412344582C2021234453BC602A6
:105B9000123445CDC70212344513C8021234452AC7
:105BA000C80212344549C802123445C7C80212342B
:105BB0004568CA021234454CCB0212344510CF025C
:105BC000123445E4CF02123445A2CF041234450703
:105BD000D0041234454FD00412344523D10412347A
:105BE00045CED1041234450AAB03123445D4FF012B
:105BF000123445DDFF0312344592EE04123445BCE5
:105C0000EE04FFFFFFFFFFFFFFFFFFFFD083D08207
:105C100002344274F6123889E9900340F09003A0F0
:105C2000E0F50A750B007402780A123806AA0AAB6E
:105C30000B125AD090034112659990034112698664
:105C4000606F9003A0E075F003A4FAABF0125AD095
:105C500090035E12659990035E126986700B900343
:105C600041126957125AD6804890035E12789A7A88
:105C7000FF7BFF1258547A0080198A0A750B007452
:105C800002780A12380612739374FF125DC6E4F0AC
:105C9000A3F00A9003A0E0F8EAC39840DD7905126A
:105CA0004CCC900340E0F9124BB87A4A7B4D124F2E
:105CB0007202743674F41238898A0A8B0BEB5480A2
:105CC0006047900340E0F9125A3A8A0C8B0DAE0CF3
:105CD000AF0DEE4F602A8E828F83E064B0701A128F
:105CE0004CD8E960148E828F83A3A3A3A3E0F9EEBE
:105CF0002405FAE43FFB124CB4EEFAEFFB125A28EB
:105D0000AA0AE50B6480FB80047A007B00025EE94E
:105D100074F212388974FB123819EAFEEBFFEE4F69
:105D200060457403123865EEF0A3EFF0851A8285A2
:105D30001B83ECF0A3EDF07402123865E9F0AA1AA7
:105D4000AB1B124BB2E9F50A70757413123865E09B
:105D5000F50CA3E0F50DE50C450D60638E828F8395
:105D6000126322EE4F7005750A0280537A067B009B
:105D7000125AD08A0E8B0FA80EA90FE8497005752C
:105D80000A13803B88828983E4125DC6EEF0A3EF9C
:105D9000125EE2E50CF0A3E50DF0900344125EDB29
:105DA0009003446017E0FCA3E08003EAFCEBFD8C69
:105DB000828D83125EDB70F38C828D83126FAEA9AD
:105DC0000A7405027B1AF0A312787CA32274F212E3
:105DD0003889890A890E750F007403780E12380607
:105DE000850E0C850F0D900343F0900341126DB9A1
:105DF000125ED9602E125AD67900801D890E750F59
:105E0000007402780E123806900341127252888292
:105E1000F583A3A3E4F0A3F0099003A0E0F8E9C39D
:105E20009840D99003A0E0FA850CF0A4CAA8F085A8
:105E30000DF0A428FB125AD08A0E8B0FAE0EAF0FB6
:105E4000EE4F7003025ECF9003A0E0FC850CF0A43F
:105E5000CCA8F0850DF0A428FD7900125A167C001C
:105E600080318D0E750F007403780E1238068A8209
:105E70008B83125ED488828983E4F0125EE1A3A34F
:105E8000F0A3F00DEDC3950A40D8EE250CFEEF35DA
:105E90000DFF0C9003A0E0F8ECC39850288C0E7511
:105EA0000F007402780E123806900341125ED4E897
:105EB0002402500109FAE9FB8A828B83EEF0A3EFFA
:105EC000F07D0080BFE50A900343F07900800279FD
:105ED00013027B1D127256F922A3A312695BEA4BCF
:105EE00022A312787CA3A3A3227F0402395BC08281
:105EF000C083900344126986601C88828983A3A3AF
:105F0000E06A7003A3E06B8882898370E8A3A3A38F
:105F1000A312695780047A007B00025C0C74F212B1
:105F2000388974FD123819EAFEEBFF851A82851B49
:105F300083E4F0A3F074021238657401F0126983EF
:105F40007014124EA6125AD0900347126599126926
:105F50008370030260AF126699EE2404F50CE43FEF
:105F6000F50D850C82F583E024FE603C24FC607412
:105F700024FE607E24FE7003025FFF24FE70030295
:105F8000600C24FE700302601924FE700302602678
:105F900024FE700302603324FC700302605424FE6C
:105FA000700302606C0260A8124EA6900349EAF0EA
:105FB000A3EB1260BB124810E960030260A89003D3
:105FC00049123AB38E828F83A3A3A3A3A312789A14
:105FD000850A82850B83126957124C9C7402123811
:105FE0002F0260A8AC1AAD1BEEFAEFFB124CDE02DA
:105FF0006077AC1AAD1BEEFAEFFB124CE48078AC84
:106000001AAD1BEEFAEFFB124CEA806BAC1AAD1B1B
:10601000EEFAEFFB124CF0805EAC1AAD1BEEFAEF1D
:10602000FB124CF68051AC1AAD1BEEFAEFFB124C92
:10603000FC8044740212386F880E890F780E123A71
:106040009C740212387FEEFAEFFB124D02740212BA
:10605000382F8023AC1AAD1BEEFAEFFB124D08E986
:10606000F870167402123865E4F0803CAC1AAD1B6F
:10607000EEFAEFFB124D0EE9F8E8602C8E828F836A
:10608000A3E064146022850C82850D83E0900349AF
:10609000F0851A82851B8312695790034A1265990D
:1060A000E8A31260BB12480AEEFAEFFB124C7274BE
:1060B00002123865E0F97403027B1AF07C497D0313
:1060C000850A82850B8312695B2274E81238897411
:1060D000FA1238197404123865ECF0A3EDF08A1442
:1060E0008B15EA2405F510E43515F511EA2402F5BF
:1060F00012E43515F513851282F58312695712499A
:10610000368A0C8B0D750A007C037D0079007A4974
:106110007B03125A16E5102402F518E43511F5191F
:10612000740212386F880E890F780E123A9C85100F
:1061300082851183A3A3A3A3E0F50E750F00780E4B
:10614000123A9CE5102405F50EE43511F50F780E92
:10615000123A9C851882851983126C5E124BD0749A
:106160000612382F8A0E8B0FE50E450F7003026260
:10617000EB8020851A82851B83E088828983F00565
:106180000A851A82851B83A3E0C0E012632CD0E04D
:10619000F0050AE50C24FBFAE50D34FFFBC3E50A24
:1061A0009AE49B40030262EB7E007F0085148285A7
:1061B0001583A3A3A3A3E0F50B780B123AA0E4F593
:1061C00016F5177816123A9C751646751703781649
:1061D000123A9C900347123AB37409123865123A86
:1061E000B3E50C24F9F9AC0EAD0F8512828513834B
:1061F000126957124D32740912382FE96003026296
:106200008C851082851183A3A3A3A3A3A3A3E0F885
:10621000900346E0687075E0F5168E177816123A0E
:106220009C127897851082851183A3A3A3A3A3A3AF
:10623000A3A3126957125A10740212382FE9604C46
:1062400090034A126986703BE4F5167816123A9C60
:106250007CFF7DFF790785128285138312695712AF
:106260004CAE740212382F12698C7017851082851B
:106270001183127A347404123865127346126C8FCB
:1062800002631F850E82850F83126322A81AA91B41
:10629000881689177816123A9C7404123865123AD7
:1062A000B385188285198312658F124BDC74041232
:1062B000382F8A0E8B0FEE4F700302616812632C29
:1062C000EE126337126C45EF126337F8A3E0340027
:1062D000F9E50E450F60030261738882898374FFBC
:1062E000F0050A12632C74FFF0050AE50A601A1320
:1062F00013543F12659F12481CE9600990034A122B
:106300006957125A8279008016851082851183128E
:106310007A347404123865127346126FAE790A0229
:106320006C18A3A3A3A3E0FEA3E0FF22A80A900396
:106330004AE028126C4522F0050A0890034AE0283A
:106340002274E812388974FA123819740212386506
:106350001265997404123865ECF0A3EDF074021222
:106360003865E02405126C2EE0F50EA3E0F50F74FD
:1063700002123865E02402F512A3E03400F513851B
:106380001282F583126957124936750A00750B009F
:10639000EA24FCFEEB34FFFF8008050EE50E7002D8
:1063A000050FA80AC3EE98EF9400500302654BA8AE
:1063B0001AA91B881089117810123A9C85168285BB
:1063C0001783A3A3A3A312789E123A9CE516240573
:1063D000F510E43517F5117810123A9C8516828570
:1063E000178312658D124BD0740612382F8A108BCA
:1063F00011EA4511700302654BEA2404F518E435EF
:1064000011F519851882F583E0F50EA3E0F50F85E7
:106410001A82851B8312789A8A828B83A3A3A3E0B6
:10642000F9851282851383126957124BBEE9F50B69
:10643000600302654B7402123865126C55F50B78D7
:106440000B123AA0E4F514F5157814123A9C751461
:10645000467515037814123A9C900347123AB374A8
:1064600007123865123AB3EEF9AC10AD11851282FD
:10647000851383126957124D32740912382FE9F5CA
:106480000B600302654BE50A703FE4F510F51178E7
:1064900010123A9C7CFF7DFF790985128285138357
:1064A000126957124CAE740212382F126C7B700DA9
:1064B0007404123865126582791102657F90034673
:1064C000E0240290034AF0801490034AE0FA90031B
:1064D00046E0790024025001096A497072A80A90C6
:1064E0000346E0FAE82AFAE43400FBEE9AEF9B4018
:1064F0005A851882851983E0C0E090034B126331FE
:10650000D0E0F0050A851882851983A3E0C0E00871
:1065100090034B126331D0E0F0050A9003461278E5
:106520009E123A9C127897A80A126C221259FE7495
:106530000212382F900346E0250AF50A74FF650E13
:10654000700474FF650F600302639AE50A601F9090
:10655000034AE0F5F0E50A8412659F124822E960DB
:106560000990034B126957125A8279008011E50B8A
:106570007003750B0A7404123865126582A90B0248
:106580006C18126DBDE50EF0A3E50FF022A3A31267
:106590007B29AA0EAB0F22A3A3EAF0A3EBF0229073
:1065A0000349F07C497D0385128285138312695B60
:1065B0002274EC12388974FC1238191270BE7402FD
:1065C00012387F126951124BD68A0E8B0FEA450F93
:1065D0007003026689126699A81AA91B881289138A
:1065E0007812123A9C7CFF7DFF790B850A82850B1D
:1065F00083126957124CAE740212382F12678F70D3
:106600000C850C82850D83126C8C0266968E828FAF
:1066100083A3A3A3A3E0F5147814123AA0E4F5141D
:10662000F5157814123A9C751449751503781412EF
:106630003A9C7812123A9C7409123865123AB37473
:1066400009123865E0F9AC0EAD0F850A82850B831F
:10665000126957124D32740912382FE9FE70157CF9
:10666000497D03850A82850B83126957124828E900
:106670007009802074166E70027E0090034A1269C1
:1066800057125A82EE7004800B7E01850C82850DB4
:1066900083126FABEEF9026FC0EE2402F50AE43FFD
:1066A000F50B2274EC12388974FC123819EAFEEBEF
:1066B000FF8C108D11EE2405F50AE43FF50B7402F2
:1066C00012387F850A82850B83126957124BD68A4E
:1066D0000E8B0FEA450F700302677FEE2402F50C64
:1066E000E43FF50DA81AA91B881289137812123AF3
:1066F0009C7CFF7DFF790D126951124CAE74021221
:10670000382F12678F700B850A82850B83126C8C71
:10671000807A8E828F83A3A3A3A3E0F5147814124A
:106720003AA0850A82850B83A3A3123AB375144954
:106730007515037814123A9C7812123A9C74091257
:106740003865123AB37409123865E0F912694D12CE
:106750004D32740912382FE9FE700F7C497D031207
:10676000695112482EE97009802074166E70027EFD
:106770000090034A126957125A82EE7004800B7E11
:1067800001850A82850B83126FABEEF9026FC0128E
:106790006996F512A3E0F513EA45132274E812385E
:1067A0008974FE1238198A188B198C168D17EA24F1
:1067B00005F50EE43519F50FEA2402F510E4351954
:1067C000F511851082F5831269571249368A0A8BB2
:1067D0000B750D007C037D0079007A497B03125A0A
:1067E00016750C00E50A14F5120424FFF50AE50BF2
:1067F00034FFF50B8054900349E0FA900346E0F82B
:10680000EA28F8E43400F9E50A98E50B99500D9070
:106810000349E0F8E512C398900346F0E0F51475DB
:1068200015007814123A9C12789790034AE02AFADD
:10683000A3E03400FB1259FE740212382F90034675
:10684000E0F8900349E028F0050C850E82850F835F
:10685000A3A31272624003026932900349E0C39518
:106860000AE4950B4003026932AE0CEE2EFEE433CF
:10687000FF126971AC1AAD1B1278B2E439FB124BEE
:10688000D68A148B15AC14AD15EC4D701B750D012B
:10689000126961126FAF90034A125EDB6003125AF5
:1068A00082A90D7402026C1A851882851983A3A32C
:1068B000A3A3E0F50D780D123AA0E4F514F51578D0
:1068C00014123A9C7514467515037814123A9C906C
:1068D0000347123AB37407123865123AB3A9128506
:1068E0001082851183126957124D32740912382FA4
:1068F000E9F50D709B90034A12698660030267F602
:10690000E4F514F5157814123A9C7CFF7DFF790F9D
:10691000851082851183126957124CAE74021238A9
:106920002F12698C60030267F6126961126C900283
:1069300068A37C497D0385108285118312695712F3
:106940004834E9600302689679000268A3AC0EAD92
:106950000F850C82850D8312695B22E0FAA3E0FBB0
:1069600022126971E0FAA3E0F9EA8516828517839D
:1069700022850E82850F83E02EF8A3E03FF98882FE
:10698000898322900347127A38E84922126996F8DF
:10699000A3E0F9E8492290034AEAF0A3EBF0900360
:1069A0004AE02274E812388974FA12381974041211
:1069B00038651265998C188D197404123865E024B5
:1069C00005F510A3E03400F5117404123865E024D5
:1069D00002126C2E1269571249368A0C8B0D7F00F9
:1069E0007E00A81AA91B880A890B780A123A9C858E
:1069F0001082851183A3A3A3A3E0F50A8E0B780A66
:106A0000123A9CE5102405F50AE43511F50B780AD5
:106A1000123A9C851082851183A3A3126C5E124BDF
:106A2000D0740612382F8A0E8B0F8029126C4FF00B
:106A30000F126C4FF00F900346126F9A123A9C128D
:106A40007897EFF8126C221259FE740212382F90C8
:106A50000346E02FFFE50E450F7003026ADE851A3C
:106A600082851B831270D0A3A3A3E0F985168285CB
:106A70001783126957124BBEE9FEE50E2404F51286
:106A8000E4350FF513EE70507404123865126C552E
:106A9000F50A780A123AA0E4F50AF50B780A123AD8
:106AA0009C750A46750B03780A123A9C90034712AC
:106AB0003AB37407123865123AB3E50C24FAF9AC0C
:106AC0000EAD0F851682851783126957124D3274E9
:106AD0000912382FE9FE6039126C6B126FAEEF703D
:106AE00003026C0590034AE0F5F0EF84900349F04F
:106AF0007C497D0385168285178312695712483AAF
:106B0000E9600990034B126957125A827900026CAE
:106B1000188F0AEF703BE4F514F5157814123A9CBF
:106B20007CFF7DFF791185168285178312695712C4
:106B30004CAE740212382F126C7B7009126C6B12FF
:106B40006C8F026C18900346E0240490034AF08096
:106B500035900346E0F890034AE0FAE82404FCE4A8
:106B60003400FDEC6A4D6003026AE4E50C24FAFA95
:106B7000E50D34FFFBE50A28F8E43400F9EA98EB68
:106B8000995003026AE4851282851383E0C0E09085
:106B9000034BE02FF8A3E034008882F583D0E0F0C7
:106BA0000F851282851383A3E0C0E0126C3CD0E015
:106BB000F00F740212386F880A890B780A123A9C17
:106BC0007402123865123AB38510828511831265FA
:106BD0008D124BDC740412382F8A0E8B0FEA450F8E
:106BE0007003026A2C7402123865E0C0E0126C3C3B
:106BF000D0E0F00F7402123865A3E0C0E0126C3CE4
:106C0000D0E0026A34EE70027E0A8510828511831C
:106C1000126C71126FAEEEF9740612382F7F1002EB
:106C2000395B90034BE028FAA3E03400FB22F51611
:106C3000A3E03400F517851682F58322126C4022FA
:106C400090034BE02FFAA3E034008A82F5832212EE
:106C50006C4074FF22126DBDA3A3A3A3E022127B9C
:106C60002985108285118312695B22851282851322
:106C700083127A388518828519832290034BEAF0B3
:106C8000A3EBF090034B127A38E84922126FB4E874
:106C9000F0A3E9F079112274EA12388974FE1238EF
:106CA000198A0A8B0B8C148D15EA2405FEE4350B2A
:106CB000FFAC1AAD1B8E828F83126957124BD68A96
:106CC0000E8B0FEE2406F510E43FF511EA450F7028
:106CD00003026D8FE50A2402F50CE4350BF50D8AED
:106CE000828B83A3A3A3E0A2E55028851A82851B8B
:106CF00083126957124D2C8A128B13EA45136020B8
:106D0000791212694D851282851383123887E9F54D
:106D10000E707F851082851183E0600979528011A1
:106D2000750E0E806D850A82850B83A3A3A3A3E055
:106D3000F9E4F50AF50B780A123A9C8E828F83A348
:106D4000A3E0F50A780A123A9C8E828F83A3A3A34C
:106D5000123AB38E828F8312789A126951124D388B
:106D6000740612382FE9F50E701185108285118393
:106D7000E0702D12695112484080257416650E701E
:106D800011750E007418123865126DB9E480107513
:106D90000E01127A30851482851583E8F0A3E9F09C
:106DA000851082851183E0600479008002A90E7449
:106DB0000212382F7F0E02395B126DBD22E0F8A35C
:106DC000E0F58388822274EC12388974F71238193E
:106DD0008A0C8B0D8C128D13EA2405FEE4350DFF11
:106DE000750E00AC1AAD1B8E828F83126957124B41
:106DF000D68A0A8B0BEA450B7003026F85E50C24DB
:106E000002F50C5002050D8A828B83A3A3A3E0A296
:106E1000E5502F851A82851B83126957124D2C8AE3
:106E20000E8B0FEA450F604F7912AC0AAD0B126959
:106E300051850E82850F83123887E9F50E600302B3
:106E40006F88850C82850D83E0F50AA3E0F50BAA17
:106E50000AFB124D20EA4B70197AFF7BFF124D207E
:106E6000EA4B7003026F7B8A828B83E50AF0A3E50D
:106E70000BF0750A008008750E0E026F88050A90E7
:106E80000343E0F8E50AC3984003026F7B850A10CC
:106E9000751100740378101238068A828B83A3A3BD
:106EA000E02510F8A3E0351112734F70D08E828F59
:106EB00083126FA31265998E828F83A3A3126FA38F
:106EC000126597EE2404F50AE43FF50B850A82F576
:106ED00083E088828983A3A3A3A3F0A3E4F0EE2434
:106EE00005F510E43FF511851082F583126FA3A319
:106EF000A3A3A31265977514077515007814123AA9
:106F00009CEEFCEFFD74041238771259FE740212E5
:106F1000382FE4F5147814123A9C850A82850B8385
:106F2000E0FC7D007917126951124CAE74021238E0
:106F30002F74071238651265997407123865E0FAE4
:106F40004B603D850A82850B83126F9A123A9C85AD
:106F5000108285118312789A1259FE740212382F0A
:106F6000740212387F126951124846E9602674078C
:106F7000123865126957125A828019750E098008F5
:106F8000750E118003750E01127A308512828513F9
:106F900083126FAEA90E74098028E0F50A750B0004
:106FA000780A2212695B8882898322126FB4E8F022
:106FB000A3E9F022E0F8A3E0F9851082851183228D
:106FC000740412382F7F0C02395B74EC123889126A
:106FD00070BE751200EE2402F50EE43FF50F850E2B
:106FE00082F583126957124D208A0A8B0BEA450BF2
:106FF00070030270A2850C82850D83E0640160033A
:10700000027097AC0AAD0BAA0CAB0D124D14E960DF
:107010006E850A82850B83126324EE2406F50CE448
:107020003FF50D8E828F83A3A3123AB38E828F8396
:10703000A3A3A3A3123AB3850C82850D83123AB39E
:1070400079188E828F831270D0126957124D38745E
:107050000612382FE9F8741668700B850C82850DBE
:1070600083E4F0A38014E860128E828F8312695744
:10707000851082851183EAF0A3EBF08812801878DE
:1070800010123A9CAC0AAD0BEEFAEFFB124D1A74DB
:107090000212382FE9F512AA0AAB0B124D26E5129F
:1070A000700E850E82850F8312695712484C800935
:1070B000741665127003751200A912026FC5EAFEFC
:1070C000EBFF8C108D11EE2405F50CE43FF50D223D
:1070D000127B29850E82850F832274EA1238897506
:1070E0000A00750B007E007F00750C00EC2402F591
:1070F00012E43DF5138035EC650A7003ED650B6015
:107100000302718F88828983A3A3E06A7003A3E0DE
:107110006B707C88828983A3A3A3A3127A34EE28A0
:10712000FEEF39FFEA28FAEB39FB050C12725F50CB
:107130003A850C0E750F007403780E12380685120E
:107140008285138312725212734F601FE50A450B3A
:1071500070A58C0A8D0B88828983126322888289AC
:1071600083A3A3E02EFAA3E03F80BEE50CC3940204
:10717000500302724D750A00750B00EE4F6010EE61
:10718000FAEFFB125A7C8A108B11EA4511700579CF
:107190000002724F750D00027222850D0E750F00F0
:1071A0007403780E123806851282851383E0250E4B
:1071B000F50EA3E0350FF50FE50E2406F516E435C0
:1071C0000FF517851682F5831273546042E50E247D
:1071D00004F514E4350FF515851482F583123AB3DE
:1071E000E510250AFAE511350BFB1259FE7402125F
:1071F000382F851482851583E0250AF50AA3E0352A
:107200000BF50B851682851783126957125A82E592
:107210000D600D7C087D007900AA0EAB0F125A1686
:10722000050DE50DC3950C500302719A85128285F8
:107230001383127A3488828983A3A3A3A3A3A3E52B
:1072400010F0A3E511125EE2EEF0A3EFF079010277
:107250006DB412725622E0250EF8A3E0350F22908D
:107260000343E0F8E50CC3982274F01238898A10C1
:107270008B118C0C8D0D750F00750E0080507916DA
:10728000EE2406F50AE43FF50B8E828F83A3A3124A
:107290003AB38E828F83A3A3A3A3123AB3850A8243
:1072A000850B83123AB3851082851183A3A31269DB
:1072B00057124D38740612382FE9F50F7416650F02
:1072C000706C850A82850B83E4F0A3F0050E9003B1
:1072D00043E0F8E50EC3985066AA0E8A0A750B00C3
:1072E0007403780A123806850C82850D83A3A312D5
:1072F000739EE8FEE9FF8E828F831273546040EA2A
:107300002401F50AE43400F50B900343E0650A70AC
:1073100002E50B601488828983A3A3A3A3A3A3A37C
:10732000A3126986600302727E7918027280E96096
:107330009B127A307410123865127346126FAEA920
:107340000F7F0802395BE0FAA3E0F5838A8222F915
:1073500088828983127B29EC4D2274F61238897C4D
:107360000080010C9003A0E0F8ECC398501E8C0A3A
:10737000750B007402780A123806127393E06A7073
:1073800003A3E06B70DDE8FAE9FB80047A007B0080
:1073900002743690034112739E8882898322E0250D
:1073A0000AF8A3E0350BF92274F21238898A0A8BA5
:1073B0000B750C0080278E828F83A3A3A3A3125E7C
:1073C000D96003125A827C087D007900EEFAEFFB47
:1073D000125A168E828F83E4F0A3F0050C12725FAE
:1073E0005027850C0E750F007403780E1238068531
:1073F0000A82850B83A3A3E0250EFEA3E0350FFFD1
:107400008E828F8312698670AD850A82850B8374A4
:10741000FFF0A3F0027B1D74F6123889124CD28A59
:10742000828B83E582458370067A007B008007A308
:10743000A3A3A31269577F0202395B74E81238894B
:1074400074FB123819E9851A82851B83F08A188B20
:1074500019ECFEEDFF7512008E828F83A3A3A3E0CB
:10746000A2E4502D741D123865126957124D2C8AF2
:10747000828B83E58245837003027872790AEEFC81
:10748000EFFDAA18AB19123887E9F51260030278EC
:1074900075741F123865E0F50AA3E0F50B7421122C
:1074A0003865E0F50CA3E0F50D7423123865E0F5BE
:1074B00010A3E0F5118E828F83E0640260030278EE
:1074C00013A3127A34850A82850B83A385821485DF
:1074D0008315EE2406F50EE43FF50F8882898312AA
:1074E00078B2F516E439F5177816123B260100003C
:1074F000280128157507000228DA75032848750049
:10750000290977012934770229D5760329097704D7
:1075100029AD771378E5104511600302780E850ECA
:1075200082850F83127A34E8FAE9FB8A828B83E042
:10753000850C82850D831278BD123A9C8A828B83DA
:10754000A3E0FCA3E0027797E51045116003027801
:107550000E850C82850D837401F01278A7850A824E
:10756000850B83F07C007D008E828F83A3A3A3A371
:10757000E02401FAA3E03400FB124BD6EA4B604052
:107580008A828B83E02402F8850C82850D83E028B3
:10759000F0EA2404F8E43BF988828983E0851482C8
:1075A0008515831278CB1278BD123A9C8A828B8320
:1075B000A312789AE50A2403FAE4350BFB02779CC0
:1075C000850C82850D83E02404F07C047D00790025
:1075D000AA14AB15125A16027875E510451160030E
:1075E00002780E1278A7FEA3E0FF850C82850D833A
:1075F0007404F0EE850A82850B83F0EF8514828592
:107600001583F0740312387FEEFAEFFB124BD68A23
:107610000E8B0FEA450F70030276B88A828B83A324
:10762000A3126322740112386F8810891178101226
:107630003A9C7405123865123AB37CFF7DFF124BF9
:10764000DC740412382F8B11EA45117033850E82D9
:10765000850F8312789E123A9C850E82850F83A334
:10766000123AB37C027D007A4D7B85124924740462
:1076700012382FE9700A740112386574FFF0A3F014
:107680008E828F83E064027039750E02750F007868
:107690000E123A9C8E828F83A312789AE50A2404F4
:1076A000FAE4350BFB1259FE740212382F850C8256
:1076B000850D83E0240280097401123865EEF0A381
:1076C000EFF0740112386512788C7401123865126B
:1076D0007883027808E5104511600302780E850E64
:1076E00082850F83127B22AA18AB1912586C850C65
:1076F00082850D837402F0850A82850B83EAF0850A
:107700001482851583EB02780BE5104511600302A6
:10771000780E1278A7F8A3E0F9850C82850D8374A2
:1077200002F0E8850A82850B83F0E98514828515CD
:107730008302780B850E82850F831269571259F8E0
:10774000EAFAF8C39510E49511405CE8651045111C
:1077500070047A008021851A82851B83E0FCE51085
:107760002CFCE43511FDC3EC98ED94005003E0804F
:1077700005E510CAC39AFAEA850C82850D83F08A62
:107780000C750D00780C123A9C850E82850F83E0F3
:107790002510FCA3E03511FDAA0AAB0B1259FE74AB
:1077A0000212382F027875751207027875E51045B8
:1077B00011705B850E82850F83127A34850C828569
:1077C0000D837407F08882898312788412787CE0B4
:1077D000851482851583F0E82402FAE439FB8A8255
:1077E0008B8312788C8A828B83127883A3A3125E98
:1077F000E1127891F0E82405F85001098882898324
:10780000127891A31278CBA3A3A3A3F0806775127B
:107810000B8062741D123865126957124CD28A822D
:107820008B83E5824583604A127A34880E890FE89B
:10783000450F603E7425123865E0F5127812123A51
:10784000A07810123A9C780C123A9C780A123A9C52
:107850007407123865E0F9EEFCEFFDAA18AB198544
:107860000E82850F83123887740712382FE9F512BC
:10787000800375120EA9127405026C1AF0888289B1
:1078800083A322A3E0850A82850B83221278D2F09B
:10789000221278D2A3A322900347127B2922E0F57B
:1078A00010751100781022850E82850F83126DBD30
:1078B000E022E0FAA3E0F8E4C8F9EA2822F08A829C
:1078C0008B83E0F50C750D00780C2212787C127811
:1078D000D222E0850A82850B83A3A32274EE12389C
:1078E0008974FE1238198A0A8B0BECFEEDFF890CA5
:1078F000AC1AAD1BEEFAEFFB124BD68A0E8B0FEAD9
:10790000450F70030279C4851A82851B831269575B
:10791000124CD28A828B83E582458370030279BF41
:10792000A3A3127A3488108911E8451170030279F3
:10793000BF7414123865E0F512A3E0F513E50CF5F9
:107940000D780D123AA07419123865123AB37812F4
:10795000123A9C741B123865E0F9AC0EAD0FAA0AFE
:10796000AB0B851082851183123887740512382F6E
:10797000E9F50D705274FE650C604C850E82850F22
:1079800083E0640270411279D3FAA3E0F9EAF87453
:1079900002687003742969702E8512828513831220
:1079A00078B2F50EE439F50F780E123A9CEEFCEF42
:1079B000FDAA0AAB0B124D50740212382F800875C5
:1079C0000D0E8003750D01A90D740212382F7F0A68
:1079D00002395BA3127A3888828983E02274F61216
:1079E000388974FE123819740C123865127A34E82A
:1079F000851A82851B83F07401123865E9F0E4F57D
:107A00000AF50B780A123A9C750A02780A123A9C17
:107A1000740412386F880A890B780A123A9C79FE2E
:107A2000124D38740612382F740212382F02743631
:107A30008E828F83127A3822E0F8A3E0F92274F75D
:107A4000123889EAFEEBFF890A90035E12789A12D7
:107A5000586CEA5402600BA90AEEFAEFFB124BCA0B
:107A6000800279017F0102395B74F212388974FE59
:107A7000123819EAFEEBFF890C7401650C6014746E
:107A800002650C6003027B187901124F90E96003D4
:107A9000027B18EEFAEFFB124D20EA4B6003124D09
:107AA00026A81AA91B880A890B780A123A9C750A1B
:107AB00002750B00780A123A9C750A55750B857889
:107AC0000A123A9C7CFF7DFF7A017B00124BD07436
:107AD0000612382F8038850A82850B83A3A3A3A3BF
:107AE000A3A3127B22EEFAEFFB125854E4F50EF535
:107AF0000F780E123A9C7402123865123AB37CFF6A
:107B00007DFFAA0AAB0B124BDC740412382F8A0AD1
:107B10008B0BE50A450B70BE740212382F7F0602EC
:107B2000395B126DBD127B2922E0FCA3E0FD2274BB
:107B3000F41238898A0A8B0BECFEEDFF901BA0E053
:107B4000F4604B7A097B00125A22EA4B60408A8229
:107B50008B8374B1F0A3E4127B91F08A828B83A3B0
:107B6000A3E50AF0A3E50B127B91A3EEF0A3EFF0DF
:107B7000740C123865127A348A828B83A3A3A3A370
:107B8000A3A3A3126FAE901BA0E0F9125A2E025EBF
:107B9000E9F08A828B83A3A3A3A32274F612388907
:107BA000E4F50AF50B780A123A9C7C007D007AA075
:107BB0007B03124E64740212382F9003A0E075F01C
:107BC00026A4FAABF0125AD09003A1EAF0A3EBF08E
:107BD0009003A1127FA1E849603A7A008019EA1265
:107BE0007DE074FFF0A3F088828983A3A3A3E4F06F
:107BF000E8127DA5127C179003A0E0F8EAC3984034
:107C0000DD7A00EA127C58F5827403127C17EAC30D
:107C1000940C40EF027E8B39F583E4F0A3F00A2246
:107C200074F71238897E00EE127C58F8740339F923
:107C300088828983E0FCA3E0FDEC4D700D88828989
:107C400083EAF0A3EBF0790080090EEEC3940C40B8
:107C5000D679137F0102395B25E0F8E433F974A388
:107C6000282274F0123889890CEAFEEBFF8C0D8D06
:107C70000E124F848B0BEA450B60057911027D349F
:107C80007AFF7BFF124F848A0A8B0BEA450B700345
:107C9000027D328A828B83A3A3A3A3E50EF0751025
:107CA000067511007810123A9C7412123865E0FCC7
:107CB000A3E0FDEA2405FAE4350BFB1259FE740239
:107CC00012382F850A82850B83A3EEF0A3EFF0858F
:107CD0000A82850B83A3A3A3E50DF0850A82850B99
:107CE00083E50CF0E50A127DA5350BF583E4F0A3DE
:107CF000F07412123865E0C0E0E50A240BF582E466
:107D0000350BF583D0E0F07413123865127FA1E5CE
:107D10000A240C127D397415123865127FA1E50A08
:107D2000240E127D397900EEFAEFFB124FB4790080
:107D3000800279157F0802395BF582E4350BF58303
:107D4000E8F0A3E9F02274F6123889124F848A0A07
:107D50008B0BAE0AAF0BEE4F60468E828F83A385EE
:107D6000820A85830B7901127DAD124FB4EE127D2C
:107D7000A53F127DABEA4B6003125AD67C267D00EC
:107D80007900EEFAEFFB125A16850A82850B83748E
:107D9000FFF0A3F08E828F83A3A3A3E4F0F9800207
:107DA0007902027E8B2424F582E422F583E0FAA393
:107DB000E0FB22C082C0837C0080010C9003A0E025
:107DC000F8ECC3985013EC127DE0E06A7003A3E076
:107DD0006B70E8E8FAE9FB80047A007B00027EC160
:107DE00075F026A4F8A9F09003A1E028F8A3E039E3
:107DF000F988828983A322C082C083780080010829
:107E00009003A0E0FAE8C39A502AE875F026A4FA95
:107E1000ABF09003A1E02AFAA3E03BFB8A828B83BC
:107E2000A3E0F47003A3E0F460D58A828B83E06959
:107E300070CD80047A007B00027EC174F61238890E
:107E4000E9FE74FE6A700374FF6B6014124F848A3B
:107E5000828B83E5824583600BA3A3A3E05E60046D
:107E6000790180027900802374F6123889124F84D8
:107E70008A0A8B0BA80AA90BE849600DE8240BF5C8
:107E800082E439F583E0F9800279007F0202395BF0
:107E9000C082C08379007800801DE875F026A4FABE
:107EA000ABF09003A1E02AFCA3E03B8C82F583A316
:107EB000A3A3E0600109089003A0E0FAE8C39A4098
:107EC000D9D083D08202344274F6123889ECFEEDA8
:107ED000FF124F848A0A8B0BA80AA90BE84960217C
:107EE000E8240EF850010988828983E06E7003A3AC
:107EF000E06F600D88828983EEF0A3EFF079008057
:107F0000027901027E8B74F6123889124F848A0A34
:107F10008B0BA80AA90BE849600CE8240EF582E453
:107F200039127DAB80047A007B00027E8B74F412E0
:107F30003889EAFEEBFF890A8C0B124F84EA4B70FA
:107F40000E74FE6E700374FF6F604D7914804BEAFF
:107F5000127DA53B127F9FEA2403F582E43BF58363
:107F6000E849700EE0A2E45014E0A2E44013790F57
:107F70008028E05412641070F0E50B60EC79058005
:107F800019E8496013E8241AF582E439F583E0C35F
:107F9000950A5004790C800279007F0402395BF560
:107FA00083E0F8A3E0F92274F6123889EAFEEBFFC9
:107FB000890B750A00A80AE828F8E433F974A328A5
:107FC000F582740339127F9F88828983E582458315
:107FD0006009A90BEEFAEFFB123887050AE50AC320
:107FE000940C40D1027E8BA8BDE8F9E5BCFAE9FB10
:107FF00002344253B4F3EBF5BCEAF5BC023442FF61
:1080000074F4123889E99003CDF0125398907800F7
:10801000E0C4540F540764037004793F8002797FF1
:10802000750A06750B00780A123A9C7CBB7D037AB0
:10803000EA7B071258D2740212382F9003BBE0F487
:108040007049A3E0F47044A3E0F4703FA3E0F4703F
:108050003AA3E0F47035A3E0F4703090780EE0902D
:1080600003BBF090780FE09003BCF0907810E090A4
:1080700003BDF0907811E09003BEF0907812E0908C
:1080800003BFF0907813E09003C0F09003C1128119
:10809000E7129C659003EB7406F0A3740D128B60DD
:1080A0007441F0A37401F09007311281E79007301A
:1080B000E4F090073EF0A374A0128B607403F0A369
:1080C0007407128B607428128B6004F0A3E4F090A4
:1080D0000767F090078D1281E790078CE4F0900716
:1080E0009304128B601281D5E4F0A304F0A3128BE9
:1080F00060128B5EF09007A41281E79007A3E4F072
:108100009007AA04F0A3E41281D5128B5EF0A37449
:1081100005F09007B474FFF0A3E4F09007B6F09078
:1081200007B804F09007B97490F0A37401F01250EE
:10813000E6124FD212535679017ABB7B0712521EB8
:108140009007BBE075F01484E5F004F0790C7ADC5C
:108150007B0712521E1252367A009003CDE0F912BC
:108160005AE8907803E0644270569007BBE014F040
:10817000704EC2AF12817700782AD0E0F618D0E0B6
:10818000F6E59F5407F87005750BFF8003750B7FAC
:10819000C4C0E07829E6F50A08E6550BF50B740B28
:1081A000780A1237F7D0E0250AF8906270E0A2E76B
:1081B00040F8E8C333906272F0906270E0D2E0F071
:1081C0009003F8E4F0A3F07A80FB9003CDE0F9127D
:1081D0005A520287731281DE1281DEF0A322F0A3CD
:1081E0007480F0A37402221281EEF0A3F02274FFD7
:1081F000F0A3F0A3F0A3F0A32274F4123889EAFEEE
:10820000EBFFEEA2E050409003CFE0C39480E0503B
:108210000F25E0F8E433F974A328F582741B800E6F
:10822000F425E0F8E433F974B128F582741B39F5CC
:1082300083128EFB1238877A009003CDE0F9125A30
:10824000E8EE640102848A540860599007B21284EF
:10825000D2750A00780A123AA01284A31237F7786E
:108260000A123A9CEA2430F582E43BF583123AB3D1
:108270001284B4123A9C128496123A9CEA240BF5AA
:1082800082EB129DD4FD7C008A828B83A3A3A3A3DF
:10829000E0FA7B007900124E1C740912382FEE644C
:1082A0000802848AEE54106037750A00780A123A80
:1082B000A0E4F50B780A123A9C780A123A9C780AE4
:1082C000123A9C780A123A9C7D007C007A007B006E
:1082D0007902124E1C740912382FEE641002848A3F
:1082E000EE54026037750A00780A123AA0E4F50BE2
:1082F000780A123A9C780A123A9C780A123A9C78C8
:108300000A123A9C7D007C017A007B00793C124E77
:108310001C740912382FEE640202848AEE54046041
:108320005E9003FC1284D2EA242A1284CAF50A78E9
:108330000A123AA01284A31237F7780A123A9CEA7A
:108340002420F582E43BF583123AB31284B4123A46
:108350009C128496123A9CEA240BF582EB129DD46F
:10836000FD7C018A828B83A3A3A3A3E0FA7B00791F
:1083700000124E1C740912382FEE640402848AEE37
:1083800054406037750A00780A123AA0E4F50B7879
:108390000A123A9C780A123A9C780A123A9C780A95
:1083A000123A9C7D007C017A007B00793B124E1CC6
:1083B000740912382FEE644002848AEE54806031D2
:1083C0009007B9128D02E84960217900125AE290B3
:1083D00007B91296F9780A123A987A007B0190034D
:1083E000CDE0F9125B60740412382FEE64800284D1
:1083F0008AEF5401600D7901125AE2EEFAEF64013E
:1084000002848CEF5402600AC2AF75C9AB75C95BB8
:1084100080FEEF5404600A1247B6EEFAEF6404805F
:108420006B9003D4E064017066EE542060619003A9
:10843000CEE014601514601214600F14600C146008
:108440001524FE6027146024803D7900125026799F
:1084500001125026803190079BE0FA7900125032C9
:1084600090079BE0FA7901125032801B793F90030C
:10847000FCE0FA75F00CA4CAA8F028FB74FE2AFAF6
:1084800074033BFB1251DCEE6420FAEFFB80047AAC
:10849000007B00028773EA2405F50AEB3401F50B33
:1084A000780A22EA2432F582E43BF5831296AE7410
:1084B00004780A22EA242E1284CAF50AA3E0C31320
:1084C000F50BE50A13F50A780A22F582E43BF583F9
:1084D000E022E0F875F00CA4C8AAF02AF974FE288E
:1084E000FA740339FB2274F6123889EA540F6004D7
:1084F000780180027800E8F98A0A8B0B7404780A04
:108500001237F7E50A29F50A750B007404780A1288
:108510003806E50A2408FAE4350BFB125A7C8A0A6D
:108520008B0BA80AA90BE8496009E82404FAE4398E
:10853000FB80047A007B00028CE774F6123889EA2B
:108540002405FA50010B125A7C8A0A8B0BA80AA93F
:108550000BE8496009E82405FAE439FB80047A0055
:108560007B00028CE7C082C083C2AF12537AE5E180
:1085700070FC75E1011250D475E1F11253A4125050
:10858000C87907125446790112544C79021253CE1D
:1085900012540412542E790012544079011254409E
:1085A0009084F71236D71253B690073EE4F0A3F04A
:1085B000A3F09007427407F09007417403F090070E
:1085C00047E4F0900746F0900767F0900794F0902A
:1085D00007ABF01251C41252D21251E87900125472
:1085E000529007221281EE741FF0906012E4F0A303
:1085F000F0906063F07521009003CEF0900727F0B3
:10860000900728740CF0900729E4F090072A04F0F2
:1086100090072BE4F090072C04F090072DE4F090E5
:1086200003D0F0A3F09003D3F09003D404F09003B0
:10863000EA04F09007B7E4F0D2AFF9029B4FC08292
:10864000C0839003BB1287D8128F5F8A828B83A36B
:10865000128F598A828B83A3A3128F538A828B83B2
:10866000A3A3A3128F4D8A828B83A3A3A3A3F0900D
:1086700003C01287D0A3029B4CC082C0838A828B26
:1086800083E09003C11287A7A3E09003C2129C3D30
:108690009003C3129C4A9003C4129C569003C512C7
:1086A0009C51E09003C6029B4CC082C0831250F2E2
:1086B000E9F970051254047900029B4F74F71238DF
:1086C00089EAFEEBFF890A1250F2E9F9702CE50AFB
:1086D000600A7401650A600A7912801E7C007900C4
:1086E00080047C007901EEFAEFFB12540AE9F87479
:1086F00003687004790780027900028F6574F612AE
:108700003889EA4B600EEC4D600A740A1238651223
:108710009B2970047912800F780A123A9C12523009
:10872000740212382F7900028CE774F4123889EA47
:10873000FEEBFF890A9003CEE064096014E0640A4E
:10874000600FE0640B600AE0640C6005E0640D708B
:1087500004790C801E1252FC8B0DEA450D700BA99A
:108760000AEEFAEFFB12521E80099003D0E044405B
:10877000F0790D7F0402395B74F6123889EA4B6098
:1087800003E970047912801CEAFEEBFF890A125299
:1087900018E98E828F83F0A3AE82AF83150AE50AB3
:1087A00070EC7900028CE7F08A828B8322C082C051
:1087B00083E9F8740168700B9007B77401F07900D1
:1087C000029B4FE870069007B7E480F1791280F0C1
:1087D0001287D8A3A3A3A322E08A828B83221287C5
:1087E000D8F02274F71238899003CEE0640C70122E
:1087F00090618EE0F874806870368C828D83747F0F
:10880000803AC3EB940F502412979D501F129B0A7D
:10881000129DEE70047902802675F00CEBA42EFBFD
:10882000746628F58274043BF58380C77912800F43
:108830009003D2E0F9E8C3998C828D83F07900022D
:108840008F6574F7123889E9FE74056E601E741323
:108850006E601974146E601474156E600F741A6E65
:10886000600A74296E6005743B6E702FC3EB940F21
:10887000502912979D5024129DDA70047902802F9E
:10888000129201EA24691284CA6401701AEA246A05
:108890001284CA64027008793A8014791280101226
:1088A00088B21251AC80061288B21251A07900022F
:1088B0008F651291F7EEF0EA241DF582E43BF58313
:1088C000E4F0A3F079022274E81238898A0A8B0B4B
:1088D0008919EC4D6014E9C3941C500E74181238B9
:1088E00065E0FA600A74016A60057912028B59C367
:1088F000EB940F5037C3E50A12979F502FA80AE850
:1089000075F00CA4C8ABF02BFB75F00CE50BA42B99
:10891000129DEE70047902801574FE28FE740339EE
:10892000FF900728E0700A7907028B597912028BB1
:1089300059EC24FEFCED34FFFD8C828D83E519F0AB
:10894000EA7004740280027401A3F0EC24FEFCEDD2
:1089500034FFFDEE2463FAE43FFB125206A9A8C2DD
:10896000AF900728E014F0E9A2E7E433F8E9A2E7C2
:1089700092AF9003CEE064086008E06407600302F1
:108980008B579003FCE0650A450B6003028B577917
:1089900000EEFAEFFB123F279061D0E07003028BEC
:1089A0005790072CE064016003028B57EE241DF5FD
:1089B00082E43FF583128D02E8497003028B57A2CF
:1089C000AFE433F518C2AF1252FC8A128B13125364
:1089D0008C8A0A8B0B8C0C8D0D8A0E8B0F8C108D54
:1089E0001190850F780E12361F780E123A98851264
:1089F00082851383A3A31236D71244197404123844
:108A00002FE964016003028B511296CFE02406F532
:108A10000EA3E03400F50FE4F510F511780A790E95
:108A200012360C780A123A98851282851383A3A312
:108A30001236D7124419740412382FE96401600306
:108A4000028B51E5122408F514E43513F51585144D
:108A500082F583123AAFAA0AAB0BAC0CAD0D1244EF
:108A600075740412382FEE242EF50AE43FF50B85B9
:108A70000A82F583123AB31243C8740212382F8A5D
:108A80000E8B0F8C108D117410780E1235D48D173B
:108A90008E828F83A3A3A3A3A3A3A3A3A3128D0258
:108AA0008E828F83A3A3A3A3A3129747E82CF8E990
:108AB0003517F98E828F83A3A3A3A3A3A3A3129731
:108AC00047850A82850B83E0F50EA3E0F50FE48568
:108AD00014828515838C0A8D0BF50CF50D780A79B7
